{
  "address": "0x5FC8d32690cc91D4c39d9d3abcBD16989F875707",
  "abi": [
    {
      "inputs": [
        {
          "internalType": "address",
          "name": "marketplaceAddress",
          "type": "address"
        },
        {
          "internalType": "address",
          "name": "_VRFCoordinator",
          "type": "address"
        },
        {
          "internalType": "address",
          "name": "_LinkToken",
          "type": "address"
        },
        {
          "internalType": "bytes32",
          "name": "_keyhash",
          "type": "bytes32"
        },
        {
          "internalType": "uint256",
          "name": "_fee",
          "type": "uint256"
        }
      ],
      "stateMutability": "nonpayable",
      "type": "constructor"
    },
    {
      "anonymous": false,
      "inputs": [
        {
          "indexed": true,
          "internalType": "address",
          "name": "owner",
          "type": "address"
        },
        {
          "indexed": true,
          "internalType": "address",
          "name": "approved",
          "type": "address"
        },
        {
          "indexed": true,
          "internalType": "uint256",
          "name": "tokenId",
          "type": "uint256"
        }
      ],
      "name": "Approval",
      "type": "event"
    },
    {
      "anonymous": false,
      "inputs": [
        {
          "indexed": true,
          "internalType": "address",
          "name": "owner",
          "type": "address"
        },
        {
          "indexed": true,
          "internalType": "address",
          "name": "operator",
          "type": "address"
        },
        {
          "indexed": false,
          "internalType": "bool",
          "name": "approved",
          "type": "bool"
        }
      ],
      "name": "ApprovalForAll",
      "type": "event"
    },
    {
      "anonymous": false,
      "inputs": [
        {
          "indexed": true,
          "internalType": "address",
          "name": "from",
          "type": "address"
        },
        {
          "indexed": true,
          "internalType": "address",
          "name": "to",
          "type": "address"
        },
        {
          "indexed": true,
          "internalType": "uint256",
          "name": "tokenId",
          "type": "uint256"
        }
      ],
      "name": "Transfer",
      "type": "event"
    },
    {
      "inputs": [
        {
          "internalType": "address",
          "name": "to",
          "type": "address"
        },
        {
          "internalType": "uint256",
          "name": "tokenId",
          "type": "uint256"
        }
      ],
      "name": "approve",
      "outputs": [],
      "stateMutability": "nonpayable",
      "type": "function"
    },
    {
      "inputs": [
        {
          "internalType": "address",
          "name": "owner",
          "type": "address"
        }
      ],
      "name": "balanceOf",
      "outputs": [
        {
          "internalType": "uint256",
          "name": "",
          "type": "uint256"
        }
      ],
      "stateMutability": "view",
      "type": "function"
    },
    {
      "inputs": [],
      "name": "collectionName",
      "outputs": [
        {
          "internalType": "string",
          "name": "",
          "type": "string"
        }
      ],
      "stateMutability": "view",
      "type": "function"
    },
    {
      "inputs": [],
      "name": "collectionSymbol",
      "outputs": [
        {
          "internalType": "string",
          "name": "",
          "type": "string"
        }
      ],
      "stateMutability": "view",
      "type": "function"
    },
    {
      "inputs": [],
      "name": "createEternalNFT",
      "outputs": [
        {
          "internalType": "uint256",
          "name": "",
          "type": "uint256"
        }
      ],
      "stateMutability": "nonpayable",
      "type": "function"
    },
    {
      "inputs": [
        {
          "internalType": "uint256",
          "name": "tokenId",
          "type": "uint256"
        }
      ],
      "name": "getApproved",
      "outputs": [
        {
          "internalType": "address",
          "name": "",
          "type": "address"
        }
      ],
      "stateMutability": "view",
      "type": "function"
    },
    {
      "inputs": [],
      "name": "getMyEternalNFT",
      "outputs": [
        {
          "components": [
            {
              "internalType": "uint256",
              "name": "tokenId",
              "type": "uint256"
            },
            {
              "internalType": "address",
              "name": "owner",
              "type": "address"
            },
            {
              "internalType": "string",
              "name": "tokenUri",
              "type": "string"
            }
          ],
          "internalType": "struct EternalNFT.nftItem[]",
          "name": "",
          "type": "tuple[]"
        }
      ],
      "stateMutability": "view",
      "type": "function"
    },
    {
      "inputs": [],
      "name": "getRandomNumber",
      "outputs": [
        {
          "internalType": "bytes32",
          "name": "requestId",
          "type": "bytes32"
        }
      ],
      "stateMutability": "nonpayable",
      "type": "function"
    },
    {
      "inputs": [
        {
          "internalType": "address",
          "name": "owner",
          "type": "address"
        },
        {
          "internalType": "address",
          "name": "operator",
          "type": "address"
        }
      ],
      "name": "isApprovedForAll",
      "outputs": [
        {
          "internalType": "bool",
          "name": "",
          "type": "bool"
        }
      ],
      "stateMutability": "view",
      "type": "function"
    },
    {
      "inputs": [],
      "name": "name",
      "outputs": [
        {
          "internalType": "string",
          "name": "",
          "type": "string"
        }
      ],
      "stateMutability": "view",
      "type": "function"
    },
    {
      "inputs": [
        {
          "internalType": "uint256",
          "name": "tokenId",
          "type": "uint256"
        }
      ],
      "name": "ownerOf",
      "outputs": [
        {
          "internalType": "address",
          "name": "",
          "type": "address"
        }
      ],
      "stateMutability": "view",
      "type": "function"
    },
    {
      "inputs": [
        {
          "internalType": "uint256",
          "name": "tokenId",
          "type": "uint256"
        }
      ],
      "name": "pickFirstWord",
      "outputs": [
        {
          "internalType": "string",
          "name": "",
          "type": "string"
        }
      ],
      "stateMutability": "view",
      "type": "function"
    },
    {
      "inputs": [
        {
          "internalType": "uint256",
          "name": "tokenId",
          "type": "uint256"
        }
      ],
      "name": "pickSecondWord",
      "outputs": [
        {
          "internalType": "string",
          "name": "",
          "type": "string"
        }
      ],
      "stateMutability": "view",
      "type": "function"
    },
    {
      "inputs": [
        {
          "internalType": "uint256",
          "name": "tokenId",
          "type": "uint256"
        }
      ],
      "name": "pickThirdWord",
      "outputs": [
        {
          "internalType": "string",
          "name": "",
          "type": "string"
        }
      ],
      "stateMutability": "view",
      "type": "function"
    },
    {
      "inputs": [],
      "name": "randomResult",
      "outputs": [
        {
          "internalType": "uint256",
          "name": "",
          "type": "uint256"
        }
      ],
      "stateMutability": "view",
      "type": "function"
    },
    {
      "inputs": [
        {
          "internalType": "bytes32",
          "name": "requestId",
          "type": "bytes32"
        },
        {
          "internalType": "uint256",
          "name": "randomness",
          "type": "uint256"
        }
      ],
      "name": "rawFulfillRandomness",
      "outputs": [],
      "stateMutability": "nonpayable",
      "type": "function"
    },
    {
      "inputs": [
        {
          "internalType": "address",
          "name": "from",
          "type": "address"
        },
        {
          "internalType": "address",
          "name": "to",
          "type": "address"
        },
        {
          "internalType": "uint256",
          "name": "tokenId",
          "type": "uint256"
        }
      ],
      "name": "safeTransferFrom",
      "outputs": [],
      "stateMutability": "nonpayable",
      "type": "function"
    },
    {
      "inputs": [
        {
          "internalType": "address",
          "name": "from",
          "type": "address"
        },
        {
          "internalType": "address",
          "name": "to",
          "type": "address"
        },
        {
          "internalType": "uint256",
          "name": "tokenId",
          "type": "uint256"
        },
        {
          "internalType": "bytes",
          "name": "_data",
          "type": "bytes"
        }
      ],
      "name": "safeTransferFrom",
      "outputs": [],
      "stateMutability": "nonpayable",
      "type": "function"
    },
    {
      "inputs": [
        {
          "internalType": "address",
          "name": "operator",
          "type": "address"
        },
        {
          "internalType": "bool",
          "name": "approved",
          "type": "bool"
        }
      ],
      "name": "setApprovalForAll",
      "outputs": [],
      "stateMutability": "nonpayable",
      "type": "function"
    },
    {
      "inputs": [
        {
          "internalType": "bytes4",
          "name": "interfaceId",
          "type": "bytes4"
        }
      ],
      "name": "supportsInterface",
      "outputs": [
        {
          "internalType": "bool",
          "name": "",
          "type": "bool"
        }
      ],
      "stateMutability": "view",
      "type": "function"
    },
    {
      "inputs": [],
      "name": "symbol",
      "outputs": [
        {
          "internalType": "string",
          "name": "",
          "type": "string"
        }
      ],
      "stateMutability": "view",
      "type": "function"
    },
    {
      "inputs": [
        {
          "internalType": "uint256",
          "name": "tokenId",
          "type": "uint256"
        }
      ],
      "name": "tokenURI",
      "outputs": [
        {
          "internalType": "string",
          "name": "",
          "type": "string"
        }
      ],
      "stateMutability": "view",
      "type": "function"
    },
    {
      "inputs": [
        {
          "internalType": "address",
          "name": "from",
          "type": "address"
        },
        {
          "internalType": "address",
          "name": "to",
          "type": "address"
        },
        {
          "internalType": "uint256",
          "name": "tokenId",
          "type": "uint256"
        }
      ],
      "name": "transferFrom",
      "outputs": [],
      "stateMutability": "nonpayable",
      "type": "function"
    }
  ],
  "transactionHash": "0x672dd24976a5f871cfbc7d02cfbfa1ed5f56bbd5d4f2a1541a764dec55bef096",
  "args": [
    "0xDc64a140Aa3E981100a9becA4E685f962f0cF6C9",
    "0x9fE46736679d2D9a65F0992F2272dE9f3c7fa6e0",
    "0x5FbDB2315678afecb367f032d93F642f64180aa3",
    "0x6c3699283bda56ad74f6b855546325b68d482e983852a7a82979cc4807b641f4",
    "100000000000000000"
  ],
  "solcInputHash": "fd43e73d2263abcdd23fffb7457318a3",
  "bytecode": "0x60c060405260405180610160016040528061012f81526020016200563761012f9139601190805190602001906200003892919062000b4d565b506040518061016001604052806040518060400160405280600481526020017f466972650000000000000000000000000000000000000000000000000000000081525081526020016040518060400160405280600481526020017f57696e640000000000000000000000000000000000000000000000000000000081525081526020016040518060400160405280600481526020017f576176650000000000000000000000000000000000000000000000000000000081525081526020016040518060400160405280600581526020017f456172746800000000000000000000000000000000000000000000000000000081525081526020016040518060400160405280600581526020017f4c6967687400000000000000000000000000000000000000000000000000000081525081526020016040518060400160405280600681526020017f536861646f77000000000000000000000000000000000000000000000000000081525081526020016040518060400160405280600781526020017f5468756e6465720000000000000000000000000000000000000000000000000081525081526020016040518060400160405280600581526020017f537061636500000000000000000000000000000000000000000000000000000081525081526020016040518060400160405280600481526020017f54696d650000000000000000000000000000000000000000000000000000000081525081526020016040518060400160405280600781526020017f477261766974790000000000000000000000000000000000000000000000000081525081526020016040518060400160405280600381526020017f4963650000000000000000000000000000000000000000000000000000000000815250815250601290600b620002de92919062000bde565b50604051806101e001604052806040518060400160405280600581526020017f53776f726400000000000000000000000000000000000000000000000000000081525081526020016040518060400160405280600581526020017f537065617200000000000000000000000000000000000000000000000000000081525081526020016040518060400160405280600681526020017f536869656c64000000000000000000000000000000000000000000000000000081525081526020016040518060400160405280600681526020017f48616d6d6572000000000000000000000000000000000000000000000000000081525081526020016040518060400160405280600581526020017f536162657200000000000000000000000000000000000000000000000000000081525081526020016040518060400160405280600381526020017f417865000000000000000000000000000000000000000000000000000000000081525081526020016040518060400160405280600381526020017f426f77000000000000000000000000000000000000000000000000000000000081525081526020016040518060400160405280600581526020017f537461666600000000000000000000000000000000000000000000000000000081525081526020016040518060400160405280600481526020017f57616e640000000000000000000000000000000000000000000000000000000081525081526020016040518060400160405280600481526020017f466973740000000000000000000000000000000000000000000000000000000081525081526020016040518060400160405280600681526020017f446167676572000000000000000000000000000000000000000000000000000081525081526020016040518060400160405280600681526020017f536379746865000000000000000000000000000000000000000000000000000081525081526020016040518060400160405280600481526020017f4d6163650000000000000000000000000000000000000000000000000000000081525081526020016040518060400160405280600581526020017f426c61646500000000000000000000000000000000000000000000000000000081525081526020016040518060400160405280600681526020017f4b6174616e610000000000000000000000000000000000000000000000000000815250815250601390600f6200067092919062000c45565b506040518060e001604052806040518060400160405280600481526020017f4c6f72640000000000000000000000000000000000000000000000000000000081525081526020016040518060400160405280600481526020017f4b696e670000000000000000000000000000000000000000000000000000000081525081526020016040518060400160405280600781526020017f456d7065726f720000000000000000000000000000000000000000000000000081525081526020016040518060400160405280600981526020017f56656e657261626c65000000000000000000000000000000000000000000000081525081526020016040518060400160405280600881526020017f416e636573746f7200000000000000000000000000000000000000000000000081525081526020016040518060400160405280600581526020017f5361696e7400000000000000000000000000000000000000000000000000000081525081526020016040518060400160405280600381526020017f476f64000000000000000000000000000000000000000000000000000000000081525081525060149060076200082992919062000cac565b503480156200083757600080fd5b50604051620057663803806200576683398181016040528101906200085d919062000de5565b83836040518060400160405280600a81526020017f457465726e616c4e4654000000000000000000000000000000000000000000008152506040518060400160405280600481526020017f454e4654000000000000000000000000000000000000000000000000000000008152508160009080519060200190620008e392919062000b4d565b508060019080519060200190620008fc92919062000b4d565b5050508173ffffffffffffffffffffffffffffffffffffffff1660a08173ffffffffffffffffffffffffffffffffffffffff1660601b815250508073ffffffffffffffffffffffffffffffffffffffff1660808173ffffffffffffffffffffffffffffffffffffffff1660601b81525050505084600960006101000a81548173ffffffffffffffffffffffffffffffffffffffff021916908373ffffffffffffffffffffffffffffffffffffffff160217905550620009c062000a1960201b60201c565b600a9080519060200190620009d792919062000b4d565b50620009e862000ab360201b60201c565b600b9080519060200190620009ff92919062000b4d565b5081600d8190555080600e81905550505050505062000f62565b60606000805462000a2a9062000eaf565b80601f016020809104026020016040519081016040528092919081815260200182805462000a589062000eaf565b801562000aa95780601f1062000a7d5761010080835404028352916020019162000aa9565b820191906000526020600020905b81548152906001019060200180831162000a8b57829003601f168201915b5050505050905090565b60606001805462000ac49062000eaf565b80601f016020809104026020016040519081016040528092919081815260200182805462000af29062000eaf565b801562000b435780601f1062000b175761010080835404028352916020019162000b43565b820191906000526020600020905b81548152906001019060200180831162000b2557829003601f168201915b5050505050905090565b82805462000b5b9062000eaf565b90600052602060002090601f01602090048101928262000b7f576000855562000bcb565b82601f1062000b9a57805160ff191683800117855562000bcb565b8280016001018555821562000bcb579182015b8281111562000bca57825182559160200191906001019062000bad565b5b50905062000bda919062000d13565b5090565b82805482825590600052602060002090810192821562000c32579160200282015b8281111562000c3157825182908051906020019062000c2092919062000b4d565b509160200191906001019062000bff565b5b50905062000c41919062000d32565b5090565b82805482825590600052602060002090810192821562000c99579160200282015b8281111562000c9857825182908051906020019062000c8792919062000b4d565b509160200191906001019062000c66565b5b50905062000ca8919062000d32565b5090565b82805482825590600052602060002090810192821562000d00579160200282015b8281111562000cff57825182908051906020019062000cee92919062000b4d565b509160200191906001019062000ccd565b5b50905062000d0f919062000d32565b5090565b5b8082111562000d2e57600081600090555060010162000d14565b5090565b5b8082111562000d56576000818162000d4c919062000d5a565b5060010162000d33565b5090565b50805462000d689062000eaf565b6000825580601f1062000d7c575062000d9d565b601f01602090049060005260206000209081019062000d9c919062000d13565b5b50565b60008151905062000db18162000f14565b92915050565b60008151905062000dc88162000f2e565b92915050565b60008151905062000ddf8162000f48565b92915050565b600080600080600060a0868803121562000dfe57600080fd5b600062000e0e8882890162000da0565b955050602062000e218882890162000da0565b945050604062000e348882890162000da0565b935050606062000e478882890162000db7565b925050608062000e5a8882890162000dce565b9150509295509295909350565b600062000e748262000e85565b9050919050565b6000819050919050565b600073ffffffffffffffffffffffffffffffffffffffff82169050919050565b6000819050919050565b6000600282049050600182168062000ec857607f821691505b6020821081141562000edf5762000ede62000ee5565b5b50919050565b7f4e487b7100000000000000000000000000000000000000000000000000000000600052602260045260246000fd5b62000f1f8162000e67565b811462000f2b57600080fd5b50565b62000f398162000e7b565b811462000f4557600080fd5b50565b62000f538162000ea5565b811462000f5f57600080fd5b50565b60805160601c60a05160601c61469b62000f9c6000396000818161106701526123c10152600081816115ed0152612385015261469b6000f3fe608060405234801561001057600080fd5b506004361061014d5760003560e01c80636352211e116100c3578063c63033861161007c578063c63033861461039e578063c87b56dd146103ce578063dbdff2c1146103fe578063e2d2c3081461041c578063e5326ab11461044c578063e985e9c51461046a5761014d565b80636352211e146102cc57806370a08231146102fc57806394985ddd1461032c57806395d89b4114610348578063a22cb46514610366578063b88d4fde146103825761014d565b80632f39352a116101155780632f39352a146102085780633330880e1461022657806338c01442146102445780633bad0d361461026257806342619f661461029257806342842e0e146102b05761014d565b806301ffc9a71461015257806306fdde0314610182578063081812fc146101a0578063095ea7b3146101d057806323b872dd146101ec575b600080fd5b61016c60048036038101906101679190612de2565b61049a565b6040516101799190613756565b60405180910390f35b61018a61057c565b60405161019791906137fa565b60405180910390f35b6101ba60048036038101906101b59190612e34565b61060e565b6040516101c7919061368f565b60405180910390f35b6101ea60048036038101906101e59190612d41565b610693565b005b61020660048036038101906102019190612c3b565b6107ab565b005b61021061080b565b60405161021d91906137fa565b60405180910390f35b61022e610899565b60405161023b9190613a5c565b60405180910390f35b61024c610a8a565b6040516102599190613734565b60405180910390f35b61027c60048036038101906102779190612e34565b610db7565b60405161028991906137fa565b60405180910390f35b61029a610ed5565b6040516102a79190613a5c565b60405180910390f35b6102ca60048036038101906102c59190612c3b565b610edb565b005b6102e660048036038101906102e19190612e34565b610efb565b6040516102f3919061368f565b60405180910390f35b61031660048036038101906103119190612bd6565b610fad565b6040516103239190613a5c565b60405180910390f35b61034660048036038101906103419190612da6565b611065565b005b610350611101565b60405161035d91906137fa565b60405180910390f35b610380600480360381019061037b9190612d05565b611193565b005b61039c60048036038101906103979190612c8a565b611314565b005b6103b860048036038101906103b39190612e34565b611376565b6040516103c591906137fa565b60405180910390f35b6103e860048036038101906103e39190612e34565b611494565b6040516103f591906137fa565b60405180910390f35b6104066115e6565b6040516104139190613771565b60405180910390f35b61043660048036038101906104319190612e34565b6116e8565b60405161044391906137fa565b60405180910390f35b610454611806565b60405161046191906137fa565b60405180910390f35b610484600480360381019061047f9190612bff565b611894565b6040516104919190613756565b60405180910390f35b60007f80ac58cd000000000000000000000000000000000000000000000000000000007bffffffffffffffffffffffffffffffffffffffffffffffffffffffff1916827bffffffffffffffffffffffffffffffffffffffffffffffffffffffff1916148061056557507f5b5e139f000000000000000000000000000000000000000000000000000000007bffffffffffffffffffffffffffffffffffffffffffffffffffffffff1916827bffffffffffffffffffffffffffffffffffffffffffffffffffffffff1916145b80610575575061057482611928565b5b9050919050565b60606000805461058b90613d44565b80601f01602080910402602001604051908101604052809291908181526020018280546105b790613d44565b80156106045780601f106105d957610100808354040283529160200191610604565b820191906000526020600020905b8154815290600101906020018083116105e757829003601f168201915b5050505050905090565b600061061982611992565b610658576040517f08c379a000000000000000000000000000000000000000000000000000000000815260040161064f9061399c565b60405180910390fd5b6004600083815260200190815260200160002060009054906101000a900473ffffffffffffffffffffffffffffffffffffffff169050919050565b600061069e82610efb565b90508073ffffffffffffffffffffffffffffffffffffffff168373ffffffffffffffffffffffffffffffffffffffff16141561070f576040517f08c379a000000000000000000000000000000000000000000000000000000000815260040161070690613a1c565b60405180910390fd5b8073ffffffffffffffffffffffffffffffffffffffff1661072e6119fe565b73ffffffffffffffffffffffffffffffffffffffff16148061075d575061075c816107576119fe565b611894565b5b61079c576040517f08c379a0000000000000000000000000000000000000000000000000000000008152600401610793906138dc565b60405180910390fd5b6107a68383611a06565b505050565b6107bc6107b66119fe565b82611abf565b6107fb576040517f08c379a00000000000000000000000000000000000000000000000000000000081526004016107f290613a3c565b60405180910390fd5b610806838383611b9d565b505050565b600b805461081890613d44565b80601f016020809104026020016040519081016040528092919081815260200182805461084490613d44565b80156108915780601f1061086657610100808354040283529160200191610891565b820191906000526020600020905b81548152906001019060200180831161087457829003601f168201915b505050505081565b6000806108a66008611df9565b905060006108b382610db7565b905060006108c083611376565b905060006108cd846116e8565b905060008383836040516020016108e693929190613520565b6040516020818303038152906040529050600060118585856040516020016109119493929190613551565b604051602081830303815290604052905060006109568361093184611e07565b6040516020016109429291906135de565b604051602081830303815290604052611e07565b905060008160405160200161096b9190613645565b60405160208183030381529060405290506109863389611fc5565b6109908882611fe3565b6109bd600960009054906101000a900473ffffffffffffffffffffffffffffffffffffffff166001611193565b60405180606001604052808981526020013373ffffffffffffffffffffffffffffffffffffffff16815260200182815250601060008a81526020019081526020016000206000820151816000015560208201518160010160006101000a81548173ffffffffffffffffffffffffffffffffffffffff021916908373ffffffffffffffffffffffffffffffffffffffff1602179055506040820151816002019080519060200190610a6e9291906129ec565b50905050610a7c6008612057565b879850505050505050505090565b60606000610a986008611df9565b905060008060005b83811015610b35573373ffffffffffffffffffffffffffffffffffffffff166010600083815260200190815260200160002060010160009054906101000a900473ffffffffffffffffffffffffffffffffffffffff1673ffffffffffffffffffffffffffffffffffffffff161415610b2257600183610b1f9190613b6f565b92505b8080610b2d90613da7565b915050610aa0565b5060008267ffffffffffffffff811115610b78577f4e487b7100000000000000000000000000000000000000000000000000000000600052604160045260246000fd5b604051908082528060200260200182016040528015610bb157816020015b610b9e612a72565b815260200190600190039081610b965790505b50905060005b84811015610dac573373ffffffffffffffffffffffffffffffffffffffff166010600083815260200190815260200160002060010160009054906101000a900473ffffffffffffffffffffffffffffffffffffffff1673ffffffffffffffffffffffffffffffffffffffff161415610d99576000819050600060106000838152602001908152602001600020905080604051806060016040529081600082015481526020016001820160009054906101000a900473ffffffffffffffffffffffffffffffffffffffff1673ffffffffffffffffffffffffffffffffffffffff1673ffffffffffffffffffffffffffffffffffffffff168152602001600282018054610cc190613d44565b80601f0160208091040260200160405190810160405280929190818152602001828054610ced90613d44565b8015610d3a5780601f10610d0f57610100808354040283529160200191610d3a565b820191906000526020600020905b815481529060010190602001808311610d1d57829003601f168201915b505050505081525050848681518110610d7c577f4e487b7100000000000000000000000000000000000000000000000000000000600052603260045260246000fd5b6020026020010181905250600185610d949190613b6f565b945050505b8080610da490613da7565b915050610bb7565b508094505050505090565b60606000610deb610dc78461206d565b604051602001610dd79190613623565b60405160208183030381529060405261221a565b905060128054905081610dfe9190613e04565b905060128181548110610e3a577f4e487b7100000000000000000000000000000000000000000000000000000000600052603260045260246000fd5b906000526020600020018054610e4f90613d44565b80601f0160208091040260200160405190810160405280929190818152602001828054610e7b90613d44565b8015610ec85780601f10610e9d57610100808354040283529160200191610ec8565b820191906000526020600020905b815481529060010190602001808311610eab57829003601f168201915b5050505050915050919050565b600f5481565b610ef683838360405180602001604052806000815250611314565b505050565b6000806002600084815260200190815260200160002060009054906101000a900473ffffffffffffffffffffffffffffffffffffffff169050600073ffffffffffffffffffffffffffffffffffffffff168173ffffffffffffffffffffffffffffffffffffffff161415610fa4576040517f08c379a0000000000000000000000000000000000000000000000000000000008152600401610f9b9061391c565b60405180910390fd5b80915050919050565b60008073ffffffffffffffffffffffffffffffffffffffff168273ffffffffffffffffffffffffffffffffffffffff16141561101e576040517f08c379a0000000000000000000000000000000000000000000000000000000008152600401611015906138fc565b60405180910390fd5b600360008373ffffffffffffffffffffffffffffffffffffffff1673ffffffffffffffffffffffffffffffffffffffff168152602001908152602001600020549050919050565b7f000000000000000000000000000000000000000000000000000000000000000073ffffffffffffffffffffffffffffffffffffffff163373ffffffffffffffffffffffffffffffffffffffff16146110f3576040517f08c379a00000000000000000000000000000000000000000000000000000000081526004016110ea906139fc565b60405180910390fd5b6110fd828261225c565b5050565b60606001805461111090613d44565b80601f016020809104026020016040519081016040528092919081815260200182805461113c90613d44565b80156111895780601f1061115e57610100808354040283529160200191611189565b820191906000526020600020905b81548152906001019060200180831161116c57829003601f168201915b5050505050905090565b61119b6119fe565b73ffffffffffffffffffffffffffffffffffffffff168273ffffffffffffffffffffffffffffffffffffffff161415611209576040517f08c379a00000000000000000000000000000000000000000000000000000000081526004016112009061387c565b60405180910390fd5b80600560006112166119fe565b73ffffffffffffffffffffffffffffffffffffffff1673ffffffffffffffffffffffffffffffffffffffff16815260200190815260200160002060008473ffffffffffffffffffffffffffffffffffffffff1673ffffffffffffffffffffffffffffffffffffffff16815260200190815260200160002060006101000a81548160ff0219169083151502179055508173ffffffffffffffffffffffffffffffffffffffff166112c36119fe565b73ffffffffffffffffffffffffffffffffffffffff167f17307eab39ab6107e8899845ad3d59bd9653f200f220920489ca2b5937696c31836040516113089190613756565b60405180910390a35050565b61132561131f6119fe565b83611abf565b611364576040517f08c379a000000000000000000000000000000000000000000000000000000000815260040161135b90613a3c565b60405180910390fd5b61137084848484612267565b50505050565b606060006113aa6113868461206d565b604051602001611396919061359a565b60405160208183030381529060405261221a565b9050601380549050816113bd9190613e04565b9050601381815481106113f9577f4e487b7100000000000000000000000000000000000000000000000000000000600052603260045260246000fd5b90600052602060002001805461140e90613d44565b80601f016020809104026020016040519081016040528092919081815260200182805461143a90613d44565b80156114875780601f1061145c57610100808354040283529160200191611487565b820191906000526020600020905b81548152906001019060200180831161146a57829003601f168201915b5050505050915050919050565b606061149f82611992565b6114de576040517f08c379a00000000000000000000000000000000000000000000000000000000081526004016114d59061397c565b60405180910390fd5b60006006600084815260200190815260200160002080546114fe90613d44565b80601f016020809104026020016040519081016040528092919081815260200182805461152a90613d44565b80156115775780601f1061154c57610100808354040283529160200191611577565b820191906000526020600020905b81548152906001019060200180831161155a57829003601f168201915b5050505050905060006115886122c3565b905060008151141561159e5781925050506115e1565b6000825111156115d35780826040516020016115bb9291906134fc565b604051602081830303815290604052925050506115e1565b6115dc846122da565b925050505b919050565b6000600e547f000000000000000000000000000000000000000000000000000000000000000073ffffffffffffffffffffffffffffffffffffffff166370a08231306040518263ffffffff1660e01b8152600401611644919061368f565b60206040518083038186803b15801561165c57600080fd5b505afa158015611670573d6000803e3d6000fd5b505050506040513d601f19601f820116820180604052508101906116949190612e5d565b10156116d5576040517f08c379a00000000000000000000000000000000000000000000000000000000081526004016116cc9061389c565b60405180910390fd5b6116e3600d54600e54612381565b905090565b6060600061171c6116f88461206d565b60405160200161170891906135bc565b60405160208183030381529060405261221a565b90506014805490508161172f9190613e04565b90506014818154811061176b577f4e487b7100000000000000000000000000000000000000000000000000000000600052603260045260246000fd5b90600052602060002001805461178090613d44565b80601f01602080910402602001604051908101604052809291908181526020018280546117ac90613d44565b80156117f95780601f106117ce576101008083540402835291602001916117f9565b820191906000526020600020905b8154815290600101906020018083116117dc57829003601f168201915b5050505050915050919050565b600a805461181390613d44565b80601f016020809104026020016040519081016040528092919081815260200182805461183f90613d44565b801561188c5780601f106118615761010080835404028352916020019161188c565b820191906000526020600020905b81548152906001019060200180831161186f57829003601f168201915b505050505081565b6000600560008473ffffffffffffffffffffffffffffffffffffffff1673ffffffffffffffffffffffffffffffffffffffff16815260200190815260200160002060008373ffffffffffffffffffffffffffffffffffffffff1673ffffffffffffffffffffffffffffffffffffffff16815260200190815260200160002060009054906101000a900460ff16905092915050565b60007f01ffc9a7000000000000000000000000000000000000000000000000000000007bffffffffffffffffffffffffffffffffffffffffffffffffffffffff1916827bffffffffffffffffffffffffffffffffffffffffffffffffffffffff1916149050919050565b60008073ffffffffffffffffffffffffffffffffffffffff166002600084815260200190815260200160002060009054906101000a900473ffffffffffffffffffffffffffffffffffffffff1673ffffffffffffffffffffffffffffffffffffffff1614159050919050565b600033905090565b816004600083815260200190815260200160002060006101000a81548173ffffffffffffffffffffffffffffffffffffffff021916908373ffffffffffffffffffffffffffffffffffffffff160217905550808273ffffffffffffffffffffffffffffffffffffffff16611a7983610efb565b73ffffffffffffffffffffffffffffffffffffffff167f8c5be1e5ebec7d5bd14f71427d1e84f3dd0314c0f7b2291e5b200ac8c7c3b92560405160405180910390a45050565b6000611aca82611992565b611b09576040517f08c379a0000000000000000000000000000000000000000000000000000000008152600401611b00906138bc565b60405180910390fd5b6000611b1483610efb565b90508073ffffffffffffffffffffffffffffffffffffffff168473ffffffffffffffffffffffffffffffffffffffff161480611b8357508373ffffffffffffffffffffffffffffffffffffffff16611b6b8461060e565b73ffffffffffffffffffffffffffffffffffffffff16145b80611b945750611b938185611894565b5b91505092915050565b8273ffffffffffffffffffffffffffffffffffffffff16611bbd82610efb565b73ffffffffffffffffffffffffffffffffffffffff1614611c13576040517f08c379a0000000000000000000000000000000000000000000000000000000008152600401611c0a906139bc565b60405180910390fd5b600073ffffffffffffffffffffffffffffffffffffffff168273ffffffffffffffffffffffffffffffffffffffff161415611c83576040517f08c379a0000000000000000000000000000000000000000000000000000000008152600401611c7a9061385c565b60405180910390fd5b611c8e8383836124e3565b611c99600082611a06565b6001600360008573ffffffffffffffffffffffffffffffffffffffff1673ffffffffffffffffffffffffffffffffffffffff1681526020019081526020016000206000828254611ce99190613c50565b925050819055506001600360008473ffffffffffffffffffffffffffffffffffffffff1673ffffffffffffffffffffffffffffffffffffffff1681526020019081526020016000206000828254611d409190613b6f565b92505081905550816002600083815260200190815260200160002060006101000a81548173ffffffffffffffffffffffffffffffffffffffff021916908373ffffffffffffffffffffffffffffffffffffffff160217905550808273ffffffffffffffffffffffffffffffffffffffff168473ffffffffffffffffffffffffffffffffffffffff167fddf252ad1be2c89b69c2b068fc378daa952ba7f163c4a11628f55a4df523b3ef60405160405180910390a4505050565b600081600001549050919050565b60606000825190506000811415611e305760405180602001604052806000815250915050611fc0565b60006003600283611e419190613b6f565b611e4b9190613bc5565b6004611e579190613bf6565b90506000602082611e689190613b6f565b67ffffffffffffffff811115611ea7577f4e487b7100000000000000000000000000000000000000000000000000000000600052604160045260246000fd5b6040519080825280601f01601f191660200182016040528015611ed95781602001600182028036833780820191505090505b5090506000604051806060016040528060408152602001614626604091399050600181016020830160005b86811015611f7d5760038101905062ffffff818a015116603f8160121c168401518060081b905060ff603f83600c1c1686015116810190508060081b905060ff603f8360061c1686015116810190508060081b905060ff603f831686015116810190508060e01b90508084526004840193505050611f04565b506003860660018114611f975760028114611fa757611fb2565b613d3d60f01b6002830352611fb2565b603d60f81b60018303525b508484525050819450505050505b919050565b611fdf8282604051806020016040528060008152506124e8565b5050565b611fec82611992565b61202b576040517f08c379a00000000000000000000000000000000000000000000000000000000081526004016120229061393c565b60405180910390fd5b806006600084815260200190815260200160002090805190602001906120529291906129ec565b505050565b6001816000016000828254019250508190555050565b606060008214156120b5576040518060400160405280600181526020017f30000000000000000000000000000000000000000000000000000000000000008152509050612215565b600082905060005b600082146120e75780806120d090613da7565b915050600a826120e09190613bc5565b91506120bd565b60008167ffffffffffffffff811115612129577f4e487b7100000000000000000000000000000000000000000000000000000000600052604160045260246000fd5b6040519080825280601f01601f19166020018201604052801561215b5781602001600182028036833780820191505090505b5090505b6000851461220e576001826121749190613c50565b9150600a856121839190613e04565b603061218f9190613b6f565b60f81b8183815181106121cb577f4e487b7100000000000000000000000000000000000000000000000000000000600052603260045260246000fd5b60200101907effffffffffffffffffffffffffffffffffffffffffffffffffffffffffffff1916908160001a905350600a856122079190613bc5565b945061215f565b8093505050505b919050565b6000612227600f54612543565b600f548260405160200161223c929190613667565b6040516020818303038152906040528051906020012060001c9050919050565b80600f819055505050565b612272848484611b9d565b61227e848484846125dc565b6122bd576040517f08c379a00000000000000000000000000000000000000000000000000000000081526004016122b49061381c565b60405180910390fd5b50505050565b606060405180602001604052806000815250905090565b60606122e582611992565b612324576040517f08c379a000000000000000000000000000000000000000000000000000000000815260040161231b906139dc565b60405180910390fd5b600061232e6122c3565b9050600081511161234e5760405180602001604052806000815250612379565b806123588461206d565b6040516020016123699291906134fc565b6040516020818303038152906040525b915050919050565b60007f000000000000000000000000000000000000000000000000000000000000000073ffffffffffffffffffffffffffffffffffffffff16634000aea07f0000000000000000000000000000000000000000000000000000000000000000848660006040516020016123f592919061378c565b6040516020818303038152906040526040518463ffffffff1660e01b8152600401612422939291906136f6565b602060405180830381600087803b15801561243c57600080fd5b505af1158015612450573d6000803e3d6000fd5b505050506040513d601f19601f820116820180604052508101906124749190612d7d565b506000612497846000306007600089815260200190815260200160002054612773565b9050600160076000868152602001908152602001600020546124b99190613b6f565b60076000868152602001908152602001600020819055506124da84826127af565b91505092915050565b505050565b6124f283836127e2565b6124ff60008484846125dc565b61253e576040517f08c379a00000000000000000000000000000000000000000000000000000000081526004016125359061381c565b60405180910390fd5b505050565b6125d9816040516024016125579190613a5c565b6040516020818303038152906040527ff5b1bba9000000000000000000000000000000000000000000000000000000007bffffffffffffffffffffffffffffffffffffffffffffffffffffffff19166020820180517bffffffffffffffffffffffffffffffffffffffffffffffffffffffff83818316178352505050506129b0565b50565b60006125fd8473ffffffffffffffffffffffffffffffffffffffff166129d9565b15612766578373ffffffffffffffffffffffffffffffffffffffff1663150b7a026126266119fe565b8786866040518563ffffffff1660e01b815260040161264894939291906136aa565b602060405180830381600087803b15801561266257600080fd5b505af192505050801561269357506040513d601f19601f820116820180604052508101906126909190612e0b565b60015b612716573d80600081146126c3576040519150601f19603f3d011682016040523d82523d6000602084013e6126c8565b606091505b5060008151141561270e576040517f08c379a00000000000000000000000000000000000000000000000000000000081526004016127059061381c565b60405180910390fd5b805181602001fd5b63150b7a0260e01b7bffffffffffffffffffffffffffffffffffffffffffffffffffffffff1916817bffffffffffffffffffffffffffffffffffffffffffffffffffffffff19161491505061276b565b600190505b949350505050565b60008484848460405160200161278c94939291906137b5565b6040516020818303038152906040528051906020012060001c9050949350505050565b600082826040516020016127c49291906134d0565b60405160208183030381529060405280519060200120905092915050565b600073ffffffffffffffffffffffffffffffffffffffff168273ffffffffffffffffffffffffffffffffffffffff161415612852576040517f08c379a00000000000000000000000000000000000000000000000000000000081526004016128499061395c565b60405180910390fd5b61285b81611992565b1561289b576040517f08c379a00000000000000000000000000000000000000000000000000000000081526004016128929061383c565b60405180910390fd5b6128a7600083836124e3565b6001600360008473ffffffffffffffffffffffffffffffffffffffff1673ffffffffffffffffffffffffffffffffffffffff16815260200190815260200160002060008282546128f79190613b6f565b92505081905550816002600083815260200190815260200160002060006101000a81548173ffffffffffffffffffffffffffffffffffffffff021916908373ffffffffffffffffffffffffffffffffffffffff160217905550808273ffffffffffffffffffffffffffffffffffffffff16600073ffffffffffffffffffffffffffffffffffffffff167fddf252ad1be2c89b69c2b068fc378daa952ba7f163c4a11628f55a4df523b3ef60405160405180910390a45050565b60008151905060006a636f6e736f6c652e6c6f679050602083016000808483855afa5050505050565b600080823b905060008111915050919050565b8280546129f890613d44565b90600052602060002090601f016020900481019282612a1a5760008555612a61565b82601f10612a3357805160ff1916838001178555612a61565b82800160010185558215612a61579182015b82811115612a60578251825591602001919060010190612a45565b5b509050612a6e9190612aa9565b5090565b604051806060016040528060008152602001600073ffffffffffffffffffffffffffffffffffffffff168152602001606081525090565b5b80821115612ac2576000816000905550600101612aaa565b5090565b6000612ad9612ad484613a9c565b613a77565b905082815260208101848484011115612af157600080fd5b612afc848285613d02565b509392505050565b600081359050612b13816145b2565b92915050565b600081359050612b28816145c9565b92915050565b600081519050612b3d816145c9565b92915050565b600081359050612b52816145e0565b92915050565b600081359050612b67816145f7565b92915050565b600081519050612b7c816145f7565b92915050565b600082601f830112612b9357600080fd5b8135612ba3848260208601612ac6565b91505092915050565b600081359050612bbb8161460e565b92915050565b600081519050612bd08161460e565b92915050565b600060208284031215612be857600080fd5b6000612bf684828501612b04565b91505092915050565b60008060408385031215612c1257600080fd5b6000612c2085828601612b04565b9250506020612c3185828601612b04565b9150509250929050565b600080600060608486031215612c5057600080fd5b6000612c5e86828701612b04565b9350506020612c6f86828701612b04565b9250506040612c8086828701612bac565b9150509250925092565b60008060008060808587031215612ca057600080fd5b6000612cae87828801612b04565b9450506020612cbf87828801612b04565b9350506040612cd087828801612bac565b925050606085013567ffffffffffffffff811115612ced57600080fd5b612cf987828801612b82565b91505092959194509250565b60008060408385031215612d1857600080fd5b6000612d2685828601612b04565b9250506020612d3785828601612b19565b9150509250929050565b60008060408385031215612d5457600080fd5b6000612d6285828601612b04565b9250506020612d7385828601612bac565b9150509250929050565b600060208284031215612d8f57600080fd5b6000612d9d84828501612b2e565b91505092915050565b60008060408385031215612db957600080fd5b6000612dc785828601612b43565b9250506020612dd885828601612bac565b9150509250929050565b600060208284031215612df457600080fd5b6000612e0284828501612b58565b91505092915050565b600060208284031215612e1d57600080fd5b6000612e2b84828501612b6d565b91505092915050565b600060208284031215612e4657600080fd5b6000612e5484828501612bac565b91505092915050565b600060208284031215612e6f57600080fd5b6000612e7d84828501612bc1565b91505092915050565b6000612e92838361344b565b905092915050565b612ea381613c84565b82525050565b612eb281613c84565b82525050565b6000612ec382613af2565b612ecd8185613b20565b935083602082028501612edf85613acd565b8060005b85811015612f1b5784840389528151612efc8582612e86565b9450612f0783613b13565b925060208a01995050600181019050612ee3565b50829750879550505050505092915050565b612f3681613c96565b82525050565b612f4581613ca2565b82525050565b612f5c612f5782613ca2565b613df0565b82525050565b6000612f6d82613afd565b612f778185613b31565b9350612f87818560208601613d11565b612f9081613ef1565b840191505092915050565b6000612fa682613b08565b612fb08185613b42565b9350612fc0818560208601613d11565b612fc981613ef1565b840191505092915050565b6000612fdf82613b08565b612fe98185613b53565b9350612ff9818560208601613d11565b61300281613ef1565b840191505092915050565b600061301882613b08565b6130228185613b64565b9350613032818560208601613d11565b80840191505092915050565b6000815461304b81613d44565b6130558186613b64565b945060018216600081146130705760018114613081576130b4565b60ff198316865281860193506130b4565b61308a85613add565b60005b838110156130ac5781548189015260018201915060208101905061308d565b838801955050505b50505092915050565b60006130ca603283613b53565b91506130d582613f02565b604082019050919050565b60006130ed601c83613b53565b91506130f882613f51565b602082019050919050565b6000613110600683613b64565b915061311b82613f7a565b600682019050919050565b6000613133602483613b53565b915061313e82613fa3565b604082019050919050565b6000613156601983613b53565b915061316182613ff2565b602082019050919050565b6000613179602b83613b53565b91506131848261401b565b604082019050919050565b600061319c602c83613b53565b91506131a78261406a565b604082019050919050565b60006131bf600d83613b64565b91506131ca826140b9565b600d82019050919050565b60006131e2603883613b53565b91506131ed826140e2565b604082019050919050565b6000613205602a83613b53565b915061321082614131565b604082019050919050565b6000613228602983613b53565b915061323382614180565b604082019050919050565b600061324b602e83613b53565b9150613256826141cf565b604082019050919050565b600061326e600483613b64565b91506132798261421e565b600482019050919050565b6000613291600283613b64565b915061329c82614247565b600282019050919050565b60006132b4602083613b53565b91506132bf82614270565b602082019050919050565b60006132d7603183613b53565b91506132e282614299565b604082019050919050565b60006132fa602c83613b53565b9150613305826142e8565b604082019050919050565b600061331d602983613b53565b915061332882614337565b604082019050919050565b6000613340602f83613b53565b915061334b82614386565b604082019050919050565b6000613363600a83613b64565b915061336e826143d5565b600a82019050919050565b6000613386601f83613b53565b9150613391826143fe565b602082019050919050565b60006133a9600783613b64565b91506133b482614427565b600782019050919050565b60006133cc602183613b53565b91506133d782614450565b604082019050919050565b60006133ef601d83613b64565b91506133fa8261449f565b601d82019050919050565b6000613412603183613b53565b915061341d826144c8565b604082019050919050565b6000613435606883613b64565b915061344082614517565b606882019050919050565b6000606083016000830151613463600086018261349b565b5060208301516134766020860182612e9a565b506040830151848203604086015261348e8282612f9b565b9150508091505092915050565b6134a481613cf8565b82525050565b6134b381613cf8565b82525050565b6134ca6134c582613cf8565b613dfa565b82525050565b60006134dc8285612f4b565b6020820191506134ec82846134b9565b6020820191508190509392505050565b6000613508828561300d565b9150613514828461300d565b91508190509392505050565b600061352c828661300d565b9150613538828561300d565b9150613544828461300d565b9150819050949350505050565b600061355d828761303e565b9150613569828661300d565b9150613575828561300d565b9150613581828461300d565b915061358c826131b2565b915081905095945050505050565b60006135a582613103565b91506135b1828461300d565b915081905092915050565b60006135c782613261565b91506135d3828461300d565b915081905092915050565b60006135e982613356565b91506135f5828561300d565b915061360082613428565b915061360c828461300d565b915061361782613284565b91508190509392505050565b600061362e8261339c565b915061363a828461300d565b915081905092915050565b6000613650826133e2565b915061365c828461300d565b915081905092915050565b600061367382856134b9565b602082019150613683828461300d565b91508190509392505050565b60006020820190506136a46000830184612ea9565b92915050565b60006080820190506136bf6000830187612ea9565b6136cc6020830186612ea9565b6136d960408301856134aa565b81810360608301526136eb8184612f62565b905095945050505050565b600060608201905061370b6000830186612ea9565b61371860208301856134aa565b818103604083015261372a8184612f62565b9050949350505050565b6000602082019050818103600083015261374e8184612eb8565b905092915050565b600060208201905061376b6000830184612f2d565b92915050565b60006020820190506137866000830184612f3c565b92915050565b60006040820190506137a16000830185612f3c565b6137ae60208301846134aa565b9392505050565b60006080820190506137ca6000830187612f3c565b6137d760208301866134aa565b6137e46040830185612ea9565b6137f160608301846134aa565b95945050505050565b600060208201905081810360008301526138148184612fd4565b905092915050565b60006020820190508181036000830152613835816130bd565b9050919050565b60006020820190508181036000830152613855816130e0565b9050919050565b6000602082019050818103600083015261387581613126565b9050919050565b6000602082019050818103600083015261389581613149565b9050919050565b600060208201905081810360008301526138b58161316c565b9050919050565b600060208201905081810360008301526138d58161318f565b9050919050565b600060208201905081810360008301526138f5816131d5565b9050919050565b60006020820190508181036000830152613915816131f8565b9050919050565b600060208201905081810360008301526139358161321b565b9050919050565b600060208201905081810360008301526139558161323e565b9050919050565b60006020820190508181036000830152613975816132a7565b9050919050565b60006020820190508181036000830152613995816132ca565b9050919050565b600060208201905081810360008301526139b5816132ed565b9050919050565b600060208201905081810360008301526139d581613310565b9050919050565b600060208201905081810360008301526139f581613333565b9050919050565b60006020820190508181036000830152613a1581613379565b9050919050565b60006020820190508181036000830152613a35816133bf565b9050919050565b60006020820190508181036000830152613a5581613405565b9050919050565b6000602082019050613a7160008301846134aa565b92915050565b6000613a81613a92565b9050613a8d8282613d76565b919050565b6000604051905090565b600067ffffffffffffffff821115613ab757613ab6613ec2565b5b613ac082613ef1565b9050602081019050919050565b6000819050602082019050919050565b60008190508160005260206000209050919050565b600081519050919050565b600081519050919050565b600081519050919050565b6000602082019050919050565b600082825260208201905092915050565b600082825260208201905092915050565b600082825260208201905092915050565b600082825260208201905092915050565b600081905092915050565b6000613b7a82613cf8565b9150613b8583613cf8565b9250827fffffffffffffffffffffffffffffffffffffffffffffffffffffffffffffffff03821115613bba57613bb9613e35565b5b828201905092915050565b6000613bd082613cf8565b9150613bdb83613cf8565b925082613beb57613bea613e64565b5b828204905092915050565b6000613c0182613cf8565b9150613c0c83613cf8565b9250817fffffffffffffffffffffffffffffffffffffffffffffffffffffffffffffffff0483118215151615613c4557613c44613e35565b5b828202905092915050565b6000613c5b82613cf8565b9150613c6683613cf8565b925082821015613c7957613c78613e35565b5b828203905092915050565b6000613c8f82613cd8565b9050919050565b60008115159050919050565b6000819050919050565b60007fffffffff0000000000000000000000000000000000000000000000000000000082169050919050565b600073ffffffffffffffffffffffffffffffffffffffff82169050919050565b6000819050919050565b82818337600083830152505050565b60005b83811015613d2f578082015181840152602081019050613d14565b83811115613d3e576000848401525b50505050565b60006002820490506001821680613d5c57607f821691505b60208210811415613d7057613d6f613e93565b5b50919050565b613d7f82613ef1565b810181811067ffffffffffffffff82111715613d9e57613d9d613ec2565b5b80604052505050565b6000613db282613cf8565b91507fffffffffffffffffffffffffffffffffffffffffffffffffffffffffffffffff821415613de557613de4613e35565b5b600182019050919050565b6000819050919050565b6000819050919050565b6000613e0f82613cf8565b9150613e1a83613cf8565b925082613e2a57613e29613e64565b5b828206905092915050565b7f4e487b7100000000000000000000000000000000000000000000000000000000600052601160045260246000fd5b7f4e487b7100000000000000000000000000000000000000000000000000000000600052601260045260246000fd5b7f4e487b7100000000000000000000000000000000000000000000000000000000600052602260045260246000fd5b7f4e487b7100000000000000000000000000000000000000000000000000000000600052604160045260246000fd5b6000601f19601f8301169050919050565b7f4552433732313a207472616e7366657220746f206e6f6e20455243373231526560008201527f63656976657220696d706c656d656e7465720000000000000000000000000000602082015250565b7f4552433732313a20746f6b656e20616c7265616479206d696e74656400000000600082015250565b7f776561706f6e0000000000000000000000000000000000000000000000000000600082015250565b7f4552433732313a207472616e7366657220746f20746865207a65726f2061646460008201527f7265737300000000000000000000000000000000000000000000000000000000602082015250565b7f4552433732313a20617070726f766520746f2063616c6c657200000000000000600082015250565b7f4e6f7420656e6f756768204c494e4b202d2066696c6c20636f6e74726163742060008201527f7769746820666175636574000000000000000000000000000000000000000000602082015250565b7f4552433732313a206f70657261746f7220717565727920666f72206e6f6e657860008201527f697374656e7420746f6b656e0000000000000000000000000000000000000000602082015250565b7f3c2f746578743e3c2f7376673e00000000000000000000000000000000000000600082015250565b7f4552433732313a20617070726f76652063616c6c6572206973206e6f74206f7760008201527f6e6572206e6f7220617070726f76656420666f7220616c6c0000000000000000602082015250565b7f4552433732313a2062616c616e636520717565727920666f7220746865207a6560008201527f726f206164647265737300000000000000000000000000000000000000000000602082015250565b7f4552433732313a206f776e657220717565727920666f72206e6f6e657869737460008201527f656e7420746f6b656e0000000000000000000000000000000000000000000000602082015250565b7f45524337323155524953746f726167653a2055524920736574206f66206e6f6e60008201527f6578697374656e7420746f6b656e000000000000000000000000000000000000602082015250565b7f72616e6b00000000000000000000000000000000000000000000000000000000600082015250565b7f227d000000000000000000000000000000000000000000000000000000000000600082015250565b7f4552433732313a206d696e7420746f20746865207a65726f2061646472657373600082015250565b7f45524337323155524953746f726167653a2055524920717565727920666f722060008201527f6e6f6e6578697374656e7420746f6b656e000000000000000000000000000000602082015250565b7f4552433732313a20617070726f76656420717565727920666f72206e6f6e657860008201527f697374656e7420746f6b656e0000000000000000000000000000000000000000602082015250565b7f4552433732313a207472616e73666572206f6620746f6b656e2074686174206960008201527f73206e6f74206f776e0000000000000000000000000000000000000000000000602082015250565b7f4552433732314d657461646174613a2055524920717565727920666f72206e6f60008201527f6e6578697374656e7420746f6b656e0000000000000000000000000000000000602082015250565b7f7b226e616d65223a202200000000000000000000000000000000000000000000600082015250565b7f4f6e6c7920565246436f6f7264696e61746f722063616e2066756c66696c6c00600082015250565b7f656c656d656e7400000000000000000000000000000000000000000000000000600082015250565b7f4552433732313a20617070726f76616c20746f2063757272656e74206f776e6560008201527f7200000000000000000000000000000000000000000000000000000000000000602082015250565b7f646174613a6170706c69636174696f6e2f6a736f6e3b6261736536342c000000600082015250565b7f4552433732313a207472616e736665722063616c6c6572206973206e6f74206f60008201527f776e6572206e6f7220617070726f766564000000000000000000000000000000602082015250565b7f222c20226465736372697074696f6e223a20224120686967686c79206163636c60008201527f61696d656420636f6c6c656374696f6e20457465726e616c2057617272696f7260208201527f73222c2022696d616765223a2022646174613a696d6167652f7376672b786d6c60408201527f3b6261736536342c000000000000000000000000000000000000000000000000606082015250565b6145bb81613c84565b81146145c657600080fd5b50565b6145d281613c96565b81146145dd57600080fd5b50565b6145e981613ca2565b81146145f457600080fd5b50565b61460081613cac565b811461460b57600080fd5b50565b61461781613cf8565b811461462257600080fd5b5056fe4142434445464748494a4b4c4d4e4f505152535455565758595a6162636465666768696a6b6c6d6e6f707172737475767778797a303132333435363738392b2fa264697066735822122064c8b161542c1f9578af0d15058ff78de6ac04eaf057fb9020aee58105b504b864736f6c634300080300333c73766720786d6c6e733d27687474703a2f2f7777772e77332e6f72672f323030302f73766727207072657365727665417370656374526174696f3d27784d696e594d696e206d656574272076696577426f783d273020302033353020333530273e3c7374796c653e2e62617365207b2066696c6c3a2077686974653b20666f6e742d66616d696c793a2073657269663b20666f6e742d73697a653a20323470783b207d3c2f7374796c653e3c726563742077696474683d273130302527206865696768743d2731303025272066696c6c3d27626c61636b27202f3e3c7465787420783d273530252720793d273530252720636c6173733d27626173652720646f6d696e616e742d626173656c696e653d276d6964646c652720746578742d616e63686f723d276d6964646c65273e",
  "devdoc": {
    "author": "Abhinav Pathak",
    "details": "Inherits from ERC721URIStorage contract for ERC-721 token functionality.Uses Counters library for tracking tokenId of the minted tokens.Uses Base64 library for for encoding the tokenURI.",
    "kind": "dev",
    "methods": {
      "approve(address,uint256)": {
        "details": "See {IERC721-approve}."
      },
      "balanceOf(address)": {
        "details": "See {IERC721-balanceOf}."
      },
      "createEternalNFT()": {
        "details": "uses generates a final tokenURI by using the base64 encoded json data",
        "returns": {
          "_0": "uint256 The tokenId of the minted NFT"
        }
      },
      "getApproved(uint256)": {
        "details": "See {IERC721-getApproved}."
      },
      "getMyEternalNFT()": {
        "returns": {
          "_0": "nftItem[] The array containing the tokenId, owner and tokenURI of the NFT owned by the caller    "
        }
      },
      "isApprovedForAll(address,address)": {
        "details": "See {IERC721-isApprovedForAll}."
      },
      "name()": {
        "details": "See {IERC721Metadata-name}."
      },
      "ownerOf(uint256)": {
        "details": "See {IERC721-ownerOf}."
      },
      "pickFirstWord(uint256)": {
        "params": {
          "tokenId": "TokenId of the current NFT"
        },
        "returns": {
          "_0": "string The word picked from the array"
        }
      },
      "pickSecondWord(uint256)": {
        "params": {
          "tokenId": "TokenId of the current NFT"
        },
        "returns": {
          "_0": "string The word picked from the array"
        }
      },
      "pickThirdWord(uint256)": {
        "params": {
          "tokenId": "TokenId of the current NFT"
        },
        "returns": {
          "_0": "string The word picked from the array"
        }
      },
      "safeTransferFrom(address,address,uint256)": {
        "details": "See {IERC721-safeTransferFrom}."
      },
      "safeTransferFrom(address,address,uint256,bytes)": {
        "details": "See {IERC721-safeTransferFrom}."
      },
      "setApprovalForAll(address,bool)": {
        "details": "See {IERC721-setApprovalForAll}."
      },
      "supportsInterface(bytes4)": {
        "details": "See {IERC165-supportsInterface}."
      },
      "symbol()": {
        "details": "See {IERC721Metadata-symbol}."
      },
      "tokenURI(uint256)": {
        "details": "See {IERC721Metadata-tokenURI}."
      },
      "transferFrom(address,address,uint256)": {
        "details": "See {IERC721-transferFrom}."
      }
    },
    "title": "EternalNFT",
    "version": 1
  },
  "userdoc": {
    "kind": "user",
    "methods": {
      "constructor": {
        "notice": "Constructor inherits VRFConsumerBase Network: Rinkeby VRF Coordinator address:           0xb3dCcb4Cf7a26f6cf6B120Cf5A73875B7BBc655B LINK token address:                0x01BE23585060835E02B77ef475b0Cc51aA1e0709 Key Hash: 0x2ed0feb3e7fd2022120aa84fab1945545a9f2ffc9076fd6156fa96eaff4c1311"
      },
      "createEternalNFT()": {
        "notice": "Mints a new Eternal NFT token"
      },
      "getMyEternalNFT()": {
        "notice": "Gets the tokenURI of the NFT owned by the caller"
      },
      "pickFirstWord(uint256)": {
        "notice": "Randomly picks first word of the NFT from the element array"
      },
      "pickSecondWord(uint256)": {
        "notice": "Randomly picks second word of the NFT from the wepon array"
      },
      "pickThirdWord(uint256)": {
        "notice": "Randomly picks third word of the NFT from the wepon array"
      }
    },
    "notice": "This contract is used to create an NFT token that can be minted and owned by anyone.",
    "version": 1
  },
  "storageLayout": {
    "storage": [
      {
        "astId": 331,
        "contract": "contracts/EternalNFT.sol:EternalNFT",
        "label": "_name",
        "offset": 0,
        "slot": "0",
        "type": "t_string_storage"
      },
      {
        "astId": 333,
        "contract": "contracts/EternalNFT.sol:EternalNFT",
        "label": "_symbol",
        "offset": 0,
        "slot": "1",
        "type": "t_string_storage"
      },
      {
        "astId": 337,
        "contract": "contracts/EternalNFT.sol:EternalNFT",
        "label": "_owners",
        "offset": 0,
        "slot": "2",
        "type": "t_mapping(t_uint256,t_address)"
      },
      {
        "astId": 341,
        "contract": "contracts/EternalNFT.sol:EternalNFT",
        "label": "_balances",
        "offset": 0,
        "slot": "3",
        "type": "t_mapping(t_address,t_uint256)"
      },
      {
        "astId": 345,
        "contract": "contracts/EternalNFT.sol:EternalNFT",
        "label": "_tokenApprovals",
        "offset": 0,
        "slot": "4",
        "type": "t_mapping(t_uint256,t_address)"
      },
      {
        "astId": 351,
        "contract": "contracts/EternalNFT.sol:EternalNFT",
        "label": "_operatorApprovals",
        "offset": 0,
        "slot": "5",
        "type": "t_mapping(t_address,t_mapping(t_address,t_bool))"
      },
      {
        "astId": 1268,
        "contract": "contracts/EternalNFT.sol:EternalNFT",
        "label": "_tokenURIs",
        "offset": 0,
        "slot": "6",
        "type": "t_mapping(t_uint256,t_string_storage)"
      },
      {
        "astId": 79,
        "contract": "contracts/EternalNFT.sol:EternalNFT",
        "label": "nonces",
        "offset": 0,
        "slot": "7",
        "type": "t_mapping(t_bytes32,t_uint256)"
      },
      {
        "astId": 2542,
        "contract": "contracts/EternalNFT.sol:EternalNFT",
        "label": "_tokenId",
        "offset": 0,
        "slot": "8",
        "type": "t_struct(Counter)1735_storage"
      },
      {
        "astId": 2544,
        "contract": "contracts/EternalNFT.sol:EternalNFT",
        "label": "contractAddress",
        "offset": 0,
        "slot": "9",
        "type": "t_address"
      },
      {
        "astId": 2546,
        "contract": "contracts/EternalNFT.sol:EternalNFT",
        "label": "collectionName",
        "offset": 0,
        "slot": "10",
        "type": "t_string_storage"
      },
      {
        "astId": 2548,
        "contract": "contracts/EternalNFT.sol:EternalNFT",
        "label": "collectionSymbol",
        "offset": 0,
        "slot": "11",
        "type": "t_string_storage"
      },
      {
        "astId": 2550,
        "contract": "contracts/EternalNFT.sol:EternalNFT",
        "label": "numberOfTokenOwned",
        "offset": 0,
        "slot": "12",
        "type": "t_uint256"
      },
      {
        "astId": 2552,
        "contract": "contracts/EternalNFT.sol:EternalNFT",
        "label": "keyHash",
        "offset": 0,
        "slot": "13",
        "type": "t_bytes32"
      },
      {
        "astId": 2554,
        "contract": "contracts/EternalNFT.sol:EternalNFT",
        "label": "fee",
        "offset": 0,
        "slot": "14",
        "type": "t_uint256"
      },
      {
        "astId": 2556,
        "contract": "contracts/EternalNFT.sol:EternalNFT",
        "label": "randomResult",
        "offset": 0,
        "slot": "15",
        "type": "t_uint256"
      },
      {
        "astId": 2568,
        "contract": "contracts/EternalNFT.sol:EternalNFT",
        "label": "idToEternalNFT",
        "offset": 0,
        "slot": "16",
        "type": "t_mapping(t_uint256,t_struct(nftItem)2563_storage)"
      },
      {
        "astId": 2571,
        "contract": "contracts/EternalNFT.sol:EternalNFT",
        "label": "baseSvg",
        "offset": 0,
        "slot": "17",
        "type": "t_string_storage"
      },
      {
        "astId": 2586,
        "contract": "contracts/EternalNFT.sol:EternalNFT",
        "label": "element",
        "offset": 0,
        "slot": "18",
        "type": "t_array(t_string_storage)dyn_storage"
      },
      {
        "astId": 2605,
        "contract": "contracts/EternalNFT.sol:EternalNFT",
        "label": "weapon",
        "offset": 0,
        "slot": "19",
        "type": "t_array(t_string_storage)dyn_storage"
      },
      {
        "astId": 2616,
        "contract": "contracts/EternalNFT.sol:EternalNFT",
        "label": "rank",
        "offset": 0,
        "slot": "20",
        "type": "t_array(t_string_storage)dyn_storage"
      }
    ],
    "types": {
      "t_address": {
        "encoding": "inplace",
        "label": "address",
        "numberOfBytes": "20"
      },
      "t_array(t_string_storage)dyn_storage": {
        "base": "t_string_storage",
        "encoding": "dynamic_array",
        "label": "string[]",
        "numberOfBytes": "32"
      },
      "t_bool": {
        "encoding": "inplace",
        "label": "bool",
        "numberOfBytes": "1"
      },
      "t_bytes32": {
        "encoding": "inplace",
        "label": "bytes32",
        "numberOfBytes": "32"
      },
      "t_mapping(t_address,t_bool)": {
        "encoding": "mapping",
        "key": "t_address",
        "label": "mapping(address => bool)",
        "numberOfBytes": "32",
        "value": "t_bool"
      },
      "t_mapping(t_address,t_mapping(t_address,t_bool))": {
        "encoding": "mapping",
        "key": "t_address",
        "label": "mapping(address => mapping(address => bool))",
        "numberOfBytes": "32",
        "value": "t_mapping(t_address,t_bool)"
      },
      "t_mapping(t_address,t_uint256)": {
        "encoding": "mapping",
        "key": "t_address",
        "label": "mapping(address => uint256)",
        "numberOfBytes": "32",
        "value": "t_uint256"
      },
      "t_mapping(t_bytes32,t_uint256)": {
        "encoding": "mapping",
        "key": "t_bytes32",
        "label": "mapping(bytes32 => uint256)",
        "numberOfBytes": "32",
        "value": "t_uint256"
      },
      "t_mapping(t_uint256,t_address)": {
        "encoding": "mapping",
        "key": "t_uint256",
        "label": "mapping(uint256 => address)",
        "numberOfBytes": "32",
        "value": "t_address"
      },
      "t_mapping(t_uint256,t_string_storage)": {
        "encoding": "mapping",
        "key": "t_uint256",
        "label": "mapping(uint256 => string)",
        "numberOfBytes": "32",
        "value": "t_string_storage"
      },
      "t_mapping(t_uint256,t_struct(nftItem)2563_storage)": {
        "encoding": "mapping",
        "key": "t_uint256",
        "label": "mapping(uint256 => struct EternalNFT.nftItem)",
        "numberOfBytes": "32",
        "value": "t_struct(nftItem)2563_storage"
      },
      "t_string_storage": {
        "encoding": "bytes",
        "label": "string",
        "numberOfBytes": "32"
      },
      "t_struct(Counter)1735_storage": {
        "encoding": "inplace",
        "label": "struct Counters.Counter",
        "members": [
          {
            "astId": 1734,
            "contract": "contracts/EternalNFT.sol:EternalNFT",
            "label": "_value",
            "offset": 0,
            "slot": "0",
            "type": "t_uint256"
          }
        ],
        "numberOfBytes": "32"
      },
      "t_struct(nftItem)2563_storage": {
        "encoding": "inplace",
        "label": "struct EternalNFT.nftItem",
        "members": [
          {
            "astId": 2558,
            "contract": "contracts/EternalNFT.sol:EternalNFT",
            "label": "tokenId",
            "offset": 0,
            "slot": "0",
            "type": "t_uint256"
          },
          {
            "astId": 2560,
            "contract": "contracts/EternalNFT.sol:EternalNFT",
            "label": "owner",
            "offset": 0,
            "slot": "1",
            "type": "t_address"
          },
          {
            "astId": 2562,
            "contract": "contracts/EternalNFT.sol:EternalNFT",
            "label": "tokenUri",
            "offset": 0,
            "slot": "2",
            "type": "t_string_storage"
          }
        ],
        "numberOfBytes": "96"
      },
      "t_uint256": {
        "encoding": "inplace",
        "label": "uint256",
        "numberOfBytes": "32"
      }
    }
  }
}