{
	"_format": "hh-sol-artifact-1",
	"contractName": "EternalNFT",
	"sourceName": "contracts/EternalNFT.sol",
	"abi": [
		{
			"inputs": [
				{
					"internalType": "address",
					"name": "marketplaceAddress",
					"type": "address"
				}
			],
			"stateMutability": "nonpayable",
			"type": "constructor"
		},
		{
			"anonymous": false,
			"inputs": [
				{
					"indexed": true,
					"internalType": "address",
					"name": "owner",
					"type": "address"
				},
				{
					"indexed": true,
					"internalType": "address",
					"name": "approved",
					"type": "address"
				},
				{
					"indexed": true,
					"internalType": "uint256",
					"name": "tokenId",
					"type": "uint256"
				}
			],
			"name": "Approval",
			"type": "event"
		},
		{
			"anonymous": false,
			"inputs": [
				{
					"indexed": true,
					"internalType": "address",
					"name": "owner",
					"type": "address"
				},
				{
					"indexed": true,
					"internalType": "address",
					"name": "operator",
					"type": "address"
				},
				{
					"indexed": false,
					"internalType": "bool",
					"name": "approved",
					"type": "bool"
				}
			],
			"name": "ApprovalForAll",
			"type": "event"
		},
		{
			"anonymous": false,
			"inputs": [
				{
					"indexed": true,
					"internalType": "address",
					"name": "previousOwner",
					"type": "address"
				},
				{
					"indexed": true,
					"internalType": "address",
					"name": "newOwner",
					"type": "address"
				}
			],
			"name": "OwnershipTransferred",
			"type": "event"
		},
		{
			"anonymous": false,
			"inputs": [
				{
					"indexed": true,
					"internalType": "address",
					"name": "from",
					"type": "address"
				},
				{
					"indexed": true,
					"internalType": "address",
					"name": "to",
					"type": "address"
				},
				{
					"indexed": true,
					"internalType": "uint256",
					"name": "tokenId",
					"type": "uint256"
				}
			],
			"name": "Transfer",
			"type": "event"
		},
		{
			"inputs": [
				{
					"internalType": "address",
					"name": "to",
					"type": "address"
				},
				{
					"internalType": "uint256",
					"name": "tokenId",
					"type": "uint256"
				}
			],
			"name": "approve",
			"outputs": [],
			"stateMutability": "nonpayable",
			"type": "function"
		},
		{
			"inputs": [
				{
					"internalType": "address",
					"name": "owner",
					"type": "address"
				}
			],
			"name": "balanceOf",
			"outputs": [
				{
					"internalType": "uint256",
					"name": "",
					"type": "uint256"
				}
			],
			"stateMutability": "view",
			"type": "function"
		},
		{
			"inputs": [],
			"name": "collectionName",
			"outputs": [
				{
					"internalType": "string",
					"name": "",
					"type": "string"
				}
			],
			"stateMutability": "view",
			"type": "function"
		},
		{
			"inputs": [],
			"name": "collectionSymbol",
			"outputs": [
				{
					"internalType": "string",
					"name": "",
					"type": "string"
				}
			],
			"stateMutability": "view",
			"type": "function"
		},
		{
			"inputs": [],
			"name": "createEternalNFT",
			"outputs": [
				{
					"internalType": "uint256",
					"name": "",
					"type": "uint256"
				}
			],
			"stateMutability": "nonpayable",
			"type": "function"
		},
		{
			"inputs": [
				{
					"internalType": "uint256",
					"name": "tokenId",
					"type": "uint256"
				}
			],
			"name": "getApproved",
			"outputs": [
				{
					"internalType": "address",
					"name": "",
					"type": "address"
				}
			],
			"stateMutability": "view",
			"type": "function"
		},
		{
			"inputs": [],
			"name": "getMyEternalNFT",
			"outputs": [
				{
					"components": [
						{
							"internalType": "uint256",
							"name": "tokenId",
							"type": "uint256"
						},
						{
							"internalType": "address",
							"name": "owner",
							"type": "address"
						},
						{
							"internalType": "string",
							"name": "tokenUri",
							"type": "string"
						}
					],
					"internalType": "struct EternalNFT.nftItem[]",
					"name": "",
					"type": "tuple[]"
				}
			],
			"stateMutability": "view",
			"type": "function"
		},
		{
			"inputs": [
				{
					"internalType": "address",
					"name": "owner",
					"type": "address"
				},
				{
					"internalType": "address",
					"name": "operator",
					"type": "address"
				}
			],
			"name": "isApprovedForAll",
			"outputs": [
				{
					"internalType": "bool",
					"name": "",
					"type": "bool"
				}
			],
			"stateMutability": "view",
			"type": "function"
		},
		{
			"inputs": [],
			"name": "name",
			"outputs": [
				{
					"internalType": "string",
					"name": "",
					"type": "string"
				}
			],
			"stateMutability": "view",
			"type": "function"
		},
		{
			"inputs": [],
			"name": "owner",
			"outputs": [
				{
					"internalType": "address",
					"name": "",
					"type": "address"
				}
			],
			"stateMutability": "view",
			"type": "function"
		},
		{
			"inputs": [
				{
					"internalType": "uint256",
					"name": "tokenId",
					"type": "uint256"
				}
			],
			"name": "ownerOf",
			"outputs": [
				{
					"internalType": "address",
					"name": "",
					"type": "address"
				}
			],
			"stateMutability": "view",
			"type": "function"
		},
		{
			"inputs": [
				{
					"internalType": "uint256",
					"name": "tokenId",
					"type": "uint256"
				}
			],
			"name": "pickFirstWord",
			"outputs": [
				{
					"internalType": "string",
					"name": "",
					"type": "string"
				}
			],
			"stateMutability": "view",
			"type": "function"
		},
		{
			"inputs": [
				{
					"internalType": "uint256",
					"name": "tokenId",
					"type": "uint256"
				}
			],
			"name": "pickSecondWord",
			"outputs": [
				{
					"internalType": "string",
					"name": "",
					"type": "string"
				}
			],
			"stateMutability": "view",
			"type": "function"
		},
		{
			"inputs": [
				{
					"internalType": "uint256",
					"name": "tokenId",
					"type": "uint256"
				}
			],
			"name": "pickThirdWord",
			"outputs": [
				{
					"internalType": "string",
					"name": "",
					"type": "string"
				}
			],
			"stateMutability": "view",
			"type": "function"
		},
		{
			"inputs": [],
			"name": "renounceOwnership",
			"outputs": [],
			"stateMutability": "nonpayable",
			"type": "function"
		},
		{
			"inputs": [
				{
					"internalType": "address",
					"name": "from",
					"type": "address"
				},
				{
					"internalType": "address",
					"name": "to",
					"type": "address"
				},
				{
					"internalType": "uint256",
					"name": "tokenId",
					"type": "uint256"
				}
			],
			"name": "safeTransferFrom",
			"outputs": [],
			"stateMutability": "nonpayable",
			"type": "function"
		},
		{
			"inputs": [
				{
					"internalType": "address",
					"name": "from",
					"type": "address"
				},
				{
					"internalType": "address",
					"name": "to",
					"type": "address"
				},
				{
					"internalType": "uint256",
					"name": "tokenId",
					"type": "uint256"
				},
				{
					"internalType": "bytes",
					"name": "_data",
					"type": "bytes"
				}
			],
			"name": "safeTransferFrom",
			"outputs": [],
			"stateMutability": "nonpayable",
			"type": "function"
		},
		{
			"inputs": [
				{
					"internalType": "address",
					"name": "operator",
					"type": "address"
				},
				{
					"internalType": "bool",
					"name": "approved",
					"type": "bool"
				}
			],
			"name": "setApprovalForAll",
			"outputs": [],
			"stateMutability": "nonpayable",
			"type": "function"
		},
		{
			"inputs": [
				{
					"internalType": "bytes4",
					"name": "interfaceId",
					"type": "bytes4"
				}
			],
			"name": "supportsInterface",
			"outputs": [
				{
					"internalType": "bool",
					"name": "",
					"type": "bool"
				}
			],
			"stateMutability": "view",
			"type": "function"
		},
		{
			"inputs": [],
			"name": "symbol",
			"outputs": [
				{
					"internalType": "string",
					"name": "",
					"type": "string"
				}
			],
			"stateMutability": "view",
			"type": "function"
		},
		{
			"inputs": [
				{
					"internalType": "uint256",
					"name": "tokenId",
					"type": "uint256"
				}
			],
			"name": "tokenURI",
			"outputs": [
				{
					"internalType": "string",
					"name": "",
					"type": "string"
				}
			],
			"stateMutability": "view",
			"type": "function"
		},
		{
			"inputs": [
				{
					"internalType": "address",
					"name": "from",
					"type": "address"
				},
				{
					"internalType": "address",
					"name": "to",
					"type": "address"
				},
				{
					"internalType": "uint256",
					"name": "tokenId",
					"type": "uint256"
				}
			],
			"name": "transferFrom",
			"outputs": [],
			"stateMutability": "nonpayable",
			"type": "function"
		},
		{
			"inputs": [
				{
					"internalType": "address",
					"name": "newOwner",
					"type": "address"
				}
			],
			"name": "transferOwnership",
			"outputs": [],
			"stateMutability": "nonpayable",
			"type": "function"
		}
	],
	"bytecode": "0x608060405260405180610160016040528061012f81526020016200517361012f9139600e90805190602001906200003892919062000bb7565b506040518061016001604052806040518060400160405280600481526020017f466972650000000000000000000000000000000000000000000000000000000081525081526020016040518060400160405280600481526020017f57696e640000000000000000000000000000000000000000000000000000000081525081526020016040518060400160405280600481526020017f576176650000000000000000000000000000000000000000000000000000000081525081526020016040518060400160405280600581526020017f456172746800000000000000000000000000000000000000000000000000000081525081526020016040518060400160405280600581526020017f4c6967687400000000000000000000000000000000000000000000000000000081525081526020016040518060400160405280600681526020017f536861646f77000000000000000000000000000000000000000000000000000081525081526020016040518060400160405280600781526020017f5468756e6465720000000000000000000000000000000000000000000000000081525081526020016040518060400160405280600581526020017f537061636500000000000000000000000000000000000000000000000000000081525081526020016040518060400160405280600481526020017f54696d650000000000000000000000000000000000000000000000000000000081525081526020016040518060400160405280600781526020017f477261766974790000000000000000000000000000000000000000000000000081525081526020016040518060400160405280600381526020017f4963650000000000000000000000000000000000000000000000000000000000815250815250600f90600b620002de92919062000c48565b50604051806101e001604052806040518060400160405280600581526020017f53776f726400000000000000000000000000000000000000000000000000000081525081526020016040518060400160405280600581526020017f537065617200000000000000000000000000000000000000000000000000000081525081526020016040518060400160405280600681526020017f536869656c64000000000000000000000000000000000000000000000000000081525081526020016040518060400160405280600681526020017f48616d6d6572000000000000000000000000000000000000000000000000000081525081526020016040518060400160405280600581526020017f536162657200000000000000000000000000000000000000000000000000000081525081526020016040518060400160405280600381526020017f417865000000000000000000000000000000000000000000000000000000000081525081526020016040518060400160405280600381526020017f426f77000000000000000000000000000000000000000000000000000000000081525081526020016040518060400160405280600581526020017f537461666600000000000000000000000000000000000000000000000000000081525081526020016040518060400160405280600481526020017f57616e640000000000000000000000000000000000000000000000000000000081525081526020016040518060400160405280600481526020017f466973740000000000000000000000000000000000000000000000000000000081525081526020016040518060400160405280600681526020017f446167676572000000000000000000000000000000000000000000000000000081525081526020016040518060400160405280600681526020017f536379746865000000000000000000000000000000000000000000000000000081525081526020016040518060400160405280600481526020017f4d6163650000000000000000000000000000000000000000000000000000000081525081526020016040518060400160405280600581526020017f426c61646500000000000000000000000000000000000000000000000000000081525081526020016040518060400160405280600681526020017f4b6174616e610000000000000000000000000000000000000000000000000000815250815250601090600f6200067092919062000caf565b506040518060e001604052806040518060400160405280600481526020017f4c6f72640000000000000000000000000000000000000000000000000000000081525081526020016040518060400160405280600481526020017f4b696e670000000000000000000000000000000000000000000000000000000081525081526020016040518060400160405280600781526020017f456d7065726f720000000000000000000000000000000000000000000000000081525081526020016040518060400160405280600981526020017f56656e657261626c65000000000000000000000000000000000000000000000081525081526020016040518060400160405280600881526020017f416e636573746f7200000000000000000000000000000000000000000000000081525081526020016040518060400160405280600581526020017f5361696e7400000000000000000000000000000000000000000000000000000081525081526020016040518060400160405280600381526020017f476f64000000000000000000000000000000000000000000000000000000000081525081525060119060076200082992919062000d16565b503480156200083757600080fd5b50604051620052a2380380620052a283398181016040528101906200085d919062000e21565b6040518060400160405280600a81526020017f457465726e616c4e4654000000000000000000000000000000000000000000008152506040518060400160405280600481526020017f454e4654000000000000000000000000000000000000000000000000000000008152508160009080519060200190620008e192919062000bb7565b508060019080519060200190620008fa92919062000bb7565b5050506200091d62000911620009b560201b60201c565b620009bd60201b60201c565b80600960006101000a81548173ffffffffffffffffffffffffffffffffffffffff021916908373ffffffffffffffffffffffffffffffffffffffff1602179055506200096e62000a8360201b60201c565b600a90805190602001906200098592919062000bb7565b506200099662000b1d60201b60201c565b600b9080519060200190620009ad92919062000bb7565b505062000f00565b600033905090565b6000600760009054906101000a900473ffffffffffffffffffffffffffffffffffffffff16905081600760006101000a81548173ffffffffffffffffffffffffffffffffffffffff021916908373ffffffffffffffffffffffffffffffffffffffff1602179055508173ffffffffffffffffffffffffffffffffffffffff168173ffffffffffffffffffffffffffffffffffffffff167f8be0079c531659141344cd1fd0a4f28419497f9722a3daafe3b4186f6b6457e060405160405180910390a35050565b60606000805462000a949062000e81565b80601f016020809104026020016040519081016040528092919081815260200182805462000ac29062000e81565b801562000b135780601f1062000ae75761010080835404028352916020019162000b13565b820191906000526020600020905b81548152906001019060200180831162000af557829003601f168201915b5050505050905090565b60606001805462000b2e9062000e81565b80601f016020809104026020016040519081016040528092919081815260200182805462000b5c9062000e81565b801562000bad5780601f1062000b815761010080835404028352916020019162000bad565b820191906000526020600020905b81548152906001019060200180831162000b8f57829003601f168201915b5050505050905090565b82805462000bc59062000e81565b90600052602060002090601f01602090048101928262000be9576000855562000c35565b82601f1062000c0457805160ff191683800117855562000c35565b8280016001018555821562000c35579182015b8281111562000c3457825182559160200191906001019062000c17565b5b50905062000c44919062000d7d565b5090565b82805482825590600052602060002090810192821562000c9c579160200282015b8281111562000c9b57825182908051906020019062000c8a92919062000bb7565b509160200191906001019062000c69565b5b50905062000cab919062000d9c565b5090565b82805482825590600052602060002090810192821562000d03579160200282015b8281111562000d0257825182908051906020019062000cf192919062000bb7565b509160200191906001019062000cd0565b5b50905062000d12919062000d9c565b5090565b82805482825590600052602060002090810192821562000d6a579160200282015b8281111562000d6957825182908051906020019062000d5892919062000bb7565b509160200191906001019062000d37565b5b50905062000d79919062000d9c565b5090565b5b8082111562000d9857600081600090555060010162000d7e565b5090565b5b8082111562000dc0576000818162000db6919062000dc4565b5060010162000d9d565b5090565b50805462000dd29062000e81565b6000825580601f1062000de6575062000e07565b601f01602090049060005260206000209081019062000e06919062000d7d565b5b50565b60008151905062000e1b8162000ee6565b92915050565b60006020828403121562000e3457600080fd5b600062000e448482850162000e0a565b91505092915050565b600062000e5a8262000e61565b9050919050565b600073ffffffffffffffffffffffffffffffffffffffff82169050919050565b6000600282049050600182168062000e9a57607f821691505b6020821081141562000eb15762000eb062000eb7565b5b50919050565b7f4e487b7100000000000000000000000000000000000000000000000000000000600052602260045260246000fd5b62000ef18162000e4d565b811462000efd57600080fd5b50565b6142638062000f106000396000f3fe608060405234801561001057600080fd5b506004361061014d5760003560e01c806370a08231116100c3578063c63033861161007c578063c63033861461038c578063c87b56dd146103bc578063e2d2c308146103ec578063e5326ab11461041c578063e985e9c51461043a578063f2fde38b1461046a5761014d565b806370a08231146102de578063715018a61461030e5780638da5cb5b1461031857806395d89b4114610336578063a22cb46514610354578063b88d4fde146103705761014d565b80632f39352a116101155780632f39352a146102085780633330880e1461022657806338c01442146102445780633bad0d361461026257806342842e0e146102925780636352211e146102ae5761014d565b806301ffc9a71461015257806306fdde0314610182578063081812fc146101a0578063095ea7b3146101d057806323b872dd146101ec575b600080fd5b61016c60048036038101906101679190612b49565b610486565b60405161017991906133dc565b60405180910390f35b61018a610568565b60405161019791906133f7565b60405180910390f35b6101ba60048036038101906101b59190612b9b565b6105fa565b6040516101c79190613353565b60405180910390f35b6101ea60048036038101906101e59190612b0d565b61067f565b005b61020660048036038101906102019190612a07565b610797565b005b6102106107f7565b60405161021d91906133f7565b60405180910390f35b61022e610885565b60405161023b9190613659565b60405180910390f35b61024c610a76565b60405161025991906133ba565b60405180910390f35b61027c60048036038101906102779190612b9b565b610da3565b60405161028991906133f7565b60405180910390f35b6102ac60048036038101906102a79190612a07565b610ec1565b005b6102c860048036038101906102c39190612b9b565b610ee1565b6040516102d59190613353565b60405180910390f35b6102f860048036038101906102f391906129a2565b610f93565b6040516103059190613659565b60405180910390f35b61031661104b565b005b6103206110d3565b60405161032d9190613353565b60405180910390f35b61033e6110fd565b60405161034b91906133f7565b60405180910390f35b61036e60048036038101906103699190612ad1565b61118f565b005b61038a60048036038101906103859190612a56565b611310565b005b6103a660048036038101906103a19190612b9b565b611372565b6040516103b391906133f7565b60405180910390f35b6103d660048036038101906103d19190612b9b565b611490565b6040516103e391906133f7565b60405180910390f35b61040660048036038101906104019190612b9b565b6115e2565b60405161041391906133f7565b60405180910390f35b610424611700565b60405161043191906133f7565b60405180910390f35b610454600480360381019061044f91906129cb565b61178e565b60405161046191906133dc565b60405180910390f35b610484600480360381019061047f91906129a2565b611822565b005b60007f80ac58cd000000000000000000000000000000000000000000000000000000007bffffffffffffffffffffffffffffffffffffffffffffffffffffffff1916827bffffffffffffffffffffffffffffffffffffffffffffffffffffffff1916148061055157507f5b5e139f000000000000000000000000000000000000000000000000000000007bffffffffffffffffffffffffffffffffffffffffffffffffffffffff1916827bffffffffffffffffffffffffffffffffffffffffffffffffffffffff1916145b8061056157506105608261191a565b5b9050919050565b60606000805461057790613937565b80601f01602080910402602001604051908101604052809291908181526020018280546105a390613937565b80156105f05780601f106105c5576101008083540402835291602001916105f0565b820191906000526020600020905b8154815290600101906020018083116105d357829003601f168201915b5050505050905090565b600061060582611984565b610644576040517f08c379a000000000000000000000000000000000000000000000000000000000815260040161063b90613599565b60405180910390fd5b6004600083815260200190815260200160002060009054906101000a900473ffffffffffffffffffffffffffffffffffffffff169050919050565b600061068a82610ee1565b90508073ffffffffffffffffffffffffffffffffffffffff168373ffffffffffffffffffffffffffffffffffffffff1614156106fb576040517f08c379a00000000000000000000000000000000000000000000000000000000081526004016106f290613619565b60405180910390fd5b8073ffffffffffffffffffffffffffffffffffffffff1661071a6119f0565b73ffffffffffffffffffffffffffffffffffffffff1614806107495750610748816107436119f0565b61178e565b5b610788576040517f08c379a000000000000000000000000000000000000000000000000000000000815260040161077f906134d9565b60405180910390fd5b61079283836119f8565b505050565b6107a86107a26119f0565b82611ab1565b6107e7576040517f08c379a00000000000000000000000000000000000000000000000000000000081526004016107de90613639565b60405180910390fd5b6107f2838383611b8f565b505050565b600b805461080490613937565b80601f016020809104026020016040519081016040528092919081815260200182805461083090613937565b801561087d5780601f106108525761010080835404028352916020019161087d565b820191906000526020600020905b81548152906001019060200180831161086057829003601f168201915b505050505081565b6000806108926008611deb565b9050600061089f82610da3565b905060006108ac83611372565b905060006108b9846115e2565b905060008383836040516020016108d29392919061320c565b60405160208183030381529060405290506000600e8585856040516020016108fd949392919061323d565b604051602081830303815290604052905060006109428361091d84611df9565b60405160200161092e9291906132ca565b604051602081830303815290604052611df9565b90506000816040516020016109579190613331565b60405160208183030381529060405290506109723389611fb7565b61097c8882611fd5565b6109a9600960009054906101000a900473ffffffffffffffffffffffffffffffffffffffff16600161118f565b60405180606001604052808981526020013373ffffffffffffffffffffffffffffffffffffffff16815260200182815250600d60008a81526020019081526020016000206000820151816000015560208201518160010160006101000a81548173ffffffffffffffffffffffffffffffffffffffff021916908373ffffffffffffffffffffffffffffffffffffffff1602179055506040820151816002019080519060200190610a5a9291906127f7565b50905050610a686008612049565b879850505050505050505090565b60606000610a846008611deb565b905060008060005b83811015610b21573373ffffffffffffffffffffffffffffffffffffffff16600d600083815260200190815260200160002060010160009054906101000a900473ffffffffffffffffffffffffffffffffffffffff1673ffffffffffffffffffffffffffffffffffffffff161415610b0e57600183610b0b919061376c565b92505b8080610b199061399a565b915050610a8c565b5060008267ffffffffffffffff811115610b64577f4e487b7100000000000000000000000000000000000000000000000000000000600052604160045260246000fd5b604051908082528060200260200182016040528015610b9d57816020015b610b8a61287d565b815260200190600190039081610b825790505b50905060005b84811015610d98573373ffffffffffffffffffffffffffffffffffffffff16600d600083815260200190815260200160002060010160009054906101000a900473ffffffffffffffffffffffffffffffffffffffff1673ffffffffffffffffffffffffffffffffffffffff161415610d855760008190506000600d6000838152602001908152602001600020905080604051806060016040529081600082015481526020016001820160009054906101000a900473ffffffffffffffffffffffffffffffffffffffff1673ffffffffffffffffffffffffffffffffffffffff1673ffffffffffffffffffffffffffffffffffffffff168152602001600282018054610cad90613937565b80601f0160208091040260200160405190810160405280929190818152602001828054610cd990613937565b8015610d265780601f10610cfb57610100808354040283529160200191610d26565b820191906000526020600020905b815481529060010190602001808311610d0957829003601f168201915b505050505081525050848681518110610d68577f4e487b7100000000000000000000000000000000000000000000000000000000600052603260045260246000fd5b6020026020010181905250600185610d80919061376c565b945050505b8080610d909061399a565b915050610ba3565b508094505050505090565b60606000610dd7610db38461205f565b604051602001610dc3919061330f565b60405160208183030381529060405261220c565b9050600f8054905081610dea91906139e3565b9050600f8181548110610e26577f4e487b7100000000000000000000000000000000000000000000000000000000600052603260045260246000fd5b906000526020600020018054610e3b90613937565b80601f0160208091040260200160405190810160405280929190818152602001828054610e6790613937565b8015610eb45780601f10610e8957610100808354040283529160200191610eb4565b820191906000526020600020905b815481529060010190602001808311610e9757829003601f168201915b5050505050915050919050565b610edc83838360405180602001604052806000815250611310565b505050565b6000806002600084815260200190815260200160002060009054906101000a900473ffffffffffffffffffffffffffffffffffffffff169050600073ffffffffffffffffffffffffffffffffffffffff168173ffffffffffffffffffffffffffffffffffffffff161415610f8a576040517f08c379a0000000000000000000000000000000000000000000000000000000008152600401610f8190613519565b60405180910390fd5b80915050919050565b60008073ffffffffffffffffffffffffffffffffffffffff168273ffffffffffffffffffffffffffffffffffffffff161415611004576040517f08c379a0000000000000000000000000000000000000000000000000000000008152600401610ffb906134f9565b60405180910390fd5b600360008373ffffffffffffffffffffffffffffffffffffffff1673ffffffffffffffffffffffffffffffffffffffff168152602001908152602001600020549050919050565b6110536119f0565b73ffffffffffffffffffffffffffffffffffffffff166110716110d3565b73ffffffffffffffffffffffffffffffffffffffff16146110c7576040517f08c379a00000000000000000000000000000000000000000000000000000000081526004016110be906135b9565b60405180910390fd5b6110d1600061223f565b565b6000600760009054906101000a900473ffffffffffffffffffffffffffffffffffffffff16905090565b60606001805461110c90613937565b80601f016020809104026020016040519081016040528092919081815260200182805461113890613937565b80156111855780601f1061115a57610100808354040283529160200191611185565b820191906000526020600020905b81548152906001019060200180831161116857829003601f168201915b5050505050905090565b6111976119f0565b73ffffffffffffffffffffffffffffffffffffffff168273ffffffffffffffffffffffffffffffffffffffff161415611205576040517f08c379a00000000000000000000000000000000000000000000000000000000081526004016111fc90613499565b60405180910390fd5b80600560006112126119f0565b73ffffffffffffffffffffffffffffffffffffffff1673ffffffffffffffffffffffffffffffffffffffff16815260200190815260200160002060008473ffffffffffffffffffffffffffffffffffffffff1673ffffffffffffffffffffffffffffffffffffffff16815260200190815260200160002060006101000a81548160ff0219169083151502179055508173ffffffffffffffffffffffffffffffffffffffff166112bf6119f0565b73ffffffffffffffffffffffffffffffffffffffff167f17307eab39ab6107e8899845ad3d59bd9653f200f220920489ca2b5937696c318360405161130491906133dc565b60405180910390a35050565b61132161131b6119f0565b83611ab1565b611360576040517f08c379a000000000000000000000000000000000000000000000000000000000815260040161135790613639565b60405180910390fd5b61136c84848484612305565b50505050565b606060006113a66113828461205f565b6040516020016113929190613286565b60405160208183030381529060405261220c565b9050601080549050816113b991906139e3565b9050601081815481106113f5577f4e487b7100000000000000000000000000000000000000000000000000000000600052603260045260246000fd5b90600052602060002001805461140a90613937565b80601f016020809104026020016040519081016040528092919081815260200182805461143690613937565b80156114835780601f1061145857610100808354040283529160200191611483565b820191906000526020600020905b81548152906001019060200180831161146657829003601f168201915b5050505050915050919050565b606061149b82611984565b6114da576040517f08c379a00000000000000000000000000000000000000000000000000000000081526004016114d190613579565b60405180910390fd5b60006006600084815260200190815260200160002080546114fa90613937565b80601f016020809104026020016040519081016040528092919081815260200182805461152690613937565b80156115735780601f1061154857610100808354040283529160200191611573565b820191906000526020600020905b81548152906001019060200180831161155657829003601f168201915b505050505090506000611584612361565b905060008151141561159a5781925050506115dd565b6000825111156115cf5780826040516020016115b79291906131e8565b604051602081830303815290604052925050506115dd565b6115d884612378565b925050505b919050565b606060006116166115f28461205f565b60405160200161160291906132a8565b60405160208183030381529060405261220c565b90506011805490508161162991906139e3565b905060118181548110611665577f4e487b7100000000000000000000000000000000000000000000000000000000600052603260045260246000fd5b90600052602060002001805461167a90613937565b80601f01602080910402602001604051908101604052809291908181526020018280546116a690613937565b80156116f35780601f106116c8576101008083540402835291602001916116f3565b820191906000526020600020905b8154815290600101906020018083116116d657829003601f168201915b5050505050915050919050565b600a805461170d90613937565b80601f016020809104026020016040519081016040528092919081815260200182805461173990613937565b80156117865780601f1061175b57610100808354040283529160200191611786565b820191906000526020600020905b81548152906001019060200180831161176957829003601f168201915b505050505081565b6000600560008473ffffffffffffffffffffffffffffffffffffffff1673ffffffffffffffffffffffffffffffffffffffff16815260200190815260200160002060008373ffffffffffffffffffffffffffffffffffffffff1673ffffffffffffffffffffffffffffffffffffffff16815260200190815260200160002060009054906101000a900460ff16905092915050565b61182a6119f0565b73ffffffffffffffffffffffffffffffffffffffff166118486110d3565b73ffffffffffffffffffffffffffffffffffffffff161461189e576040517f08c379a0000000000000000000000000000000000000000000000000000000008152600401611895906135b9565b60405180910390fd5b600073ffffffffffffffffffffffffffffffffffffffff168173ffffffffffffffffffffffffffffffffffffffff16141561190e576040517f08c379a000000000000000000000000000000000000000000000000000000000815260040161190590613439565b60405180910390fd5b6119178161223f565b50565b60007f01ffc9a7000000000000000000000000000000000000000000000000000000007bffffffffffffffffffffffffffffffffffffffffffffffffffffffff1916827bffffffffffffffffffffffffffffffffffffffffffffffffffffffff1916149050919050565b60008073ffffffffffffffffffffffffffffffffffffffff166002600084815260200190815260200160002060009054906101000a900473ffffffffffffffffffffffffffffffffffffffff1673ffffffffffffffffffffffffffffffffffffffff1614159050919050565b600033905090565b816004600083815260200190815260200160002060006101000a81548173ffffffffffffffffffffffffffffffffffffffff021916908373ffffffffffffffffffffffffffffffffffffffff160217905550808273ffffffffffffffffffffffffffffffffffffffff16611a6b83610ee1565b73ffffffffffffffffffffffffffffffffffffffff167f8c5be1e5ebec7d5bd14f71427d1e84f3dd0314c0f7b2291e5b200ac8c7c3b92560405160405180910390a45050565b6000611abc82611984565b611afb576040517f08c379a0000000000000000000000000000000000000000000000000000000008152600401611af2906134b9565b60405180910390fd5b6000611b0683610ee1565b90508073ffffffffffffffffffffffffffffffffffffffff168473ffffffffffffffffffffffffffffffffffffffff161480611b7557508373ffffffffffffffffffffffffffffffffffffffff16611b5d846105fa565b73ffffffffffffffffffffffffffffffffffffffff16145b80611b865750611b85818561178e565b5b91505092915050565b8273ffffffffffffffffffffffffffffffffffffffff16611baf82610ee1565b73ffffffffffffffffffffffffffffffffffffffff1614611c05576040517f08c379a0000000000000000000000000000000000000000000000000000000008152600401611bfc906135d9565b60405180910390fd5b600073ffffffffffffffffffffffffffffffffffffffff168273ffffffffffffffffffffffffffffffffffffffff161415611c75576040517f08c379a0000000000000000000000000000000000000000000000000000000008152600401611c6c90613479565b60405180910390fd5b611c8083838361241f565b611c8b6000826119f8565b6001600360008573ffffffffffffffffffffffffffffffffffffffff1673ffffffffffffffffffffffffffffffffffffffff1681526020019081526020016000206000828254611cdb919061384d565b925050819055506001600360008473ffffffffffffffffffffffffffffffffffffffff1673ffffffffffffffffffffffffffffffffffffffff1681526020019081526020016000206000828254611d32919061376c565b92505081905550816002600083815260200190815260200160002060006101000a81548173ffffffffffffffffffffffffffffffffffffffff021916908373ffffffffffffffffffffffffffffffffffffffff160217905550808273ffffffffffffffffffffffffffffffffffffffff168473ffffffffffffffffffffffffffffffffffffffff167fddf252ad1be2c89b69c2b068fc378daa952ba7f163c4a11628f55a4df523b3ef60405160405180910390a4505050565b600081600001549050919050565b60606000825190506000811415611e225760405180602001604052806000815250915050611fb2565b60006003600283611e33919061376c565b611e3d91906137c2565b6004611e4991906137f3565b90506000602082611e5a919061376c565b67ffffffffffffffff811115611e99577f4e487b7100000000000000000000000000000000000000000000000000000000600052604160045260246000fd5b6040519080825280601f01601f191660200182016040528015611ecb5781602001600182028036833780820191505090505b50905060006040518060600160405280604081526020016141ee604091399050600181016020830160005b86811015611f6f5760038101905062ffffff818a015116603f8160121c168401518060081b905060ff603f83600c1c1686015116810190508060081b905060ff603f8360061c1686015116810190508060081b905060ff603f831686015116810190508060e01b90508084526004840193505050611ef6565b506003860660018114611f895760028114611f9957611fa4565b613d3d60f01b6002830352611fa4565b603d60f81b60018303525b508484525050819450505050505b919050565b611fd1828260405180602001604052806000815250612424565b5050565b611fde82611984565b61201d576040517f08c379a000000000000000000000000000000000000000000000000000000000815260040161201490613539565b60405180910390fd5b806006600084815260200190815260200160002090805190602001906120449291906127f7565b505050565b6001816000016000828254019250508190555050565b606060008214156120a7576040518060400160405280600181526020017f30000000000000000000000000000000000000000000000000000000000000008152509050612207565b600082905060005b600082146120d95780806120c29061399a565b915050600a826120d291906137c2565b91506120af565b60008167ffffffffffffffff81111561211b577f4e487b7100000000000000000000000000000000000000000000000000000000600052604160045260246000fd5b6040519080825280601f01601f19166020018201604052801561214d5781602001600182028036833780820191505090505b5090505b6000851461220057600182612166919061384d565b9150600a8561217591906139e3565b6030612181919061376c565b60f81b8183815181106121bd577f4e487b7100000000000000000000000000000000000000000000000000000000600052603260045260246000fd5b60200101907effffffffffffffffffffffffffffffffffffffffffffffffffffffffffffff1916908160001a905350600a856121f991906137c2565b9450612151565b8093505050505b919050565b60008160405160200161221f91906131d1565b6040516020818303038152906040528051906020012060001c9050919050565b6000600760009054906101000a900473ffffffffffffffffffffffffffffffffffffffff16905081600760006101000a81548173ffffffffffffffffffffffffffffffffffffffff021916908373ffffffffffffffffffffffffffffffffffffffff1602179055508173ffffffffffffffffffffffffffffffffffffffff168173ffffffffffffffffffffffffffffffffffffffff167f8be0079c531659141344cd1fd0a4f28419497f9722a3daafe3b4186f6b6457e060405160405180910390a35050565b612310848484611b8f565b61231c8484848461247f565b61235b576040517f08c379a000000000000000000000000000000000000000000000000000000000815260040161235290613419565b60405180910390fd5b50505050565b606060405180602001604052806000815250905090565b606061238382611984565b6123c2576040517f08c379a00000000000000000000000000000000000000000000000000000000081526004016123b9906135f9565b60405180910390fd5b60006123cc612361565b905060008151116123ec5760405180602001604052806000815250612417565b806123f68461205f565b6040516020016124079291906131e8565b6040516020818303038152906040525b915050919050565b505050565b61242e8383612616565b61243b600084848461247f565b61247a576040517f08c379a000000000000000000000000000000000000000000000000000000000815260040161247190613419565b60405180910390fd5b505050565b60006124a08473ffffffffffffffffffffffffffffffffffffffff166127e4565b15612609578373ffffffffffffffffffffffffffffffffffffffff1663150b7a026124c96119f0565b8786866040518563ffffffff1660e01b81526004016124eb949392919061336e565b602060405180830381600087803b15801561250557600080fd5b505af192505050801561253657506040513d601f19601f820116820180604052508101906125339190612b72565b60015b6125b9573d8060008114612566576040519150601f19603f3d011682016040523d82523d6000602084013e61256b565b606091505b506000815114156125b1576040517f08c379a00000000000000000000000000000000000000000000000000000000081526004016125a890613419565b60405180910390fd5b805181602001fd5b63150b7a0260e01b7bffffffffffffffffffffffffffffffffffffffffffffffffffffffff1916817bffffffffffffffffffffffffffffffffffffffffffffffffffffffff19161491505061260e565b600190505b949350505050565b600073ffffffffffffffffffffffffffffffffffffffff168273ffffffffffffffffffffffffffffffffffffffff161415612686576040517f08c379a000000000000000000000000000000000000000000000000000000000815260040161267d90613559565b60405180910390fd5b61268f81611984565b156126cf576040517f08c379a00000000000000000000000000000000000000000000000000000000081526004016126c690613459565b60405180910390fd5b6126db6000838361241f565b6001600360008473ffffffffffffffffffffffffffffffffffffffff1673ffffffffffffffffffffffffffffffffffffffff168152602001908152602001600020600082825461272b919061376c565b92505081905550816002600083815260200190815260200160002060006101000a81548173ffffffffffffffffffffffffffffffffffffffff021916908373ffffffffffffffffffffffffffffffffffffffff160217905550808273ffffffffffffffffffffffffffffffffffffffff16600073ffffffffffffffffffffffffffffffffffffffff167fddf252ad1be2c89b69c2b068fc378daa952ba7f163c4a11628f55a4df523b3ef60405160405180910390a45050565b600080823b905060008111915050919050565b82805461280390613937565b90600052602060002090601f016020900481019282612825576000855561286c565b82601f1061283e57805160ff191683800117855561286c565b8280016001018555821561286c579182015b8281111561286b578251825591602001919060010190612850565b5b50905061287991906128b4565b5090565b604051806060016040528060008152602001600073ffffffffffffffffffffffffffffffffffffffff168152602001606081525090565b5b808211156128cd5760008160009055506001016128b5565b5090565b60006128e46128df84613699565b613674565b9050828152602081018484840111156128fc57600080fd5b6129078482856138f5565b509392505050565b60008135905061291e81614191565b92915050565b600081359050612933816141a8565b92915050565b600081359050612948816141bf565b92915050565b60008151905061295d816141bf565b92915050565b600082601f83011261297457600080fd5b81356129848482602086016128d1565b91505092915050565b60008135905061299c816141d6565b92915050565b6000602082840312156129b457600080fd5b60006129c28482850161290f565b91505092915050565b600080604083850312156129de57600080fd5b60006129ec8582860161290f565b92505060206129fd8582860161290f565b9150509250929050565b600080600060608486031215612a1c57600080fd5b6000612a2a8682870161290f565b9350506020612a3b8682870161290f565b9250506040612a4c8682870161298d565b9150509250925092565b60008060008060808587031215612a6c57600080fd5b6000612a7a8782880161290f565b9450506020612a8b8782880161290f565b9350506040612a9c8782880161298d565b925050606085013567ffffffffffffffff811115612ab957600080fd5b612ac587828801612963565b91505092959194509250565b60008060408385031215612ae457600080fd5b6000612af28582860161290f565b9250506020612b0385828601612924565b9150509250929050565b60008060408385031215612b2057600080fd5b6000612b2e8582860161290f565b9250506020612b3f8582860161298d565b9150509250929050565b600060208284031215612b5b57600080fd5b6000612b6984828501612939565b91505092915050565b600060208284031215612b8457600080fd5b6000612b928482850161294e565b91505092915050565b600060208284031215612bad57600080fd5b6000612bbb8482850161298d565b91505092915050565b6000612bd08383613163565b905092915050565b612be181613881565b82525050565b612bf081613881565b82525050565b6000612c01826136ef565b612c0b818561371d565b935083602082028501612c1d856136ca565b8060005b85811015612c595784840389528151612c3a8582612bc4565b9450612c4583613710565b925060208a01995050600181019050612c21565b50829750879550505050505092915050565b612c7481613893565b82525050565b6000612c85826136fa565b612c8f818561372e565b9350612c9f818560208601613904565b612ca881613ad0565b840191505092915050565b6000612cbe82613705565b612cc8818561373f565b9350612cd8818560208601613904565b612ce181613ad0565b840191505092915050565b6000612cf782613705565b612d018185613750565b9350612d11818560208601613904565b612d1a81613ad0565b840191505092915050565b6000612d3082613705565b612d3a8185613761565b9350612d4a818560208601613904565b80840191505092915050565b60008154612d6381613937565b612d6d8186613761565b94506001821660008114612d885760018114612d9957612dcc565b60ff19831686528186019350612dcc565b612da2856136da565b60005b83811015612dc457815481890152600182019150602081019050612da5565b838801955050505b50505092915050565b6000612de2603283613750565b9150612ded82613ae1565b604082019050919050565b6000612e05602683613750565b9150612e1082613b30565b604082019050919050565b6000612e28601c83613750565b9150612e3382613b7f565b602082019050919050565b6000612e4b600683613761565b9150612e5682613ba8565b600682019050919050565b6000612e6e602483613750565b9150612e7982613bd1565b604082019050919050565b6000612e91601983613750565b9150612e9c82613c20565b602082019050919050565b6000612eb4602c83613750565b9150612ebf82613c49565b604082019050919050565b6000612ed7600d83613761565b9150612ee282613c98565b600d82019050919050565b6000612efa603883613750565b9150612f0582613cc1565b604082019050919050565b6000612f1d602a83613750565b9150612f2882613d10565b604082019050919050565b6000612f40602983613750565b9150612f4b82613d5f565b604082019050919050565b6000612f63602e83613750565b9150612f6e82613dae565b604082019050919050565b6000612f86600483613761565b9150612f9182613dfd565b600482019050919050565b6000612fa9600283613761565b9150612fb482613e26565b600282019050919050565b6000612fcc602083613750565b9150612fd782613e4f565b602082019050919050565b6000612fef603183613750565b9150612ffa82613e78565b604082019050919050565b6000613012602c83613750565b915061301d82613ec7565b604082019050919050565b6000613035602083613750565b915061304082613f16565b602082019050919050565b6000613058602983613750565b915061306382613f3f565b604082019050919050565b600061307b602f83613750565b915061308682613f8e565b604082019050919050565b600061309e600a83613761565b91506130a982613fdd565b600a82019050919050565b60006130c1600783613761565b91506130cc82614006565b600782019050919050565b60006130e4602183613750565b91506130ef8261402f565b604082019050919050565b6000613107601d83613761565b91506131128261407e565b601d82019050919050565b600061312a603183613750565b9150613135826140a7565b604082019050919050565b600061314d606883613761565b9150613158826140f6565b606882019050919050565b600060608301600083015161317b60008601826131b3565b50602083015161318e6020860182612bd8565b50604083015184820360408601526131a68282612cb3565b9150508091505092915050565b6131bc816138eb565b82525050565b6131cb816138eb565b82525050565b60006131dd8284612d25565b915081905092915050565b60006131f48285612d25565b91506132008284612d25565b91508190509392505050565b60006132188286612d25565b91506132248285612d25565b91506132308284612d25565b9150819050949350505050565b60006132498287612d56565b91506132558286612d25565b91506132618285612d25565b915061326d8284612d25565b915061327882612eca565b915081905095945050505050565b600061329182612e3e565b915061329d8284612d25565b915081905092915050565b60006132b382612f79565b91506132bf8284612d25565b915081905092915050565b60006132d582613091565b91506132e18285612d25565b91506132ec82613140565b91506132f88284612d25565b915061330382612f9c565b91508190509392505050565b600061331a826130b4565b91506133268284612d25565b915081905092915050565b600061333c826130fa565b91506133488284612d25565b915081905092915050565b60006020820190506133686000830184612be7565b92915050565b60006080820190506133836000830187612be7565b6133906020830186612be7565b61339d60408301856131c2565b81810360608301526133af8184612c7a565b905095945050505050565b600060208201905081810360008301526133d48184612bf6565b905092915050565b60006020820190506133f16000830184612c6b565b92915050565b600060208201905081810360008301526134118184612cec565b905092915050565b6000602082019050818103600083015261343281612dd5565b9050919050565b6000602082019050818103600083015261345281612df8565b9050919050565b6000602082019050818103600083015261347281612e1b565b9050919050565b6000602082019050818103600083015261349281612e61565b9050919050565b600060208201905081810360008301526134b281612e84565b9050919050565b600060208201905081810360008301526134d281612ea7565b9050919050565b600060208201905081810360008301526134f281612eed565b9050919050565b6000602082019050818103600083015261351281612f10565b9050919050565b6000602082019050818103600083015261353281612f33565b9050919050565b6000602082019050818103600083015261355281612f56565b9050919050565b6000602082019050818103600083015261357281612fbf565b9050919050565b6000602082019050818103600083015261359281612fe2565b9050919050565b600060208201905081810360008301526135b281613005565b9050919050565b600060208201905081810360008301526135d281613028565b9050919050565b600060208201905081810360008301526135f28161304b565b9050919050565b600060208201905081810360008301526136128161306e565b9050919050565b60006020820190508181036000830152613632816130d7565b9050919050565b600060208201905081810360008301526136528161311d565b9050919050565b600060208201905061366e60008301846131c2565b92915050565b600061367e61368f565b905061368a8282613969565b919050565b6000604051905090565b600067ffffffffffffffff8211156136b4576136b3613aa1565b5b6136bd82613ad0565b9050602081019050919050565b6000819050602082019050919050565b60008190508160005260206000209050919050565b600081519050919050565b600081519050919050565b600081519050919050565b6000602082019050919050565b600082825260208201905092915050565b600082825260208201905092915050565b600082825260208201905092915050565b600082825260208201905092915050565b600081905092915050565b6000613777826138eb565b9150613782836138eb565b9250827fffffffffffffffffffffffffffffffffffffffffffffffffffffffffffffffff038211156137b7576137b6613a14565b5b828201905092915050565b60006137cd826138eb565b91506137d8836138eb565b9250826137e8576137e7613a43565b5b828204905092915050565b60006137fe826138eb565b9150613809836138eb565b9250817fffffffffffffffffffffffffffffffffffffffffffffffffffffffffffffffff048311821515161561384257613841613a14565b5b828202905092915050565b6000613858826138eb565b9150613863836138eb565b92508282101561387657613875613a14565b5b828203905092915050565b600061388c826138cb565b9050919050565b60008115159050919050565b60007fffffffff0000000000000000000000000000000000000000000000000000000082169050919050565b600073ffffffffffffffffffffffffffffffffffffffff82169050919050565b6000819050919050565b82818337600083830152505050565b60005b83811015613922578082015181840152602081019050613907565b83811115613931576000848401525b50505050565b6000600282049050600182168061394f57607f821691505b6020821081141561396357613962613a72565b5b50919050565b61397282613ad0565b810181811067ffffffffffffffff8211171561399157613990613aa1565b5b80604052505050565b60006139a5826138eb565b91507fffffffffffffffffffffffffffffffffffffffffffffffffffffffffffffffff8214156139d8576139d7613a14565b5b600182019050919050565b60006139ee826138eb565b91506139f9836138eb565b925082613a0957613a08613a43565b5b828206905092915050565b7f4e487b7100000000000000000000000000000000000000000000000000000000600052601160045260246000fd5b7f4e487b7100000000000000000000000000000000000000000000000000000000600052601260045260246000fd5b7f4e487b7100000000000000000000000000000000000000000000000000000000600052602260045260246000fd5b7f4e487b7100000000000000000000000000000000000000000000000000000000600052604160045260246000fd5b6000601f19601f8301169050919050565b7f4552433732313a207472616e7366657220746f206e6f6e20455243373231526560008201527f63656976657220696d706c656d656e7465720000000000000000000000000000602082015250565b7f4f776e61626c653a206e6577206f776e657220697320746865207a65726f206160008201527f6464726573730000000000000000000000000000000000000000000000000000602082015250565b7f4552433732313a20746f6b656e20616c7265616479206d696e74656400000000600082015250565b7f776561706f6e0000000000000000000000000000000000000000000000000000600082015250565b7f4552433732313a207472616e7366657220746f20746865207a65726f2061646460008201527f7265737300000000000000000000000000000000000000000000000000000000602082015250565b7f4552433732313a20617070726f766520746f2063616c6c657200000000000000600082015250565b7f4552433732313a206f70657261746f7220717565727920666f72206e6f6e657860008201527f697374656e7420746f6b656e0000000000000000000000000000000000000000602082015250565b7f3c2f746578743e3c2f7376673e00000000000000000000000000000000000000600082015250565b7f4552433732313a20617070726f76652063616c6c6572206973206e6f74206f7760008201527f6e6572206e6f7220617070726f76656420666f7220616c6c0000000000000000602082015250565b7f4552433732313a2062616c616e636520717565727920666f7220746865207a6560008201527f726f206164647265737300000000000000000000000000000000000000000000602082015250565b7f4552433732313a206f776e657220717565727920666f72206e6f6e657869737460008201527f656e7420746f6b656e0000000000000000000000000000000000000000000000602082015250565b7f45524337323155524953746f726167653a2055524920736574206f66206e6f6e60008201527f6578697374656e7420746f6b656e000000000000000000000000000000000000602082015250565b7f72616e6b00000000000000000000000000000000000000000000000000000000600082015250565b7f227d000000000000000000000000000000000000000000000000000000000000600082015250565b7f4552433732313a206d696e7420746f20746865207a65726f2061646472657373600082015250565b7f45524337323155524953746f726167653a2055524920717565727920666f722060008201527f6e6f6e6578697374656e7420746f6b656e000000000000000000000000000000602082015250565b7f4552433732313a20617070726f76656420717565727920666f72206e6f6e657860008201527f697374656e7420746f6b656e0000000000000000000000000000000000000000602082015250565b7f4f776e61626c653a2063616c6c6572206973206e6f7420746865206f776e6572600082015250565b7f4552433732313a207472616e73666572206f6620746f6b656e2074686174206960008201527f73206e6f74206f776e0000000000000000000000000000000000000000000000602082015250565b7f4552433732314d657461646174613a2055524920717565727920666f72206e6f60008201527f6e6578697374656e7420746f6b656e0000000000000000000000000000000000602082015250565b7f7b226e616d65223a202200000000000000000000000000000000000000000000600082015250565b7f656c656d656e7400000000000000000000000000000000000000000000000000600082015250565b7f4552433732313a20617070726f76616c20746f2063757272656e74206f776e6560008201527f7200000000000000000000000000000000000000000000000000000000000000602082015250565b7f646174613a6170706c69636174696f6e2f6a736f6e3b6261736536342c000000600082015250565b7f4552433732313a207472616e736665722063616c6c6572206973206e6f74206f60008201527f776e6572206e6f7220617070726f766564000000000000000000000000000000602082015250565b7f222c20226465736372697074696f6e223a20224120686967686c79206163636c60008201527f61696d656420636f6c6c656374696f6e20457465726e616c2057617272696f7260208201527f73222c2022696d616765223a2022646174613a696d6167652f7376672b786d6c60408201527f3b6261736536342c000000000000000000000000000000000000000000000000606082015250565b61419a81613881565b81146141a557600080fd5b50565b6141b181613893565b81146141bc57600080fd5b50565b6141c88161389f565b81146141d357600080fd5b50565b6141df816138eb565b81146141ea57600080fd5b5056fe4142434445464748494a4b4c4d4e4f505152535455565758595a6162636465666768696a6b6c6d6e6f707172737475767778797a303132333435363738392b2fa2646970667358221220a1e56c7f2123f20d905ab2ac5ce50af2939b8455b11d0872cecaaf3cd767439864736f6c634300080300333c73766720786d6c6e733d27687474703a2f2f7777772e77332e6f72672f323030302f73766727207072657365727665417370656374526174696f3d27784d696e594d696e206d656574272076696577426f783d273020302033353020333530273e3c7374796c653e2e62617365207b2066696c6c3a2077686974653b20666f6e742d66616d696c793a2073657269663b20666f6e742d73697a653a20323470783b207d3c2f7374796c653e3c726563742077696474683d273130302527206865696768743d2731303025272066696c6c3d27626c61636b27202f3e3c7465787420783d273530252720793d273530252720636c6173733d27626173652720646f6d696e616e742d626173656c696e653d276d6964646c652720746578742d616e63686f723d276d6964646c65273e",
	"linkReferences": {},
	"deployedLinkReferences": {}
}