{
  "_format": "hh-sol-artifact-1",
  "contractName": "EternalNFT",
  "sourceName": "contracts/EternalNFT.sol",
  "abi": [
    {
      "inputs": [
        {
          "internalType": "address",
          "name": "marketplaceAddress",
          "type": "address"
        }
      ],
      "stateMutability": "nonpayable",
      "type": "constructor"
    },
    {
      "anonymous": false,
      "inputs": [
        {
          "indexed": true,
          "internalType": "address",
          "name": "owner",
          "type": "address"
        },
        {
          "indexed": true,
          "internalType": "address",
          "name": "approved",
          "type": "address"
        },
        {
          "indexed": true,
          "internalType": "uint256",
          "name": "tokenId",
          "type": "uint256"
        }
      ],
      "name": "Approval",
      "type": "event"
    },
    {
      "anonymous": false,
      "inputs": [
        {
          "indexed": true,
          "internalType": "address",
          "name": "owner",
          "type": "address"
        },
        {
          "indexed": true,
          "internalType": "address",
          "name": "operator",
          "type": "address"
        },
        {
          "indexed": false,
          "internalType": "bool",
          "name": "approved",
          "type": "bool"
        }
      ],
      "name": "ApprovalForAll",
      "type": "event"
    },
    {
      "anonymous": false,
      "inputs": [
        {
          "indexed": true,
          "internalType": "address",
          "name": "previousOwner",
          "type": "address"
        },
        {
          "indexed": true,
          "internalType": "address",
          "name": "newOwner",
          "type": "address"
        }
      ],
      "name": "OwnershipTransferred",
      "type": "event"
    },
    {
      "anonymous": false,
      "inputs": [
        {
          "indexed": true,
          "internalType": "address",
          "name": "from",
          "type": "address"
        },
        {
          "indexed": true,
          "internalType": "address",
          "name": "to",
          "type": "address"
        },
        {
          "indexed": true,
          "internalType": "uint256",
          "name": "tokenId",
          "type": "uint256"
        }
      ],
      "name": "Transfer",
      "type": "event"
    },
    {
      "inputs": [
        {
          "internalType": "address",
          "name": "to",
          "type": "address"
        },
        {
          "internalType": "uint256",
          "name": "tokenId",
          "type": "uint256"
        }
      ],
      "name": "approve",
      "outputs": [],
      "stateMutability": "nonpayable",
      "type": "function"
    },
    {
      "inputs": [
        {
          "internalType": "address",
          "name": "owner",
          "type": "address"
        }
      ],
      "name": "balanceOf",
      "outputs": [
        {
          "internalType": "uint256",
          "name": "",
          "type": "uint256"
        }
      ],
      "stateMutability": "view",
      "type": "function"
    },
    {
      "inputs": [],
      "name": "collectionName",
      "outputs": [
        {
          "internalType": "string",
          "name": "",
          "type": "string"
        }
      ],
      "stateMutability": "view",
      "type": "function"
    },
    {
      "inputs": [],
      "name": "collectionSymbol",
      "outputs": [
        {
          "internalType": "string",
          "name": "",
          "type": "string"
        }
      ],
      "stateMutability": "view",
      "type": "function"
    },
    {
      "inputs": [],
      "name": "createEternalNFT",
      "outputs": [
        {
          "internalType": "uint256",
          "name": "",
          "type": "uint256"
        }
      ],
      "stateMutability": "nonpayable",
      "type": "function"
    },
    {
      "inputs": [
        {
          "internalType": "uint256",
          "name": "tokenId",
          "type": "uint256"
        }
      ],
      "name": "getApproved",
      "outputs": [
        {
          "internalType": "address",
          "name": "",
          "type": "address"
        }
      ],
      "stateMutability": "view",
      "type": "function"
    },
    {
      "inputs": [
        {
          "internalType": "address",
          "name": "owner",
          "type": "address"
        },
        {
          "internalType": "address",
          "name": "operator",
          "type": "address"
        }
      ],
      "name": "isApprovedForAll",
      "outputs": [
        {
          "internalType": "bool",
          "name": "",
          "type": "bool"
        }
      ],
      "stateMutability": "view",
      "type": "function"
    },
    {
      "inputs": [],
      "name": "name",
      "outputs": [
        {
          "internalType": "string",
          "name": "",
          "type": "string"
        }
      ],
      "stateMutability": "view",
      "type": "function"
    },
    {
      "inputs": [],
      "name": "owner",
      "outputs": [
        {
          "internalType": "address",
          "name": "",
          "type": "address"
        }
      ],
      "stateMutability": "view",
      "type": "function"
    },
    {
      "inputs": [
        {
          "internalType": "uint256",
          "name": "tokenId",
          "type": "uint256"
        }
      ],
      "name": "ownerOf",
      "outputs": [
        {
          "internalType": "address",
          "name": "",
          "type": "address"
        }
      ],
      "stateMutability": "view",
      "type": "function"
    },
    {
      "inputs": [
        {
          "internalType": "uint256",
          "name": "tokenId",
          "type": "uint256"
        }
      ],
      "name": "pickFirstWord",
      "outputs": [
        {
          "internalType": "string",
          "name": "",
          "type": "string"
        }
      ],
      "stateMutability": "view",
      "type": "function"
    },
    {
      "inputs": [
        {
          "internalType": "uint256",
          "name": "tokenId",
          "type": "uint256"
        }
      ],
      "name": "pickSecondWord",
      "outputs": [
        {
          "internalType": "string",
          "name": "",
          "type": "string"
        }
      ],
      "stateMutability": "view",
      "type": "function"
    },
    {
      "inputs": [
        {
          "internalType": "uint256",
          "name": "tokenId",
          "type": "uint256"
        }
      ],
      "name": "pickThirdWord",
      "outputs": [
        {
          "internalType": "string",
          "name": "",
          "type": "string"
        }
      ],
      "stateMutability": "view",
      "type": "function"
    },
    {
      "inputs": [],
      "name": "renounceOwnership",
      "outputs": [],
      "stateMutability": "nonpayable",
      "type": "function"
    },
    {
      "inputs": [
        {
          "internalType": "address",
          "name": "from",
          "type": "address"
        },
        {
          "internalType": "address",
          "name": "to",
          "type": "address"
        },
        {
          "internalType": "uint256",
          "name": "tokenId",
          "type": "uint256"
        }
      ],
      "name": "safeTransferFrom",
      "outputs": [],
      "stateMutability": "nonpayable",
      "type": "function"
    },
    {
      "inputs": [
        {
          "internalType": "address",
          "name": "from",
          "type": "address"
        },
        {
          "internalType": "address",
          "name": "to",
          "type": "address"
        },
        {
          "internalType": "uint256",
          "name": "tokenId",
          "type": "uint256"
        },
        {
          "internalType": "bytes",
          "name": "_data",
          "type": "bytes"
        }
      ],
      "name": "safeTransferFrom",
      "outputs": [],
      "stateMutability": "nonpayable",
      "type": "function"
    },
    {
      "inputs": [
        {
          "internalType": "address",
          "name": "operator",
          "type": "address"
        },
        {
          "internalType": "bool",
          "name": "approved",
          "type": "bool"
        }
      ],
      "name": "setApprovalForAll",
      "outputs": [],
      "stateMutability": "nonpayable",
      "type": "function"
    },
    {
      "inputs": [
        {
          "internalType": "bytes4",
          "name": "interfaceId",
          "type": "bytes4"
        }
      ],
      "name": "supportsInterface",
      "outputs": [
        {
          "internalType": "bool",
          "name": "",
          "type": "bool"
        }
      ],
      "stateMutability": "view",
      "type": "function"
    },
    {
      "inputs": [],
      "name": "symbol",
      "outputs": [
        {
          "internalType": "string",
          "name": "",
          "type": "string"
        }
      ],
      "stateMutability": "view",
      "type": "function"
    },
    {
      "inputs": [
        {
          "internalType": "uint256",
          "name": "tokenId",
          "type": "uint256"
        }
      ],
      "name": "tokenURI",
      "outputs": [
        {
          "internalType": "string",
          "name": "",
          "type": "string"
        }
      ],
      "stateMutability": "view",
      "type": "function"
    },
    {
      "inputs": [
        {
          "internalType": "address",
          "name": "from",
          "type": "address"
        },
        {
          "internalType": "address",
          "name": "to",
          "type": "address"
        },
        {
          "internalType": "uint256",
          "name": "tokenId",
          "type": "uint256"
        }
      ],
      "name": "transferFrom",
      "outputs": [],
      "stateMutability": "nonpayable",
      "type": "function"
    },
    {
      "inputs": [
        {
          "internalType": "address",
          "name": "newOwner",
          "type": "address"
        }
      ],
      "name": "transferOwnership",
      "outputs": [],
      "stateMutability": "nonpayable",
      "type": "function"
    }
  ],
  "bytecode": "0x608060405260405180610160016040528061012f81526020016200494161012f9139600c9080519060200190620000389291906200087b565b506040518060c001604052806040518060400160405280600581526020017f466c616d6500000000000000000000000000000000000000000000000000000081525081526020016040518060400160405280600481526020017f57696e640000000000000000000000000000000000000000000000000000000081525081526020016040518060400160405280600481526020017f576176650000000000000000000000000000000000000000000000000000000081525081526020016040518060400160405280600481526020017f526f636b0000000000000000000000000000000000000000000000000000000081525081526020016040518060400160405280600581526020017f4c6967687400000000000000000000000000000000000000000000000000000081525081526020016040518060400160405280600481526020017f4461726b00000000000000000000000000000000000000000000000000000000815250815250600d906006620001b69291906200090c565b506040518060e001604052806040518060400160405280600481526020017f4d6167650000000000000000000000000000000000000000000000000000000081525081526020016040518060400160405280600681526020017f536869656c64000000000000000000000000000000000000000000000000000081525081526020016040518060400160405280600881526020017f417373617373696e00000000000000000000000000000000000000000000000081525081526020016040518060400160405280600581526020017f5361696e7400000000000000000000000000000000000000000000000000000081525081526020016040518060400160405280600681526020017f436c65726963000000000000000000000000000000000000000000000000000081525081526020016040518060400160405280600581526020017f53776f726400000000000000000000000000000000000000000000000000000081525081526020016040518060400160405280600581526020017f5370656172000000000000000000000000000000000000000000000000000000815250815250600e9060076200036f92919062000973565b506040518060c001604052806040518060400160405280600381526020017f536869000000000000000000000000000000000000000000000000000000000081525081526020016040518060400160405280600381526020017f4c696e000000000000000000000000000000000000000000000000000000000081525081526020016040518060400160405280600381526020017f48616e000000000000000000000000000000000000000000000000000000000081525081526020016040518060400160405280600381526020017f52656e000000000000000000000000000000000000000000000000000000000081525081526020016040518060400160405280600381526020017f51696e000000000000000000000000000000000000000000000000000000000081525081526020016040518060400160405280600381526020017f4a696e0000000000000000000000000000000000000000000000000000000000815250815250600f906006620004ed9291906200090c565b50348015620004fb57600080fd5b5060405162004a7038038062004a70833981810160405281019062000521919062000a7e565b6040518060400160405280600a81526020017f457465726e616c4e4654000000000000000000000000000000000000000000008152506040518060400160405280600481526020017f454e4654000000000000000000000000000000000000000000000000000000008152508160009080519060200190620005a59291906200087b565b508060019080519060200190620005be9291906200087b565b505050620005e1620005d56200067960201b60201c565b6200068160201b60201c565b80600960006101000a81548173ffffffffffffffffffffffffffffffffffffffff021916908373ffffffffffffffffffffffffffffffffffffffff160217905550620006326200074760201b60201c565b600a9080519060200190620006499291906200087b565b506200065a620007e160201b60201c565b600b9080519060200190620006719291906200087b565b505062000b5d565b600033905090565b6000600760009054906101000a900473ffffffffffffffffffffffffffffffffffffffff16905081600760006101000a81548173ffffffffffffffffffffffffffffffffffffffff021916908373ffffffffffffffffffffffffffffffffffffffff1602179055508173ffffffffffffffffffffffffffffffffffffffff168173ffffffffffffffffffffffffffffffffffffffff167f8be0079c531659141344cd1fd0a4f28419497f9722a3daafe3b4186f6b6457e060405160405180910390a35050565b606060008054620007589062000ade565b80601f0160208091040260200160405190810160405280929190818152602001828054620007869062000ade565b8015620007d75780601f10620007ab57610100808354040283529160200191620007d7565b820191906000526020600020905b815481529060010190602001808311620007b957829003601f168201915b5050505050905090565b606060018054620007f29062000ade565b80601f0160208091040260200160405190810160405280929190818152602001828054620008209062000ade565b8015620008715780601f10620008455761010080835404028352916020019162000871565b820191906000526020600020905b8154815290600101906020018083116200085357829003601f168201915b5050505050905090565b828054620008899062000ade565b90600052602060002090601f016020900481019282620008ad5760008555620008f9565b82601f10620008c857805160ff1916838001178555620008f9565b82800160010185558215620008f9579182015b82811115620008f8578251825591602001919060010190620008db565b5b509050620009089190620009da565b5090565b82805482825590600052602060002090810192821562000960579160200282015b828111156200095f5782518290805190602001906200094e9291906200087b565b50916020019190600101906200092d565b5b5090506200096f9190620009f9565b5090565b828054828255906000526020600020908101928215620009c7579160200282015b82811115620009c6578251829080519060200190620009b59291906200087b565b509160200191906001019062000994565b5b509050620009d69190620009f9565b5090565b5b80821115620009f5576000816000905550600101620009db565b5090565b5b8082111562000a1d576000818162000a13919062000a21565b50600101620009fa565b5090565b50805462000a2f9062000ade565b6000825580601f1062000a43575062000a64565b601f01602090049060005260206000209081019062000a639190620009da565b5b50565b60008151905062000a788162000b43565b92915050565b60006020828403121562000a9157600080fd5b600062000aa18482850162000a67565b91505092915050565b600062000ab78262000abe565b9050919050565b600073ffffffffffffffffffffffffffffffffffffffff82169050919050565b6000600282049050600182168062000af757607f821691505b6020821081141562000b0e5762000b0d62000b14565b5b50919050565b7f4e487b7100000000000000000000000000000000000000000000000000000000600052602260045260246000fd5b62000b4e8162000aaa565b811462000b5a57600080fd5b50565b613dd48062000b6d6000396000f3fe608060405234801561001057600080fd5b50600436106101425760003560e01c8063715018a6116100b8578063c63033861161007c578063c630338614610363578063c87b56dd14610393578063e2d2c308146103c3578063e5326ab1146103f3578063e985e9c514610411578063f2fde38b1461044157610142565b8063715018a6146102e55780638da5cb5b146102ef57806395d89b411461030d578063a22cb4651461032b578063b88d4fde1461034757610142565b80632f39352a1161010a5780632f39352a146101fd5780633330880e1461021b5780633bad0d361461023957806342842e0e146102695780636352211e1461028557806370a08231146102b557610142565b806301ffc9a71461014757806306fdde0314610177578063081812fc14610195578063095ea7b3146101c557806323b872dd146101e1575b600080fd5b610161600480360381019061015c91906127f3565b61045d565b60405161016e9190612f34565b60405180910390f35b61017f61053f565b60405161018c9190612f4f565b60405180910390f35b6101af60048036038101906101aa9190612845565b6105d1565b6040516101bc9190612ecd565b60405180910390f35b6101df60048036038101906101da91906127b7565b610656565b005b6101fb60048036038101906101f691906126b1565b61076e565b005b6102056107ce565b6040516102129190612f4f565b60405180910390f35b61022361085c565b60405161023091906131ef565b60405180910390f35b610253600480360381019061024e9190612845565b6109bc565b6040516102609190612f4f565b60405180910390f35b610283600480360381019061027e91906126b1565b610ada565b005b61029f600480360381019061029a9190612845565b610afa565b6040516102ac9190612ecd565b60405180910390f35b6102cf60048036038101906102ca919061264c565b610bac565b6040516102dc91906131ef565b60405180910390f35b6102ed610c64565b005b6102f7610cec565b6040516103049190612ecd565b60405180910390f35b610315610d16565b6040516103229190612f4f565b60405180910390f35b6103456004803603810190610340919061277b565b610da8565b005b610361600480360381019061035c9190612700565b610f29565b005b61037d60048036038101906103789190612845565b610f8b565b60405161038a9190612f4f565b60405180910390f35b6103ad60048036038101906103a89190612845565b6110a9565b6040516103ba9190612f4f565b60405180910390f35b6103dd60048036038101906103d89190612845565b6111fb565b6040516103ea9190612f4f565b60405180910390f35b6103fb611319565b6040516104089190612f4f565b60405180910390f35b61042b60048036038101906104269190612675565b6113a7565b6040516104389190612f34565b60405180910390f35b61045b6004803603810190610456919061264c565b61143b565b005b60007f80ac58cd000000000000000000000000000000000000000000000000000000007bffffffffffffffffffffffffffffffffffffffffffffffffffffffff1916827bffffffffffffffffffffffffffffffffffffffffffffffffffffffff1916148061052857507f5b5e139f000000000000000000000000000000000000000000000000000000007bffffffffffffffffffffffffffffffffffffffffffffffffffffffff1916827bffffffffffffffffffffffffffffffffffffffffffffffffffffffff1916145b80610538575061053782611533565b5b9050919050565b60606000805461054e90613483565b80601f016020809104026020016040519081016040528092919081815260200182805461057a90613483565b80156105c75780601f1061059c576101008083540402835291602001916105c7565b820191906000526020600020905b8154815290600101906020018083116105aa57829003601f168201915b5050505050905090565b60006105dc8261159d565b61061b576040517f08c379a00000000000000000000000000000000000000000000000000000000081526004016106129061312f565b60405180910390fd5b6004600083815260200190815260200160002060009054906101000a900473ffffffffffffffffffffffffffffffffffffffff169050919050565b600061066182610afa565b90508073ffffffffffffffffffffffffffffffffffffffff168373ffffffffffffffffffffffffffffffffffffffff1614156106d2576040517f08c379a00000000000000000000000000000000000000000000000000000000081526004016106c9906131af565b60405180910390fd5b8073ffffffffffffffffffffffffffffffffffffffff166106f1611609565b73ffffffffffffffffffffffffffffffffffffffff161480610720575061071f8161071a611609565b6113a7565b5b61075f576040517f08c379a00000000000000000000000000000000000000000000000000000000081526004016107569061306f565b60405180910390fd5b6107698383611611565b505050565b61077f610779611609565b826116ca565b6107be576040517f08c379a00000000000000000000000000000000000000000000000000000000081526004016107b5906131cf565b60405180910390fd5b6107c98383836117a8565b505050565b600b80546107db90613483565b80601f016020809104026020016040519081016040528092919081815260200182805461080790613483565b80156108545780601f1061082957610100808354040283529160200191610854565b820191906000526020600020905b81548152906001019060200180831161083757829003601f168201915b505050505081565b60006108686008611a04565b60006108746008611a1a565b90506000610881826109bc565b9050600061088e83610f8b565b9050600061089b846111fb565b905060008383836040516020016108b493929190612d86565b60405160208183030381529060405290506000600c8585856040516020016108df9493929190612db7565b60405160208183030381529060405290506000610924836108ff84611a28565b604051602001610910929190612e44565b604051602081830303815290604052611a28565b90506000816040516020016109399190612eab565b60405160208183030381529060405290506109543389611be6565b61095e8882611c04565b61098b600960009054906101000a900473ffffffffffffffffffffffffffffffffffffffff166001610da8565b6109ae604051806060016040528060258152602001613d3a602591398933611c78565b879850505050505050505090565b606060006109f06109cc84611d17565b6040516020016109dc9190612e89565b604051602081830303815290604052611ec4565b9050600d8054905081610a03919061352f565b9050600d8181548110610a3f577f4e487b7100000000000000000000000000000000000000000000000000000000600052603260045260246000fd5b906000526020600020018054610a5490613483565b80601f0160208091040260200160405190810160405280929190818152602001828054610a8090613483565b8015610acd5780601f10610aa257610100808354040283529160200191610acd565b820191906000526020600020905b815481529060010190602001808311610ab057829003601f168201915b5050505050915050919050565b610af583838360405180602001604052806000815250610f29565b505050565b6000806002600084815260200190815260200160002060009054906101000a900473ffffffffffffffffffffffffffffffffffffffff169050600073ffffffffffffffffffffffffffffffffffffffff168173ffffffffffffffffffffffffffffffffffffffff161415610ba3576040517f08c379a0000000000000000000000000000000000000000000000000000000008152600401610b9a906130af565b60405180910390fd5b80915050919050565b60008073ffffffffffffffffffffffffffffffffffffffff168273ffffffffffffffffffffffffffffffffffffffff161415610c1d576040517f08c379a0000000000000000000000000000000000000000000000000000000008152600401610c149061308f565b60405180910390fd5b600360008373ffffffffffffffffffffffffffffffffffffffff1673ffffffffffffffffffffffffffffffffffffffff168152602001908152602001600020549050919050565b610c6c611609565b73ffffffffffffffffffffffffffffffffffffffff16610c8a610cec565b73ffffffffffffffffffffffffffffffffffffffff1614610ce0576040517f08c379a0000000000000000000000000000000000000000000000000000000008152600401610cd79061314f565b60405180910390fd5b610cea6000611ef7565b565b6000600760009054906101000a900473ffffffffffffffffffffffffffffffffffffffff16905090565b606060018054610d2590613483565b80601f0160208091040260200160405190810160405280929190818152602001828054610d5190613483565b8015610d9e5780601f10610d7357610100808354040283529160200191610d9e565b820191906000526020600020905b815481529060010190602001808311610d8157829003601f168201915b5050505050905090565b610db0611609565b73ffffffffffffffffffffffffffffffffffffffff168273ffffffffffffffffffffffffffffffffffffffff161415610e1e576040517f08c379a0000000000000000000000000000000000000000000000000000000008152600401610e159061302f565b60405180910390fd5b8060056000610e2b611609565b73ffffffffffffffffffffffffffffffffffffffff1673ffffffffffffffffffffffffffffffffffffffff16815260200190815260200160002060008473ffffffffffffffffffffffffffffffffffffffff1673ffffffffffffffffffffffffffffffffffffffff16815260200190815260200160002060006101000a81548160ff0219169083151502179055508173ffffffffffffffffffffffffffffffffffffffff16610ed8611609565b73ffffffffffffffffffffffffffffffffffffffff167f17307eab39ab6107e8899845ad3d59bd9653f200f220920489ca2b5937696c3183604051610f1d9190612f34565b60405180910390a35050565b610f3a610f34611609565b836116ca565b610f79576040517f08c379a0000000000000000000000000000000000000000000000000000000008152600401610f70906131cf565b60405180910390fd5b610f8584848484611fbd565b50505050565b60606000610fbf610f9b84611d17565b604051602001610fab9190612e22565b604051602081830303815290604052611ec4565b9050600e8054905081610fd2919061352f565b9050600e818154811061100e577f4e487b7100000000000000000000000000000000000000000000000000000000600052603260045260246000fd5b90600052602060002001805461102390613483565b80601f016020809104026020016040519081016040528092919081815260200182805461104f90613483565b801561109c5780601f106110715761010080835404028352916020019161109c565b820191906000526020600020905b81548152906001019060200180831161107f57829003601f168201915b5050505050915050919050565b60606110b48261159d565b6110f3576040517f08c379a00000000000000000000000000000000000000000000000000000000081526004016110ea9061310f565b60405180910390fd5b600060066000848152602001908152602001600020805461111390613483565b80601f016020809104026020016040519081016040528092919081815260200182805461113f90613483565b801561118c5780601f106111615761010080835404028352916020019161118c565b820191906000526020600020905b81548152906001019060200180831161116f57829003601f168201915b50505050509050600061119d612019565b90506000815114156111b35781925050506111f6565b6000825111156111e85780826040516020016111d0929190612d62565b604051602081830303815290604052925050506111f6565b6111f184612030565b925050505b919050565b6060600061122f61120b84611d17565b60405160200161121b9190612e00565b604051602081830303815290604052611ec4565b9050600f8054905081611242919061352f565b9050600f818154811061127e577f4e487b7100000000000000000000000000000000000000000000000000000000600052603260045260246000fd5b90600052602060002001805461129390613483565b80601f01602080910402602001604051908101604052809291908181526020018280546112bf90613483565b801561130c5780601f106112e15761010080835404028352916020019161130c565b820191906000526020600020905b8154815290600101906020018083116112ef57829003601f168201915b5050505050915050919050565b600a805461132690613483565b80601f016020809104026020016040519081016040528092919081815260200182805461135290613483565b801561139f5780601f106113745761010080835404028352916020019161139f565b820191906000526020600020905b81548152906001019060200180831161138257829003601f168201915b505050505081565b6000600560008473ffffffffffffffffffffffffffffffffffffffff1673ffffffffffffffffffffffffffffffffffffffff16815260200190815260200160002060008373ffffffffffffffffffffffffffffffffffffffff1673ffffffffffffffffffffffffffffffffffffffff16815260200190815260200160002060009054906101000a900460ff16905092915050565b611443611609565b73ffffffffffffffffffffffffffffffffffffffff16611461610cec565b73ffffffffffffffffffffffffffffffffffffffff16146114b7576040517f08c379a00000000000000000000000000000000000000000000000000000000081526004016114ae9061314f565b60405180910390fd5b600073ffffffffffffffffffffffffffffffffffffffff168173ffffffffffffffffffffffffffffffffffffffff161415611527576040517f08c379a000000000000000000000000000000000000000000000000000000000815260040161151e90612fcf565b60405180910390fd5b61153081611ef7565b50565b60007f01ffc9a7000000000000000000000000000000000000000000000000000000007bffffffffffffffffffffffffffffffffffffffffffffffffffffffff1916827bffffffffffffffffffffffffffffffffffffffffffffffffffffffff1916149050919050565b60008073ffffffffffffffffffffffffffffffffffffffff166002600084815260200190815260200160002060009054906101000a900473ffffffffffffffffffffffffffffffffffffffff1673ffffffffffffffffffffffffffffffffffffffff1614159050919050565b600033905090565b816004600083815260200190815260200160002060006101000a81548173ffffffffffffffffffffffffffffffffffffffff021916908373ffffffffffffffffffffffffffffffffffffffff160217905550808273ffffffffffffffffffffffffffffffffffffffff1661168483610afa565b73ffffffffffffffffffffffffffffffffffffffff167f8c5be1e5ebec7d5bd14f71427d1e84f3dd0314c0f7b2291e5b200ac8c7c3b92560405160405180910390a45050565b60006116d58261159d565b611714576040517f08c379a000000000000000000000000000000000000000000000000000000000815260040161170b9061304f565b60405180910390fd5b600061171f83610afa565b90508073ffffffffffffffffffffffffffffffffffffffff168473ffffffffffffffffffffffffffffffffffffffff16148061178e57508373ffffffffffffffffffffffffffffffffffffffff16611776846105d1565b73ffffffffffffffffffffffffffffffffffffffff16145b8061179f575061179e81856113a7565b5b91505092915050565b8273ffffffffffffffffffffffffffffffffffffffff166117c882610afa565b73ffffffffffffffffffffffffffffffffffffffff161461181e576040517f08c379a00000000000000000000000000000000000000000000000000000000081526004016118159061316f565b60405180910390fd5b600073ffffffffffffffffffffffffffffffffffffffff168273ffffffffffffffffffffffffffffffffffffffff16141561188e576040517f08c379a00000000000000000000000000000000000000000000000000000000081526004016118859061300f565b60405180910390fd5b6118998383836120d7565b6118a4600082611611565b6001600360008573ffffffffffffffffffffffffffffffffffffffff1673ffffffffffffffffffffffffffffffffffffffff16815260200190815260200160002060008282546118f49190613399565b925050819055506001600360008473ffffffffffffffffffffffffffffffffffffffff1673ffffffffffffffffffffffffffffffffffffffff168152602001908152602001600020600082825461194b91906132b8565b92505081905550816002600083815260200190815260200160002060006101000a81548173ffffffffffffffffffffffffffffffffffffffff021916908373ffffffffffffffffffffffffffffffffffffffff160217905550808273ffffffffffffffffffffffffffffffffffffffff168473ffffffffffffffffffffffffffffffffffffffff167fddf252ad1be2c89b69c2b068fc378daa952ba7f163c4a11628f55a4df523b3ef60405160405180910390a4505050565b6001816000016000828254019250508190555050565b600081600001549050919050565b60606000825190506000811415611a515760405180602001604052806000815250915050611be1565b60006003600283611a6291906132b8565b611a6c919061330e565b6004611a78919061333f565b90506000602082611a8991906132b8565b67ffffffffffffffff811115611ac8577f4e487b7100000000000000000000000000000000000000000000000000000000600052604160045260246000fd5b6040519080825280601f01601f191660200182016040528015611afa5781602001600182028036833780820191505090505b5090506000604051806060016040528060408152602001613d5f604091399050600181016020830160005b86811015611b9e5760038101905062ffffff818a015116603f8160121c168401518060081b905060ff603f83600c1c1686015116810190508060081b905060ff603f8360061c1686015116810190508060081b905060ff603f831686015116810190508060e01b90508084526004840193505050611b25565b506003860660018114611bb85760028114611bc857611bd3565b613d3d60f01b6002830352611bd3565b603d60f81b60018303525b508484525050819450505050505b919050565b611c008282604051806020016040528060008152506120dc565b5050565b611c0d8261159d565b611c4c576040517f08c379a0000000000000000000000000000000000000000000000000000000008152600401611c43906130cf565b60405180910390fd5b80600660008481526020019081526020016000209080519060200190611c739291906124d8565b505050565b611d12838383604051602401611c9093929190612f71565b6040516020818303038152906040527fe3849f79000000000000000000000000000000000000000000000000000000007bffffffffffffffffffffffffffffffffffffffffffffffffffffffff19166020820180517bffffffffffffffffffffffffffffffffffffffffffffffffffffffff8381831617835250505050612137565b505050565b60606000821415611d5f576040518060400160405280600181526020017f30000000000000000000000000000000000000000000000000000000000000008152509050611ebf565b600082905060005b60008214611d91578080611d7a906134e6565b915050600a82611d8a919061330e565b9150611d67565b60008167ffffffffffffffff811115611dd3577f4e487b7100000000000000000000000000000000000000000000000000000000600052604160045260246000fd5b6040519080825280601f01601f191660200182016040528015611e055781602001600182028036833780820191505090505b5090505b60008514611eb857600182611e1e9190613399565b9150600a85611e2d919061352f565b6030611e3991906132b8565b60f81b818381518110611e75577f4e487b7100000000000000000000000000000000000000000000000000000000600052603260045260246000fd5b60200101907effffffffffffffffffffffffffffffffffffffffffffffffffffffffffffff1916908160001a905350600a85611eb1919061330e565b9450611e09565b8093505050505b919050565b600081604051602001611ed79190612d4b565b6040516020818303038152906040528051906020012060001c9050919050565b6000600760009054906101000a900473ffffffffffffffffffffffffffffffffffffffff16905081600760006101000a81548173ffffffffffffffffffffffffffffffffffffffff021916908373ffffffffffffffffffffffffffffffffffffffff1602179055508173ffffffffffffffffffffffffffffffffffffffff168173ffffffffffffffffffffffffffffffffffffffff167f8be0079c531659141344cd1fd0a4f28419497f9722a3daafe3b4186f6b6457e060405160405180910390a35050565b611fc88484846117a8565b611fd484848484612160565b612013576040517f08c379a000000000000000000000000000000000000000000000000000000000815260040161200a90612faf565b60405180910390fd5b50505050565b606060405180602001604052806000815250905090565b606061203b8261159d565b61207a576040517f08c379a00000000000000000000000000000000000000000000000000000000081526004016120719061318f565b60405180910390fd5b6000612084612019565b905060008151116120a457604051806020016040528060008152506120cf565b806120ae84611d17565b6040516020016120bf929190612d62565b6040516020818303038152906040525b915050919050565b505050565b6120e683836122f7565b6120f36000848484612160565b612132576040517f08c379a000000000000000000000000000000000000000000000000000000000815260040161212990612faf565b60405180910390fd5b505050565b60008151905060006a636f6e736f6c652e6c6f679050602083016000808483855afa5050505050565b60006121818473ffffffffffffffffffffffffffffffffffffffff166124c5565b156122ea578373ffffffffffffffffffffffffffffffffffffffff1663150b7a026121aa611609565b8786866040518563ffffffff1660e01b81526004016121cc9493929190612ee8565b602060405180830381600087803b1580156121e657600080fd5b505af192505050801561221757506040513d601f19601f82011682018060405250810190612214919061281c565b60015b61229a573d8060008114612247576040519150601f19603f3d011682016040523d82523d6000602084013e61224c565b606091505b50600081511415612292576040517f08c379a000000000000000000000000000000000000000000000000000000000815260040161228990612faf565b60405180910390fd5b805181602001fd5b63150b7a0260e01b7bffffffffffffffffffffffffffffffffffffffffffffffffffffffff1916817bffffffffffffffffffffffffffffffffffffffffffffffffffffffff1916149150506122ef565b600190505b949350505050565b600073ffffffffffffffffffffffffffffffffffffffff168273ffffffffffffffffffffffffffffffffffffffff161415612367576040517f08c379a000000000000000000000000000000000000000000000000000000000815260040161235e906130ef565b60405180910390fd5b6123708161159d565b156123b0576040517f08c379a00000000000000000000000000000000000000000000000000000000081526004016123a790612fef565b60405180910390fd5b6123bc600083836120d7565b6001600360008473ffffffffffffffffffffffffffffffffffffffff1673ffffffffffffffffffffffffffffffffffffffff168152602001908152602001600020600082825461240c91906132b8565b92505081905550816002600083815260200190815260200160002060006101000a81548173ffffffffffffffffffffffffffffffffffffffff021916908373ffffffffffffffffffffffffffffffffffffffff160217905550808273ffffffffffffffffffffffffffffffffffffffff16600073ffffffffffffffffffffffffffffffffffffffff167fddf252ad1be2c89b69c2b068fc378daa952ba7f163c4a11628f55a4df523b3ef60405160405180910390a45050565b600080823b905060008111915050919050565b8280546124e490613483565b90600052602060002090601f016020900481019282612506576000855561254d565b82601f1061251f57805160ff191683800117855561254d565b8280016001018555821561254d579182015b8281111561254c578251825591602001919060010190612531565b5b50905061255a919061255e565b5090565b5b8082111561257757600081600090555060010161255f565b5090565b600061258e6125898461322f565b61320a565b9050828152602081018484840111156125a657600080fd5b6125b1848285613441565b509392505050565b6000813590506125c881613cdd565b92915050565b6000813590506125dd81613cf4565b92915050565b6000813590506125f281613d0b565b92915050565b60008151905061260781613d0b565b92915050565b600082601f83011261261e57600080fd5b813561262e84826020860161257b565b91505092915050565b60008135905061264681613d22565b92915050565b60006020828403121561265e57600080fd5b600061266c848285016125b9565b91505092915050565b6000806040838503121561268857600080fd5b6000612696858286016125b9565b92505060206126a7858286016125b9565b9150509250929050565b6000806000606084860312156126c657600080fd5b60006126d4868287016125b9565b93505060206126e5868287016125b9565b92505060406126f686828701612637565b9150509250925092565b6000806000806080858703121561271657600080fd5b6000612724878288016125b9565b9450506020612735878288016125b9565b935050604061274687828801612637565b925050606085013567ffffffffffffffff81111561276357600080fd5b61276f8782880161260d565b91505092959194509250565b6000806040838503121561278e57600080fd5b600061279c858286016125b9565b92505060206127ad858286016125ce565b9150509250929050565b600080604083850312156127ca57600080fd5b60006127d8858286016125b9565b92505060206127e985828601612637565b9150509250929050565b60006020828403121561280557600080fd5b6000612813848285016125e3565b91505092915050565b60006020828403121561282e57600080fd5b600061283c848285016125f8565b91505092915050565b60006020828403121561285757600080fd5b600061286584828501612637565b91505092915050565b612877816133cd565b82525050565b612886816133df565b82525050565b600061289782613275565b6128a1818561328b565b93506128b1818560208601613450565b6128ba8161361c565b840191505092915050565b60006128d082613280565b6128da818561329c565b93506128ea818560208601613450565b6128f38161361c565b840191505092915050565b600061290982613280565b61291381856132ad565b9350612923818560208601613450565b80840191505092915050565b6000815461293c81613483565b61294681866132ad565b945060018216600081146129615760018114612972576129a5565b60ff198316865281860193506129a5565b61297b85613260565b60005b8381101561299d5781548189015260018201915060208101905061297e565b838801955050505b50505092915050565b60006129bb60328361329c565b91506129c68261362d565b604082019050919050565b60006129de60268361329c565b91506129e98261367c565b604082019050919050565b6000612a01601c8361329c565b9150612a0c826136cb565b602082019050919050565b6000612a24600a836132ad565b9150612a2f826136f4565b600a82019050919050565b6000612a4760248361329c565b9150612a528261371d565b604082019050919050565b6000612a6a60198361329c565b9150612a758261376c565b602082019050919050565b6000612a8d600b836132ad565b9150612a9882613795565b600b82019050919050565b6000612ab0602c8361329c565b9150612abb826137be565b604082019050919050565b6000612ad3600d836132ad565b9150612ade8261380d565b600d82019050919050565b6000612af660388361329c565b9150612b0182613836565b604082019050919050565b6000612b19602a8361329c565b9150612b2482613885565b604082019050919050565b6000612b3c60298361329c565b9150612b47826138d4565b604082019050919050565b6000612b5f602e8361329c565b9150612b6a82613923565b604082019050919050565b6000612b826002836132ad565b9150612b8d82613972565b600282019050919050565b6000612ba560208361329c565b9150612bb08261399b565b602082019050919050565b6000612bc860318361329c565b9150612bd3826139c4565b604082019050919050565b6000612beb602c8361329c565b9150612bf682613a13565b604082019050919050565b6000612c0e60208361329c565b9150612c1982613a62565b602082019050919050565b6000612c3160298361329c565b9150612c3c82613a8b565b604082019050919050565b6000612c54602f8361329c565b9150612c5f82613ada565b604082019050919050565b6000612c77600a836132ad565b9150612c8282613b29565b600a82019050919050565b6000612c9a60218361329c565b9150612ca582613b52565b604082019050919050565b6000612cbd600a836132ad565b9150612cc882613ba1565b600a82019050919050565b6000612ce0601d836132ad565b9150612ceb82613bca565b601d82019050919050565b6000612d0360318361329c565b9150612d0e82613bf3565b604082019050919050565b6000612d266068836132ad565b9150612d3182613c42565b606882019050919050565b612d4581613437565b82525050565b6000612d5782846128fe565b915081905092915050565b6000612d6e82856128fe565b9150612d7a82846128fe565b91508190509392505050565b6000612d9282866128fe565b9150612d9e82856128fe565b9150612daa82846128fe565b9150819050949350505050565b6000612dc3828761292f565b9150612dcf82866128fe565b9150612ddb82856128fe565b9150612de782846128fe565b9150612df282612ac6565b915081905095945050505050565b6000612e0b82612a17565b9150612e1782846128fe565b915081905092915050565b6000612e2d82612a80565b9150612e3982846128fe565b915081905092915050565b6000612e4f82612c6a565b9150612e5b82856128fe565b9150612e6682612d19565b9150612e7282846128fe565b9150612e7d82612b75565b91508190509392505050565b6000612e9482612cb0565b9150612ea082846128fe565b915081905092915050565b6000612eb682612cd3565b9150612ec282846128fe565b915081905092915050565b6000602082019050612ee2600083018461286e565b92915050565b6000608082019050612efd600083018761286e565b612f0a602083018661286e565b612f176040830185612d3c565b8181036060830152612f29818461288c565b905095945050505050565b6000602082019050612f49600083018461287d565b92915050565b60006020820190508181036000830152612f6981846128c5565b905092915050565b60006060820190508181036000830152612f8b81866128c5565b9050612f9a6020830185612d3c565b612fa7604083018461286e565b949350505050565b60006020820190508181036000830152612fc8816129ae565b9050919050565b60006020820190508181036000830152612fe8816129d1565b9050919050565b60006020820190508181036000830152613008816129f4565b9050919050565b6000602082019050818103600083015261302881612a3a565b9050919050565b6000602082019050818103600083015261304881612a5d565b9050919050565b6000602082019050818103600083015261306881612aa3565b9050919050565b6000602082019050818103600083015261308881612ae9565b9050919050565b600060208201905081810360008301526130a881612b0c565b9050919050565b600060208201905081810360008301526130c881612b2f565b9050919050565b600060208201905081810360008301526130e881612b52565b9050919050565b6000602082019050818103600083015261310881612b98565b9050919050565b6000602082019050818103600083015261312881612bbb565b9050919050565b6000602082019050818103600083015261314881612bde565b9050919050565b6000602082019050818103600083015261316881612c01565b9050919050565b6000602082019050818103600083015261318881612c24565b9050919050565b600060208201905081810360008301526131a881612c47565b9050919050565b600060208201905081810360008301526131c881612c8d565b9050919050565b600060208201905081810360008301526131e881612cf6565b9050919050565b60006020820190506132046000830184612d3c565b92915050565b6000613214613225565b905061322082826134b5565b919050565b6000604051905090565b600067ffffffffffffffff82111561324a576132496135ed565b5b6132538261361c565b9050602081019050919050565b60008190508160005260206000209050919050565b600081519050919050565b600081519050919050565b600082825260208201905092915050565b600082825260208201905092915050565b600081905092915050565b60006132c382613437565b91506132ce83613437565b9250827fffffffffffffffffffffffffffffffffffffffffffffffffffffffffffffffff0382111561330357613302613560565b5b828201905092915050565b600061331982613437565b915061332483613437565b9250826133345761333361358f565b5b828204905092915050565b600061334a82613437565b915061335583613437565b9250817fffffffffffffffffffffffffffffffffffffffffffffffffffffffffffffffff048311821515161561338e5761338d613560565b5b828202905092915050565b60006133a482613437565b91506133af83613437565b9250828210156133c2576133c1613560565b5b828203905092915050565b60006133d882613417565b9050919050565b60008115159050919050565b60007fffffffff0000000000000000000000000000000000000000000000000000000082169050919050565b600073ffffffffffffffffffffffffffffffffffffffff82169050919050565b6000819050919050565b82818337600083830152505050565b60005b8381101561346e578082015181840152602081019050613453565b8381111561347d576000848401525b50505050565b6000600282049050600182168061349b57607f821691505b602082108114156134af576134ae6135be565b5b50919050565b6134be8261361c565b810181811067ffffffffffffffff821117156134dd576134dc6135ed565b5b80604052505050565b60006134f182613437565b91507fffffffffffffffffffffffffffffffffffffffffffffffffffffffffffffffff82141561352457613523613560565b5b600182019050919050565b600061353a82613437565b915061354583613437565b9250826135555761355461358f565b5b828206905092915050565b7f4e487b7100000000000000000000000000000000000000000000000000000000600052601160045260246000fd5b7f4e487b7100000000000000000000000000000000000000000000000000000000600052601260045260246000fd5b7f4e487b7100000000000000000000000000000000000000000000000000000000600052602260045260246000fd5b7f4e487b7100000000000000000000000000000000000000000000000000000000600052604160045260246000fd5b6000601f19601f8301169050919050565b7f4552433732313a207472616e7366657220746f206e6f6e20455243373231526560008201527f63656976657220696d706c656d656e7465720000000000000000000000000000602082015250565b7f4f776e61626c653a206e6577206f776e657220697320746865207a65726f206160008201527f6464726573730000000000000000000000000000000000000000000000000000602082015250565b7f4552433732313a20746f6b656e20616c7265616479206d696e74656400000000600082015250565b7f54484952445f574f524400000000000000000000000000000000000000000000600082015250565b7f4552433732313a207472616e7366657220746f20746865207a65726f2061646460008201527f7265737300000000000000000000000000000000000000000000000000000000602082015250565b7f4552433732313a20617070726f766520746f2063616c6c657200000000000000600082015250565b7f5345434f4e445f574f5244000000000000000000000000000000000000000000600082015250565b7f4552433732313a206f70657261746f7220717565727920666f72206e6f6e657860008201527f697374656e7420746f6b656e0000000000000000000000000000000000000000602082015250565b7f3c2f746578743e3c2f7376673e00000000000000000000000000000000000000600082015250565b7f4552433732313a20617070726f76652063616c6c6572206973206e6f74206f7760008201527f6e6572206e6f7220617070726f76656420666f7220616c6c0000000000000000602082015250565b7f4552433732313a2062616c616e636520717565727920666f7220746865207a6560008201527f726f206164647265737300000000000000000000000000000000000000000000602082015250565b7f4552433732313a206f776e657220717565727920666f72206e6f6e657869737460008201527f656e7420746f6b656e0000000000000000000000000000000000000000000000602082015250565b7f45524337323155524953746f726167653a2055524920736574206f66206e6f6e60008201527f6578697374656e7420746f6b656e000000000000000000000000000000000000602082015250565b7f227d000000000000000000000000000000000000000000000000000000000000600082015250565b7f4552433732313a206d696e7420746f20746865207a65726f2061646472657373600082015250565b7f45524337323155524953746f726167653a2055524920717565727920666f722060008201527f6e6f6e6578697374656e7420746f6b656e000000000000000000000000000000602082015250565b7f4552433732313a20617070726f76656420717565727920666f72206e6f6e657860008201527f697374656e7420746f6b656e0000000000000000000000000000000000000000602082015250565b7f4f776e61626c653a2063616c6c6572206973206e6f7420746865206f776e6572600082015250565b7f4552433732313a207472616e73666572206f6620746f6b656e2074686174206960008201527f73206e6f74206f776e0000000000000000000000000000000000000000000000602082015250565b7f4552433732314d657461646174613a2055524920717565727920666f72206e6f60008201527f6e6578697374656e7420746f6b656e0000000000000000000000000000000000602082015250565b7f7b226e616d65223a202200000000000000000000000000000000000000000000600082015250565b7f4552433732313a20617070726f76616c20746f2063757272656e74206f776e6560008201527f7200000000000000000000000000000000000000000000000000000000000000602082015250565b7f46495253545f574f524400000000000000000000000000000000000000000000600082015250565b7f646174613a6170706c69636174696f6e2f6a736f6e3b6261736536342c000000600082015250565b7f4552433732313a207472616e736665722063616c6c6572206973206e6f74206f60008201527f776e6572206e6f7220617070726f766564000000000000000000000000000000602082015250565b7f222c20226465736372697074696f6e223a20224120686967686c79206163636c60008201527f61696d656420636f6c6c656374696f6e20457465726e616c2057617272696f7260208201527f73222c2022696d616765223a2022646174613a696d6167652f7376672b786d6c60408201527f3b6261736536342c000000000000000000000000000000000000000000000000606082015250565b613ce6816133cd565b8114613cf157600080fd5b50565b613cfd816133df565b8114613d0857600080fd5b50565b613d14816133eb565b8114613d1f57600080fd5b50565b613d2b81613437565b8114613d3657600080fd5b5056fe416e204e465420772f20494420257320686173206265656e206d696e74656420746f2025734142434445464748494a4b4c4d4e4f505152535455565758595a6162636465666768696a6b6c6d6e6f707172737475767778797a303132333435363738392b2fa26469706673582212205ef942272d444714dfe8a4a1014d9bff9aa5de1007d080bcd544a7093f7a45e464736f6c634300080400333c73766720786d6c6e733d27687474703a2f2f7777772e77332e6f72672f323030302f73766727207072657365727665417370656374526174696f3d27784d696e594d696e206d656574272076696577426f783d273020302033353020333530273e3c7374796c653e2e62617365207b2066696c6c3a2077686974653b20666f6e742d66616d696c793a2073657269663b20666f6e742d73697a653a20323470783b207d3c2f7374796c653e3c726563742077696474683d273130302527206865696768743d2731303025272066696c6c3d27626c61636b27202f3e3c7465787420783d273530252720793d273530252720636c6173733d27626173652720646f6d696e616e742d626173656c696e653d276d6964646c652720746578742d616e63686f723d276d6964646c65273e",
  "linkReferences": {},
  "deployedLinkReferences": {}
}