{
	"_format": "hh-sol-artifact-1",
	"contractName": "EternalMarketplace",
	"sourceName": "contracts/EternalMarketplace.sol",
	"abi": [
		{
			"inputs": [],
			"stateMutability": "nonpayable",
			"type": "constructor"
		},
		{
			"anonymous": false,
			"inputs": [
				{
					"indexed": true,
					"internalType": "uint256",
					"name": "itemId",
					"type": "uint256"
				},
				{
					"indexed": true,
					"internalType": "address",
					"name": "nftContract",
					"type": "address"
				},
				{
					"indexed": true,
					"internalType": "uint256",
					"name": "tokenId",
					"type": "uint256"
				},
				{
					"indexed": false,
					"internalType": "address",
					"name": "seller",
					"type": "address"
				},
				{
					"indexed": false,
					"internalType": "address",
					"name": "owner",
					"type": "address"
				},
				{
					"indexed": false,
					"internalType": "uint256",
					"name": "price",
					"type": "uint256"
				},
				{
					"indexed": false,
					"internalType": "bool",
					"name": "sold",
					"type": "bool"
				}
			],
			"name": "EternalItemCreated",
			"type": "event"
		},
		{
			"inputs": [
				{
					"internalType": "address",
					"name": "nftContract",
					"type": "address"
				},
				{
					"internalType": "uint256",
					"name": "itemId",
					"type": "uint256"
				}
			],
			"name": "createEternalItemSale",
			"outputs": [],
			"stateMutability": "payable",
			"type": "function"
		},
		{
			"inputs": [
				{
					"internalType": "address",
					"name": "nftContract",
					"type": "address"
				},
				{
					"internalType": "uint256",
					"name": "tokenId",
					"type": "uint256"
				},
				{
					"internalType": "uint256",
					"name": "price",
					"type": "uint256"
				}
			],
			"name": "createEternalMarketItem",
			"outputs": [],
			"stateMutability": "payable",
			"type": "function"
		},
		{
			"inputs": [],
			"name": "fetchEternalItems",
			"outputs": [
				{
					"components": [
						{
							"internalType": "uint256",
							"name": "itemId",
							"type": "uint256"
						},
						{
							"internalType": "address",
							"name": "nftContract",
							"type": "address"
						},
						{
							"internalType": "uint256",
							"name": "tokenId",
							"type": "uint256"
						},
						{
							"internalType": "address payable",
							"name": "seller",
							"type": "address"
						},
						{
							"internalType": "address payable",
							"name": "owner",
							"type": "address"
						},
						{
							"internalType": "uint256",
							"name": "price",
							"type": "uint256"
						},
						{
							"internalType": "bool",
							"name": "sold",
							"type": "bool"
						}
					],
					"internalType": "struct EternalMarketplace.EternalItem[]",
					"name": "",
					"type": "tuple[]"
				}
			],
			"stateMutability": "view",
			"type": "function"
		},
		{
			"inputs": [],
			"name": "fetchMyEternalItems",
			"outputs": [
				{
					"components": [
						{
							"internalType": "uint256",
							"name": "itemId",
							"type": "uint256"
						},
						{
							"internalType": "address",
							"name": "nftContract",
							"type": "address"
						},
						{
							"internalType": "uint256",
							"name": "tokenId",
							"type": "uint256"
						},
						{
							"internalType": "address payable",
							"name": "seller",
							"type": "address"
						},
						{
							"internalType": "address payable",
							"name": "owner",
							"type": "address"
						},
						{
							"internalType": "uint256",
							"name": "price",
							"type": "uint256"
						},
						{
							"internalType": "bool",
							"name": "sold",
							"type": "bool"
						}
					],
					"internalType": "struct EternalMarketplace.EternalItem[]",
					"name": "",
					"type": "tuple[]"
				}
			],
			"stateMutability": "view",
			"type": "function"
		},
		{
			"inputs": [],
			"name": "getListingPrice",
			"outputs": [
				{
					"internalType": "uint256",
					"name": "",
					"type": "uint256"
				}
			],
			"stateMutability": "view",
			"type": "function"
		}
	],
	"bytecode": "0x6080604052662386f26fc1000060045534801561001b57600080fd5b50600160008190555033600360006101000a81548173ffffffffffffffffffffffffffffffffffffffff021916908373ffffffffffffffffffffffffffffffffffffffff160217905550611529806100746000396000f3fe60806040526004361061004a5760003560e01c806312e855851461004f5780631856f2141461007a578063694fb48e1461009657806388573c20146100c1578063b5ab8e8b146100ec575b600080fd5b34801561005b57600080fd5b50610064610108565b6040516100719190611214565b60405180910390f35b610094600480360381019061008f9190610e72565b610112565b005b3480156100a257600080fd5b506100ab6103cb565b6040516100b89190611172565b60405180910390f35b3480156100cd57600080fd5b506100d6610741565b6040516100e39190611172565b60405180910390f35b61010660048036038101906101019190610eae565b610a3f565b005b6000600454905090565b60026000541415610158576040517f08c379a000000000000000000000000000000000000000000000000000000000815260040161014f906111d4565b60405180910390fd5b60026000819055506000600560008381526020019081526020016000206002015490506000600560008481526020019081526020016000206005015490508034146101d8576040517f08c379a00000000000000000000000000000000000000000000000000000000081526004016101cf90611194565b60405180910390fd5b6005600084815260200190815260200160002060030160009054906101000a900473ffffffffffffffffffffffffffffffffffffffff1673ffffffffffffffffffffffffffffffffffffffff166108fc349081150290604051600060405180830381858888f19350505050158015610254573d6000803e3d6000fd5b508373ffffffffffffffffffffffffffffffffffffffff166323b872dd3033856040518463ffffffff1660e01b8152600401610292939291906110f6565b600060405180830381600087803b1580156102ac57600080fd5b505af11580156102c0573d6000803e3d6000fd5b50505050336005600085815260200190815260200160002060040160006101000a81548173ffffffffffffffffffffffffffffffffffffffff021916908373ffffffffffffffffffffffffffffffffffffffff16021790555060016005600085815260200190815260200160002060060160006101000a81548160ff0219169083151502179055506103526002610da3565b600360009054906101000a900473ffffffffffffffffffffffffffffffffffffffff1673ffffffffffffffffffffffffffffffffffffffff166108fc6004549081150290604051600060405180830381858888f193505050501580156103bc573d6000803e3d6000fd5b50505060016000819055505050565b606060006103d96001610db9565b905060008060005b83811015610476573373ffffffffffffffffffffffffffffffffffffffff166005600083815260200190815260200160002060040160009054906101000a900473ffffffffffffffffffffffffffffffffffffffff1673ffffffffffffffffffffffffffffffffffffffff161415610463576001836104609190611279565b92505b808061046e9061135d565b9150506103e1565b5060008267ffffffffffffffff8111156104b9577f4e487b7100000000000000000000000000000000000000000000000000000000600052604160045260246000fd5b6040519080825280602002602001820160405280156104f257816020015b6104df610dc7565b8152602001906001900390816104d75790505b50905060005b84811015610736573373ffffffffffffffffffffffffffffffffffffffff166005600083815260200190815260200160002060040160009054906101000a900473ffffffffffffffffffffffffffffffffffffffff1673ffffffffffffffffffffffffffffffffffffffff1614156107235760008190506000600560008381526020019081526020016000209050806040518060e0016040529081600082015481526020016001820160009054906101000a900473ffffffffffffffffffffffffffffffffffffffff1673ffffffffffffffffffffffffffffffffffffffff1673ffffffffffffffffffffffffffffffffffffffff168152602001600282015481526020016003820160009054906101000a900473ffffffffffffffffffffffffffffffffffffffff1673ffffffffffffffffffffffffffffffffffffffff1673ffffffffffffffffffffffffffffffffffffffff1681526020016004820160009054906101000a900473ffffffffffffffffffffffffffffffffffffffff1673ffffffffffffffffffffffffffffffffffffffff1673ffffffffffffffffffffffffffffffffffffffff168152602001600582015481526020016006820160009054906101000a900460ff161515151581525050848681518110610706577f4e487b7100000000000000000000000000000000000000000000000000000000600052603260045260246000fd5b602002602001018190525060018561071e9190611279565b945050505b808061072e9061135d565b9150506104f8565b508094505050505090565b6060600061074f6001610db9565b9050600061075d6002610db9565b6107676001610db9565b61077191906112cf565b90506000808267ffffffffffffffff8111156107b6577f4e487b7100000000000000000000000000000000000000000000000000000000600052604160045260246000fd5b6040519080825280602002602001820160405280156107ef57816020015b6107dc610dc7565b8152602001906001900390816107d45790505b50905060005b84811015610a3457600073ffffffffffffffffffffffffffffffffffffffff166005600083815260200190815260200160002060040160009054906101000a900473ffffffffffffffffffffffffffffffffffffffff1673ffffffffffffffffffffffffffffffffffffffff161415610a215760008190506000600560008381526020019081526020016000209050806040518060e0016040529081600082015481526020016001820160009054906101000a900473ffffffffffffffffffffffffffffffffffffffff1673ffffffffffffffffffffffffffffffffffffffff1673ffffffffffffffffffffffffffffffffffffffff168152602001600282015481526020016003820160009054906101000a900473ffffffffffffffffffffffffffffffffffffffff1673ffffffffffffffffffffffffffffffffffffffff1673ffffffffffffffffffffffffffffffffffffffff1681526020016004820160009054906101000a900473ffffffffffffffffffffffffffffffffffffffff1673ffffffffffffffffffffffffffffffffffffffff1673ffffffffffffffffffffffffffffffffffffffff168152602001600582015481526020016006820160009054906101000a900460ff161515151581525050848681518110610a04577f4e487b7100000000000000000000000000000000000000000000000000000000600052603260045260246000fd5b6020026020010181905250600185610a1c9190611279565b945050505b8080610a2c9061135d565b9150506107f5565b508094505050505090565b60026000541415610a85576040517f08c379a0000000000000000000000000000000000000000000000000000000008152600401610a7c906111d4565b60405180910390fd5b600260008190555060008111610ad0576040517f08c379a0000000000000000000000000000000000000000000000000000000008152600401610ac7906111f4565b60405180910390fd5b6004543414610b14576040517f08c379a0000000000000000000000000000000000000000000000000000000008152600401610b0b906111b4565b60405180910390fd5b6000610b206001610db9565b90506040518060e001604052808281526020018573ffffffffffffffffffffffffffffffffffffffff1681526020018481526020013373ffffffffffffffffffffffffffffffffffffffff168152602001600073ffffffffffffffffffffffffffffffffffffffff16815260200183815260200160001515815250600560008381526020019081526020016000206000820151816000015560208201518160010160006101000a81548173ffffffffffffffffffffffffffffffffffffffff021916908373ffffffffffffffffffffffffffffffffffffffff1602179055506040820151816002015560608201518160030160006101000a81548173ffffffffffffffffffffffffffffffffffffffff021916908373ffffffffffffffffffffffffffffffffffffffff16021790555060808201518160040160006101000a81548173ffffffffffffffffffffffffffffffffffffffff021916908373ffffffffffffffffffffffffffffffffffffffff16021790555060a0820151816005015560c08201518160060160006101000a81548160ff0219169083151502179055509050508373ffffffffffffffffffffffffffffffffffffffff166323b872dd3330866040518463ffffffff1660e01b8152600401610d01939291906110f6565b600060405180830381600087803b158015610d1b57600080fd5b505af1158015610d2f573d6000803e3d6000fd5b50505050610d3d6001610da3565b828473ffffffffffffffffffffffffffffffffffffffff16827f143fc6df1a85056043e9a689326cca21cf79f348fa86fde2cf882f2a0415fa13336000876000604051610d8d949392919061112d565b60405180910390a4506001600081905550505050565b6001816000016000828254019250508190555050565b600081600001549050919050565b6040518060e0016040528060008152602001600073ffffffffffffffffffffffffffffffffffffffff16815260200160008152602001600073ffffffffffffffffffffffffffffffffffffffff168152602001600073ffffffffffffffffffffffffffffffffffffffff168152602001600081526020016000151581525090565b600081359050610e57816114c5565b92915050565b600081359050610e6c816114dc565b92915050565b60008060408385031215610e8557600080fd5b6000610e9385828601610e48565b9250506020610ea485828601610e5d565b9150509250929050565b600080600060608486031215610ec357600080fd5b6000610ed186828701610e48565b9350506020610ee286828701610e5d565b9250506040610ef386828701610e5d565b9150509250925092565b6000610f09838361104a565b60e08301905092915050565b610f1e81611315565b82525050565b610f2d81611303565b82525050565b610f3c81611303565b82525050565b6000610f4d8261123f565b610f578185611257565b9350610f628361122f565b8060005b83811015610f93578151610f7a8882610efd565b9750610f858361124a565b925050600181019050610f66565b5085935050505092915050565b610fa981611327565b82525050565b610fb881611327565b82525050565b6000610fcb603f83611268565b9150610fd6826113d5565b604082019050919050565b6000610fee602483611268565b9150610ff982611424565b604082019050919050565b6000611011601f83611268565b915061101c82611473565b602082019050919050565b6000611034601c83611268565b915061103f8261149c565b602082019050919050565b60e08201600082015161106060008501826110d8565b5060208201516110736020850182610f24565b50604082015161108660408501826110d8565b5060608201516110996060850182610f15565b5060808201516110ac6080850182610f15565b5060a08201516110bf60a08501826110d8565b5060c08201516110d260c0850182610fa0565b50505050565b6110e181611353565b82525050565b6110f081611353565b82525050565b600060608201905061110b6000830186610f33565b6111186020830185610f33565b61112560408301846110e7565b949350505050565b60006080820190506111426000830187610f33565b61114f6020830186610f33565b61115c60408301856110e7565b6111696060830184610faf565b95945050505050565b6000602082019050818103600083015261118c8184610f42565b905092915050565b600060208201905081810360008301526111ad81610fbe565b9050919050565b600060208201905081810360008301526111cd81610fe1565b9050919050565b600060208201905081810360008301526111ed81611004565b9050919050565b6000602082019050818103600083015261120d81611027565b9050919050565b600060208201905061122960008301846110e7565b92915050565b6000819050602082019050919050565b600081519050919050565b6000602082019050919050565b600082825260208201905092915050565b600082825260208201905092915050565b600061128482611353565b915061128f83611353565b9250827fffffffffffffffffffffffffffffffffffffffffffffffffffffffffffffffff038211156112c4576112c36113a6565b5b828201905092915050565b60006112da82611353565b91506112e583611353565b9250828210156112f8576112f76113a6565b5b828203905092915050565b600061130e82611333565b9050919050565b600061132082611333565b9050919050565b60008115159050919050565b600073ffffffffffffffffffffffffffffffffffffffff82169050919050565b6000819050919050565b600061136882611353565b91507fffffffffffffffffffffffffffffffffffffffffffffffffffffffffffffffff82141561139b5761139a6113a6565b5b600182019050919050565b7f4e487b7100000000000000000000000000000000000000000000000000000000600052601160045260246000fd5b7f506c65617365207375626d6974207468652061736b656420707269636520696e60008201527f206f7264657220746f20636f6d706c6574652074686520707572636861736500602082015250565b7f5072696365206d75737420626520657175616c20746f206c697374696e67207060008201527f7269636500000000000000000000000000000000000000000000000000000000602082015250565b7f5265656e7472616e637947756172643a207265656e7472616e742063616c6c00600082015250565b7f5072696365206d7573742062652067726561746572207468616e203000000000600082015250565b6114ce81611303565b81146114d957600080fd5b50565b6114e581611353565b81146114f057600080fd5b5056fea2646970667358221220e6d49347c68a65cf5857aeb1eca7fe9b9fcff7b8f0449c54dc6616c1ab580a8264736f6c63430008040033",
	"linkReferences": {},
	"deployedLinkReferences": {}
}