{
  "_format": "hh-sol-artifact-1",
  "contractName": "EternalMarketplace",
  "sourceName": "contracts/EternalMarketplace.sol",
  "abi": [
    {
      "inputs": [],
      "stateMutability": "nonpayable",
      "type": "constructor"
    },
    {
      "anonymous": false,
      "inputs": [
        {
          "indexed": true,
          "internalType": "uint256",
          "name": "itemId",
          "type": "uint256"
        },
        {
          "indexed": true,
          "internalType": "address",
          "name": "nftContract",
          "type": "address"
        },
        {
          "indexed": true,
          "internalType": "uint256",
          "name": "tokenId",
          "type": "uint256"
        },
        {
          "indexed": false,
          "internalType": "address",
          "name": "seller",
          "type": "address"
        },
        {
          "indexed": false,
          "internalType": "address",
          "name": "owner",
          "type": "address"
        },
        {
          "indexed": false,
          "internalType": "uint256",
          "name": "price",
          "type": "uint256"
        },
        {
          "indexed": false,
          "internalType": "bool",
          "name": "sold",
          "type": "bool"
        }
      ],
      "name": "EternalItemCreated",
      "type": "event"
    },
    {
      "inputs": [
        {
          "internalType": "address",
          "name": "nftContract",
          "type": "address"
        },
        {
          "internalType": "uint256",
          "name": "itemId",
          "type": "uint256"
        }
      ],
      "name": "createEternalItemSale",
      "outputs": [],
      "stateMutability": "payable",
      "type": "function"
    },
    {
      "inputs": [
        {
          "internalType": "address",
          "name": "nftContract",
          "type": "address"
        },
        {
          "internalType": "uint256",
          "name": "tokenId",
          "type": "uint256"
        },
        {
          "internalType": "uint256",
          "name": "price",
          "type": "uint256"
        }
      ],
      "name": "createEternalMarketItem",
      "outputs": [],
      "stateMutability": "payable",
      "type": "function"
    },
    {
      "inputs": [],
      "name": "fetchEternalItems",
      "outputs": [
        {
          "components": [
            {
              "internalType": "uint256",
              "name": "itemId",
              "type": "uint256"
            },
            {
              "internalType": "address",
              "name": "nftContract",
              "type": "address"
            },
            {
              "internalType": "uint256",
              "name": "tokenId",
              "type": "uint256"
            },
            {
              "internalType": "address payable",
              "name": "seller",
              "type": "address"
            },
            {
              "internalType": "address payable",
              "name": "owner",
              "type": "address"
            },
            {
              "internalType": "uint256",
              "name": "price",
              "type": "uint256"
            },
            {
              "internalType": "bool",
              "name": "sold",
              "type": "bool"
            }
          ],
          "internalType": "struct EternalMarketplace.EternalItem[]",
          "name": "",
          "type": "tuple[]"
        }
      ],
      "stateMutability": "view",
      "type": "function"
    },
    {
      "inputs": [],
      "name": "fetchItemsCreated",
      "outputs": [
        {
          "components": [
            {
              "internalType": "uint256",
              "name": "itemId",
              "type": "uint256"
            },
            {
              "internalType": "address",
              "name": "nftContract",
              "type": "address"
            },
            {
              "internalType": "uint256",
              "name": "tokenId",
              "type": "uint256"
            },
            {
              "internalType": "address payable",
              "name": "seller",
              "type": "address"
            },
            {
              "internalType": "address payable",
              "name": "owner",
              "type": "address"
            },
            {
              "internalType": "uint256",
              "name": "price",
              "type": "uint256"
            },
            {
              "internalType": "bool",
              "name": "sold",
              "type": "bool"
            }
          ],
          "internalType": "struct EternalMarketplace.EternalItem[]",
          "name": "",
          "type": "tuple[]"
        }
      ],
      "stateMutability": "view",
      "type": "function"
    },
    {
      "inputs": [],
      "name": "fetchMyEternalItems",
      "outputs": [
        {
          "components": [
            {
              "internalType": "uint256",
              "name": "itemId",
              "type": "uint256"
            },
            {
              "internalType": "address",
              "name": "nftContract",
              "type": "address"
            },
            {
              "internalType": "uint256",
              "name": "tokenId",
              "type": "uint256"
            },
            {
              "internalType": "address payable",
              "name": "seller",
              "type": "address"
            },
            {
              "internalType": "address payable",
              "name": "owner",
              "type": "address"
            },
            {
              "internalType": "uint256",
              "name": "price",
              "type": "uint256"
            },
            {
              "internalType": "bool",
              "name": "sold",
              "type": "bool"
            }
          ],
          "internalType": "struct EternalMarketplace.EternalItem[]",
          "name": "",
          "type": "tuple[]"
        }
      ],
      "stateMutability": "view",
      "type": "function"
    },
    {
      "inputs": [],
      "name": "getListingPrice",
      "outputs": [
        {
          "internalType": "uint256",
          "name": "",
          "type": "uint256"
        }
      ],
      "stateMutability": "view",
      "type": "function"
    }
  ],
  "bytecode": "0x6080604052662386f26fc1000060045534801561001b57600080fd5b50600160008190555033600360006101000a81548173ffffffffffffffffffffffffffffffffffffffff021916908373ffffffffffffffffffffffffffffffffffffffff1602179055506118d5806100746000396000f3fe6080604052600436106100555760003560e01c806312e855851461005a5780631856f21414610085578063694fb48e146100a157806388573c20146100cc578063b5ab8e8b146100f7578063f064c32e14610113575b600080fd5b34801561006657600080fd5b5061006f61013e565b60405161007c91906115c0565b60405180910390f35b61009f600480360381019061009a919061121e565b610148565b005b3480156100ad57600080fd5b506100b6610401565b6040516100c3919061151e565b60405180910390f35b3480156100d857600080fd5b506100e1610777565b6040516100ee919061151e565b60405180910390f35b610111600480360381019061010c919061125a565b610a75565b005b34801561011f57600080fd5b50610128610dd9565b604051610135919061151e565b60405180910390f35b6000600454905090565b6002600054141561018e576040517f08c379a000000000000000000000000000000000000000000000000000000000815260040161018590611580565b60405180910390fd5b600260008190555060006005600083815260200190815260200160002060020154905060006005600084815260200190815260200160002060050154905080341461020e576040517f08c379a000000000000000000000000000000000000000000000000000000000815260040161020590611540565b60405180910390fd5b6005600084815260200190815260200160002060030160009054906101000a900473ffffffffffffffffffffffffffffffffffffffff1673ffffffffffffffffffffffffffffffffffffffff166108fc349081150290604051600060405180830381858888f1935050505015801561028a573d6000803e3d6000fd5b508373ffffffffffffffffffffffffffffffffffffffff166323b872dd3033856040518463ffffffff1660e01b81526004016102c8939291906114a2565b600060405180830381600087803b1580156102e257600080fd5b505af11580156102f6573d6000803e3d6000fd5b50505050336005600085815260200190815260200160002060040160006101000a81548173ffffffffffffffffffffffffffffffffffffffff021916908373ffffffffffffffffffffffffffffffffffffffff16021790555060016005600085815260200190815260200160002060060160006101000a81548160ff021916908315150217905550610388600261114f565b600360009054906101000a900473ffffffffffffffffffffffffffffffffffffffff1673ffffffffffffffffffffffffffffffffffffffff166108fc6004549081150290604051600060405180830381858888f193505050501580156103f2573d6000803e3d6000fd5b50505060016000819055505050565b6060600061040f6001611165565b905060008060005b838110156104ac573373ffffffffffffffffffffffffffffffffffffffff166005600083815260200190815260200160002060040160009054906101000a900473ffffffffffffffffffffffffffffffffffffffff1673ffffffffffffffffffffffffffffffffffffffff161415610499576001836104969190611625565b92505b80806104a490611709565b915050610417565b5060008267ffffffffffffffff8111156104ef577f4e487b7100000000000000000000000000000000000000000000000000000000600052604160045260246000fd5b60405190808252806020026020018201604052801561052857816020015b610515611173565b81526020019060019003908161050d5790505b50905060005b8481101561076c573373ffffffffffffffffffffffffffffffffffffffff166005600083815260200190815260200160002060040160009054906101000a900473ffffffffffffffffffffffffffffffffffffffff1673ffffffffffffffffffffffffffffffffffffffff1614156107595760008190506000600560008381526020019081526020016000209050806040518060e0016040529081600082015481526020016001820160009054906101000a900473ffffffffffffffffffffffffffffffffffffffff1673ffffffffffffffffffffffffffffffffffffffff1673ffffffffffffffffffffffffffffffffffffffff168152602001600282015481526020016003820160009054906101000a900473ffffffffffffffffffffffffffffffffffffffff1673ffffffffffffffffffffffffffffffffffffffff1673ffffffffffffffffffffffffffffffffffffffff1681526020016004820160009054906101000a900473ffffffffffffffffffffffffffffffffffffffff1673ffffffffffffffffffffffffffffffffffffffff1673ffffffffffffffffffffffffffffffffffffffff168152602001600582015481526020016006820160009054906101000a900460ff16151515158152505084868151811061073c577f4e487b7100000000000000000000000000000000000000000000000000000000600052603260045260246000fd5b60200260200101819052506001856107549190611625565b945050505b808061076490611709565b91505061052e565b508094505050505090565b606060006107856001611165565b905060006107936002611165565b61079d6001611165565b6107a7919061167b565b90506000808267ffffffffffffffff8111156107ec577f4e487b7100000000000000000000000000000000000000000000000000000000600052604160045260246000fd5b60405190808252806020026020018201604052801561082557816020015b610812611173565b81526020019060019003908161080a5790505b50905060005b84811015610a6a57600073ffffffffffffffffffffffffffffffffffffffff166005600083815260200190815260200160002060040160009054906101000a900473ffffffffffffffffffffffffffffffffffffffff1673ffffffffffffffffffffffffffffffffffffffff161415610a575760008190506000600560008381526020019081526020016000209050806040518060e0016040529081600082015481526020016001820160009054906101000a900473ffffffffffffffffffffffffffffffffffffffff1673ffffffffffffffffffffffffffffffffffffffff1673ffffffffffffffffffffffffffffffffffffffff168152602001600282015481526020016003820160009054906101000a900473ffffffffffffffffffffffffffffffffffffffff1673ffffffffffffffffffffffffffffffffffffffff1673ffffffffffffffffffffffffffffffffffffffff1681526020016004820160009054906101000a900473ffffffffffffffffffffffffffffffffffffffff1673ffffffffffffffffffffffffffffffffffffffff1673ffffffffffffffffffffffffffffffffffffffff168152602001600582015481526020016006820160009054906101000a900460ff161515151581525050848681518110610a3a577f4e487b7100000000000000000000000000000000000000000000000000000000600052603260045260246000fd5b6020026020010181905250600185610a529190611625565b945050505b8080610a6290611709565b91505061082b565b508094505050505090565b60026000541415610abb576040517f08c379a0000000000000000000000000000000000000000000000000000000008152600401610ab290611580565b60405180910390fd5b600260008190555060008111610b06576040517f08c379a0000000000000000000000000000000000000000000000000000000008152600401610afd906115a0565b60405180910390fd5b6004543414610b4a576040517f08c379a0000000000000000000000000000000000000000000000000000000008152600401610b4190611560565b60405180910390fd5b610b54600161114f565b6000610b606001611165565b90506040518060e001604052808281526020018573ffffffffffffffffffffffffffffffffffffffff1681526020018481526020013373ffffffffffffffffffffffffffffffffffffffff168152602001600073ffffffffffffffffffffffffffffffffffffffff16815260200183815260200160001515815250600560008381526020019081526020016000206000820151816000015560208201518160010160006101000a81548173ffffffffffffffffffffffffffffffffffffffff021916908373ffffffffffffffffffffffffffffffffffffffff1602179055506040820151816002015560608201518160030160006101000a81548173ffffffffffffffffffffffffffffffffffffffff021916908373ffffffffffffffffffffffffffffffffffffffff16021790555060808201518160040160006101000a81548173ffffffffffffffffffffffffffffffffffffffff021916908373ffffffffffffffffffffffffffffffffffffffff16021790555060a0820151816005015560c08201518160060160006101000a81548160ff0219169083151502179055509050508373ffffffffffffffffffffffffffffffffffffffff166323b872dd3330866040518463ffffffff1660e01b8152600401610d41939291906114a2565b600060405180830381600087803b158015610d5b57600080fd5b505af1158015610d6f573d6000803e3d6000fd5b50505050828473ffffffffffffffffffffffffffffffffffffffff16827f143fc6df1a85056043e9a689326cca21cf79f348fa86fde2cf882f2a0415fa13336000876000604051610dc394939291906114d9565b60405180910390a4506001600081905550505050565b60606000610de76001611165565b905060008060005b83811015610e84573373ffffffffffffffffffffffffffffffffffffffff166005600083815260200190815260200160002060030160009054906101000a900473ffffffffffffffffffffffffffffffffffffffff1673ffffffffffffffffffffffffffffffffffffffff161415610e7157600183610e6e9190611625565b92505b8080610e7c90611709565b915050610def565b5060008267ffffffffffffffff811115610ec7577f4e487b7100000000000000000000000000000000000000000000000000000000600052604160045260246000fd5b604051908082528060200260200182016040528015610f0057816020015b610eed611173565b815260200190600190039081610ee55790505b50905060005b84811015611144573373ffffffffffffffffffffffffffffffffffffffff166005600083815260200190815260200160002060030160009054906101000a900473ffffffffffffffffffffffffffffffffffffffff1673ffffffffffffffffffffffffffffffffffffffff1614156111315760008190506000600560008381526020019081526020016000209050806040518060e0016040529081600082015481526020016001820160009054906101000a900473ffffffffffffffffffffffffffffffffffffffff1673ffffffffffffffffffffffffffffffffffffffff1673ffffffffffffffffffffffffffffffffffffffff168152602001600282015481526020016003820160009054906101000a900473ffffffffffffffffffffffffffffffffffffffff1673ffffffffffffffffffffffffffffffffffffffff1673ffffffffffffffffffffffffffffffffffffffff1681526020016004820160009054906101000a900473ffffffffffffffffffffffffffffffffffffffff1673ffffffffffffffffffffffffffffffffffffffff1673ffffffffffffffffffffffffffffffffffffffff168152602001600582015481526020016006820160009054906101000a900460ff161515151581525050848681518110611114577f4e487b7100000000000000000000000000000000000000000000000000000000600052603260045260246000fd5b602002602001018190525060018561112c9190611625565b945050505b808061113c90611709565b915050610f06565b508094505050505090565b6001816000016000828254019250508190555050565b600081600001549050919050565b6040518060e0016040528060008152602001600073ffffffffffffffffffffffffffffffffffffffff16815260200160008152602001600073ffffffffffffffffffffffffffffffffffffffff168152602001600073ffffffffffffffffffffffffffffffffffffffff168152602001600081526020016000151581525090565b60008135905061120381611871565b92915050565b60008135905061121881611888565b92915050565b6000806040838503121561123157600080fd5b600061123f858286016111f4565b925050602061125085828601611209565b9150509250929050565b60008060006060848603121561126f57600080fd5b600061127d868287016111f4565b935050602061128e86828701611209565b925050604061129f86828701611209565b9150509250925092565b60006112b583836113f6565b60e08301905092915050565b6112ca816116c1565b82525050565b6112d9816116af565b82525050565b6112e8816116af565b82525050565b60006112f9826115eb565b6113038185611603565b935061130e836115db565b8060005b8381101561133f57815161132688826112a9565b9750611331836115f6565b925050600181019050611312565b5085935050505092915050565b611355816116d3565b82525050565b611364816116d3565b82525050565b6000611377603f83611614565b915061138282611781565b604082019050919050565b600061139a602483611614565b91506113a5826117d0565b604082019050919050565b60006113bd601f83611614565b91506113c88261181f565b602082019050919050565b60006113e0601c83611614565b91506113eb82611848565b602082019050919050565b60e08201600082015161140c6000850182611484565b50602082015161141f60208501826112d0565b5060408201516114326040850182611484565b50606082015161144560608501826112c1565b50608082015161145860808501826112c1565b5060a082015161146b60a0850182611484565b5060c082015161147e60c085018261134c565b50505050565b61148d816116ff565b82525050565b61149c816116ff565b82525050565b60006060820190506114b760008301866112df565b6114c460208301856112df565b6114d16040830184611493565b949350505050565b60006080820190506114ee60008301876112df565b6114fb60208301866112df565b6115086040830185611493565b611515606083018461135b565b95945050505050565b6000602082019050818103600083015261153881846112ee565b905092915050565b600060208201905081810360008301526115598161136a565b9050919050565b600060208201905081810360008301526115798161138d565b9050919050565b60006020820190508181036000830152611599816113b0565b9050919050565b600060208201905081810360008301526115b9816113d3565b9050919050565b60006020820190506115d56000830184611493565b92915050565b6000819050602082019050919050565b600081519050919050565b6000602082019050919050565b600082825260208201905092915050565b600082825260208201905092915050565b6000611630826116ff565b915061163b836116ff565b9250827fffffffffffffffffffffffffffffffffffffffffffffffffffffffffffffffff038211156116705761166f611752565b5b828201905092915050565b6000611686826116ff565b9150611691836116ff565b9250828210156116a4576116a3611752565b5b828203905092915050565b60006116ba826116df565b9050919050565b60006116cc826116df565b9050919050565b60008115159050919050565b600073ffffffffffffffffffffffffffffffffffffffff82169050919050565b6000819050919050565b6000611714826116ff565b91507fffffffffffffffffffffffffffffffffffffffffffffffffffffffffffffffff82141561174757611746611752565b5b600182019050919050565b7f4e487b7100000000000000000000000000000000000000000000000000000000600052601160045260246000fd5b7f506c65617365207375626d6974207468652061736b656420707269636520696e60008201527f206f7264657220746f20636f6d706c6574652074686520707572636861736500602082015250565b7f5072696365206d75737420626520657175616c20746f206c697374696e67207060008201527f7269636500000000000000000000000000000000000000000000000000000000602082015250565b7f5265656e7472616e637947756172643a207265656e7472616e742063616c6c00600082015250565b7f5072696365206d7573742062652067726561746572207468616e203000000000600082015250565b61187a816116af565b811461188557600080fd5b50565b611891816116ff565b811461189c57600080fd5b5056fea26469706673582212207557c3267bd6cb165d80525389566cfe3ea462e03decedcc6f8c1c67c9b1878564736f6c63430008040033",
  "linkReferences": {},
  "deployedLinkReferences": {}
}