{
  "_format": "hh-sol-artifact-1",
  "contractName": "EternalNFT",
  "sourceName": "contracts/EternalNFT.sol",
  "abi": [
    {
      "inputs": [
        {
          "internalType": "address",
          "name": "marketplaceAddress",
          "type": "address"
        }
      ],
      "stateMutability": "nonpayable",
      "type": "constructor"
    },
    {
      "anonymous": false,
      "inputs": [
        {
          "indexed": true,
          "internalType": "address",
          "name": "owner",
          "type": "address"
        },
        {
          "indexed": true,
          "internalType": "address",
          "name": "approved",
          "type": "address"
        },
        {
          "indexed": true,
          "internalType": "uint256",
          "name": "tokenId",
          "type": "uint256"
        }
      ],
      "name": "Approval",
      "type": "event"
    },
    {
      "anonymous": false,
      "inputs": [
        {
          "indexed": true,
          "internalType": "address",
          "name": "owner",
          "type": "address"
        },
        {
          "indexed": true,
          "internalType": "address",
          "name": "operator",
          "type": "address"
        },
        {
          "indexed": false,
          "internalType": "bool",
          "name": "approved",
          "type": "bool"
        }
      ],
      "name": "ApprovalForAll",
      "type": "event"
    },
    {
      "anonymous": false,
      "inputs": [
        {
          "indexed": true,
          "internalType": "address",
          "name": "from",
          "type": "address"
        },
        {
          "indexed": true,
          "internalType": "address",
          "name": "to",
          "type": "address"
        },
        {
          "indexed": true,
          "internalType": "uint256",
          "name": "tokenId",
          "type": "uint256"
        }
      ],
      "name": "Transfer",
      "type": "event"
    },
    {
      "inputs": [
        {
          "internalType": "address",
          "name": "to",
          "type": "address"
        },
        {
          "internalType": "uint256",
          "name": "tokenId",
          "type": "uint256"
        }
      ],
      "name": "approve",
      "outputs": [],
      "stateMutability": "nonpayable",
      "type": "function"
    },
    {
      "inputs": [
        {
          "internalType": "address",
          "name": "owner",
          "type": "address"
        }
      ],
      "name": "balanceOf",
      "outputs": [
        {
          "internalType": "uint256",
          "name": "",
          "type": "uint256"
        }
      ],
      "stateMutability": "view",
      "type": "function"
    },
    {
      "inputs": [],
      "name": "createEternalNFT",
      "outputs": [
        {
          "internalType": "uint256",
          "name": "",
          "type": "uint256"
        }
      ],
      "stateMutability": "nonpayable",
      "type": "function"
    },
    {
      "inputs": [
        {
          "internalType": "uint256",
          "name": "tokenId",
          "type": "uint256"
        }
      ],
      "name": "getApproved",
      "outputs": [
        {
          "internalType": "address",
          "name": "",
          "type": "address"
        }
      ],
      "stateMutability": "view",
      "type": "function"
    },
    {
      "inputs": [
        {
          "internalType": "address",
          "name": "owner",
          "type": "address"
        },
        {
          "internalType": "address",
          "name": "operator",
          "type": "address"
        }
      ],
      "name": "isApprovedForAll",
      "outputs": [
        {
          "internalType": "bool",
          "name": "",
          "type": "bool"
        }
      ],
      "stateMutability": "view",
      "type": "function"
    },
    {
      "inputs": [],
      "name": "name",
      "outputs": [
        {
          "internalType": "string",
          "name": "",
          "type": "string"
        }
      ],
      "stateMutability": "view",
      "type": "function"
    },
    {
      "inputs": [
        {
          "internalType": "uint256",
          "name": "tokenId",
          "type": "uint256"
        }
      ],
      "name": "ownerOf",
      "outputs": [
        {
          "internalType": "address",
          "name": "",
          "type": "address"
        }
      ],
      "stateMutability": "view",
      "type": "function"
    },
    {
      "inputs": [
        {
          "internalType": "uint256",
          "name": "tokenId",
          "type": "uint256"
        }
      ],
      "name": "pickFirstWord",
      "outputs": [
        {
          "internalType": "string",
          "name": "",
          "type": "string"
        }
      ],
      "stateMutability": "view",
      "type": "function"
    },
    {
      "inputs": [
        {
          "internalType": "uint256",
          "name": "tokenId",
          "type": "uint256"
        }
      ],
      "name": "pickSecondWord",
      "outputs": [
        {
          "internalType": "string",
          "name": "",
          "type": "string"
        }
      ],
      "stateMutability": "view",
      "type": "function"
    },
    {
      "inputs": [
        {
          "internalType": "uint256",
          "name": "tokenId",
          "type": "uint256"
        }
      ],
      "name": "pickThirdWord",
      "outputs": [
        {
          "internalType": "string",
          "name": "",
          "type": "string"
        }
      ],
      "stateMutability": "view",
      "type": "function"
    },
    {
      "inputs": [
        {
          "internalType": "address",
          "name": "from",
          "type": "address"
        },
        {
          "internalType": "address",
          "name": "to",
          "type": "address"
        },
        {
          "internalType": "uint256",
          "name": "tokenId",
          "type": "uint256"
        }
      ],
      "name": "safeTransferFrom",
      "outputs": [],
      "stateMutability": "nonpayable",
      "type": "function"
    },
    {
      "inputs": [
        {
          "internalType": "address",
          "name": "from",
          "type": "address"
        },
        {
          "internalType": "address",
          "name": "to",
          "type": "address"
        },
        {
          "internalType": "uint256",
          "name": "tokenId",
          "type": "uint256"
        },
        {
          "internalType": "bytes",
          "name": "_data",
          "type": "bytes"
        }
      ],
      "name": "safeTransferFrom",
      "outputs": [],
      "stateMutability": "nonpayable",
      "type": "function"
    },
    {
      "inputs": [
        {
          "internalType": "address",
          "name": "operator",
          "type": "address"
        },
        {
          "internalType": "bool",
          "name": "approved",
          "type": "bool"
        }
      ],
      "name": "setApprovalForAll",
      "outputs": [],
      "stateMutability": "nonpayable",
      "type": "function"
    },
    {
      "inputs": [
        {
          "internalType": "bytes4",
          "name": "interfaceId",
          "type": "bytes4"
        }
      ],
      "name": "supportsInterface",
      "outputs": [
        {
          "internalType": "bool",
          "name": "",
          "type": "bool"
        }
      ],
      "stateMutability": "view",
      "type": "function"
    },
    {
      "inputs": [],
      "name": "symbol",
      "outputs": [
        {
          "internalType": "string",
          "name": "",
          "type": "string"
        }
      ],
      "stateMutability": "view",
      "type": "function"
    },
    {
      "inputs": [
        {
          "internalType": "uint256",
          "name": "tokenId",
          "type": "uint256"
        }
      ],
      "name": "tokenURI",
      "outputs": [
        {
          "internalType": "string",
          "name": "",
          "type": "string"
        }
      ],
      "stateMutability": "view",
      "type": "function"
    },
    {
      "inputs": [
        {
          "internalType": "address",
          "name": "from",
          "type": "address"
        },
        {
          "internalType": "address",
          "name": "to",
          "type": "address"
        },
        {
          "internalType": "uint256",
          "name": "tokenId",
          "type": "uint256"
        }
      ],
      "name": "transferFrom",
      "outputs": [],
      "stateMutability": "nonpayable",
      "type": "function"
    }
  ],
  "bytecode": "0x608060405260405180610160016040528061012f81526020016200414e61012f91396009908051906020019062000038929190620005ce565b506040518060c001604052806040518060400160405280600581526020017f466c616d6500000000000000000000000000000000000000000000000000000081525081526020016040518060400160405280600481526020017f57696e640000000000000000000000000000000000000000000000000000000081525081526020016040518060400160405280600481526020017f576176650000000000000000000000000000000000000000000000000000000081525081526020016040518060400160405280600481526020017f526f636b0000000000000000000000000000000000000000000000000000000081525081526020016040518060400160405280600581526020017f4c6967687400000000000000000000000000000000000000000000000000000081525081526020016040518060400160405280600481526020017f4461726b00000000000000000000000000000000000000000000000000000000815250815250600a906006620001b69291906200065f565b506040518060c001604052806040518060400160405280600481526020017f4d6167650000000000000000000000000000000000000000000000000000000081525081526020016040518060400160405280600681526020017f536869656c64000000000000000000000000000000000000000000000000000081525081526020016040518060400160405280600881526020017f417373617373696e00000000000000000000000000000000000000000000000081525081526020016040518060400160405280600581526020017f5361696e7400000000000000000000000000000000000000000000000000000081525081526020016040518060400160405280600681526020017f436c65726963000000000000000000000000000000000000000000000000000081525081526020016040518060400160405280600581526020017f53776f7264000000000000000000000000000000000000000000000000000000815250815250600b906006620003349291906200065f565b506040518060c001604052806040518060400160405280600381526020017f536869000000000000000000000000000000000000000000000000000000000081525081526020016040518060400160405280600381526020017f4c696e000000000000000000000000000000000000000000000000000000000081525081526020016040518060400160405280600381526020017f48616e000000000000000000000000000000000000000000000000000000000081525081526020016040518060400160405280600381526020017f52656e000000000000000000000000000000000000000000000000000000000081525081526020016040518060400160405280600381526020017f51696e000000000000000000000000000000000000000000000000000000000081525081526020016040518060400160405280600381526020017f4a696e0000000000000000000000000000000000000000000000000000000000815250815250600c906006620004b29291906200065f565b50348015620004c057600080fd5b506040516200427d3803806200427d8339818101604052810190620004e691906200076a565b6040518060400160405280600a81526020017f457465726e616c4e4654000000000000000000000000000000000000000000008152506040518060400160405280600481526020017f454e46540000000000000000000000000000000000000000000000000000000081525081600090805190602001906200056a929190620005ce565b50806001908051906020019062000583929190620005ce565b50505080600860006101000a81548173ffffffffffffffffffffffffffffffffffffffff021916908373ffffffffffffffffffffffffffffffffffffffff1602179055505062000849565b828054620005dc90620007ca565b90600052602060002090601f0160209004810192826200060057600085556200064c565b82601f106200061b57805160ff19168380011785556200064c565b828001600101855582156200064c579182015b828111156200064b5782518255916020019190600101906200062e565b5b5090506200065b9190620006c6565b5090565b828054828255906000526020600020908101928215620006b3579160200282015b82811115620006b2578251829080519060200190620006a1929190620005ce565b509160200191906001019062000680565b5b509050620006c29190620006e5565b5090565b5b80821115620006e1576000816000905550600101620006c7565b5090565b5b80821115620007095760008181620006ff91906200070d565b50600101620006e6565b5090565b5080546200071b90620007ca565b6000825580601f106200072f575062000750565b601f0160209004906000526020600020908101906200074f9190620006c6565b5b50565b60008151905062000764816200082f565b92915050565b6000602082840312156200077d57600080fd5b60006200078d8482850162000753565b91505092915050565b6000620007a382620007aa565b9050919050565b600073ffffffffffffffffffffffffffffffffffffffff82169050919050565b60006002820490506001821680620007e357607f821691505b60208210811415620007fa57620007f962000800565b5b50919050565b7f4e487b7100000000000000000000000000000000000000000000000000000000600052602260045260246000fd5b6200083a8162000796565b81146200084657600080fd5b50565b6138f580620008596000396000f3fe608060405234801561001057600080fd5b506004361061010b5760003560e01c80636352211e116100a2578063b88d4fde11610071578063b88d4fde146102ca578063c6303386146102e6578063c87b56dd14610316578063e2d2c30814610346578063e985e9c5146103765761010b565b80636352211e1461023057806370a082311461026057806395d89b4114610290578063a22cb465146102ae5761010b565b806323b872dd116100de57806323b872dd146101aa5780633330880e146101c65780633bad0d36146101e457806342842e0e146102145761010b565b806301ffc9a71461011057806306fdde0314610140578063081812fc1461015e578063095ea7b31461018e575b600080fd5b61012a600480360381019061012591906123b0565b6103a6565b6040516101379190612ae4565b60405180910390f35b610148610488565b6040516101559190612aff565b60405180910390f35b61017860048036038101906101739190612402565b61051a565b6040516101859190612a7d565b60405180910390f35b6101a860048036038101906101a39190612374565b61059f565b005b6101c460048036038101906101bf919061226e565b6106b7565b005b6101ce610717565b6040516101db9190612d5f565b60405180910390f35b6101fe60048036038101906101f99190612402565b610877565b60405161020b9190612aff565b60405180910390f35b61022e6004803603810190610229919061226e565b610995565b005b61024a60048036038101906102459190612402565b6109b5565b6040516102579190612a7d565b60405180910390f35b61027a60048036038101906102759190612209565b610a67565b6040516102879190612d5f565b60405180910390f35b610298610b1f565b6040516102a59190612aff565b60405180910390f35b6102c860048036038101906102c39190612338565b610bb1565b005b6102e460048036038101906102df91906122bd565b610d32565b005b61030060048036038101906102fb9190612402565b610d94565b60405161030d9190612aff565b60405180910390f35b610330600480360381019061032b9190612402565b610eb2565b60405161033d9190612aff565b60405180910390f35b610360600480360381019061035b9190612402565b611004565b60405161036d9190612aff565b60405180910390f35b610390600480360381019061038b9190612232565b611122565b60405161039d9190612ae4565b60405180910390f35b60007f80ac58cd000000000000000000000000000000000000000000000000000000007bffffffffffffffffffffffffffffffffffffffffffffffffffffffff1916827bffffffffffffffffffffffffffffffffffffffffffffffffffffffff1916148061047157507f5b5e139f000000000000000000000000000000000000000000000000000000007bffffffffffffffffffffffffffffffffffffffffffffffffffffffff1916827bffffffffffffffffffffffffffffffffffffffffffffffffffffffff1916145b806104815750610480826111b6565b5b9050919050565b60606000805461049790612ff3565b80601f01602080910402602001604051908101604052809291908181526020018280546104c390612ff3565b80156105105780601f106104e557610100808354040283529160200191610510565b820191906000526020600020905b8154815290600101906020018083116104f357829003601f168201915b5050505050905090565b600061052582611220565b610564576040517f08c379a000000000000000000000000000000000000000000000000000000000815260040161055b90612cbf565b60405180910390fd5b6004600083815260200190815260200160002060009054906101000a900473ffffffffffffffffffffffffffffffffffffffff169050919050565b60006105aa826109b5565b90508073ffffffffffffffffffffffffffffffffffffffff168373ffffffffffffffffffffffffffffffffffffffff16141561061b576040517f08c379a000000000000000000000000000000000000000000000000000000000815260040161061290612d1f565b60405180910390fd5b8073ffffffffffffffffffffffffffffffffffffffff1661063a61128c565b73ffffffffffffffffffffffffffffffffffffffff16148061066957506106688161066361128c565b611122565b5b6106a8576040517f08c379a000000000000000000000000000000000000000000000000000000000815260040161069f90612bff565b60405180910390fd5b6106b28383611294565b505050565b6106c86106c261128c565b8261134d565b610707576040517f08c379a00000000000000000000000000000000000000000000000000000000081526004016106fe90612d3f565b60405180910390fd5b61071283838361142b565b505050565b60006107236007611687565b600061072f600761169d565b9050600061073c82610877565b9050600061074983610d94565b9050600061075684611004565b9050600083838360405160200161076f93929190612920565b60405160208183030381529060405290506000600985858560405160200161079a9493929190612967565b604051602081830303815290604052905060006107df836107ba846116ab565b6040516020016107cb9291906129f4565b6040516020818303038152906040526116ab565b90506000816040516020016107f49190612a5b565b604051602081830303815290604052905061080f3389611869565b6108198882611887565b610846600860009054906101000a900473ffffffffffffffffffffffffffffffffffffffff166001610bb1565b61086960405180606001604052806025815260200161385b6025913989336118fb565b879850505050505050505090565b606060006108ab6108878461199a565b6040516020016108979190612a39565b604051602081830303815290604052611b47565b9050600a80549050816108be919061309f565b9050600a81815481106108fa577f4e487b7100000000000000000000000000000000000000000000000000000000600052603260045260246000fd5b90600052602060002001805461090f90612ff3565b80601f016020809104026020016040519081016040528092919081815260200182805461093b90612ff3565b80156109885780601f1061095d57610100808354040283529160200191610988565b820191906000526020600020905b81548152906001019060200180831161096b57829003601f168201915b5050505050915050919050565b6109b083838360405180602001604052806000815250610d32565b505050565b6000806002600084815260200190815260200160002060009054906101000a900473ffffffffffffffffffffffffffffffffffffffff169050600073ffffffffffffffffffffffffffffffffffffffff168173ffffffffffffffffffffffffffffffffffffffff161415610a5e576040517f08c379a0000000000000000000000000000000000000000000000000000000008152600401610a5590612c3f565b60405180910390fd5b80915050919050565b60008073ffffffffffffffffffffffffffffffffffffffff168273ffffffffffffffffffffffffffffffffffffffff161415610ad8576040517f08c379a0000000000000000000000000000000000000000000000000000000008152600401610acf90612c1f565b60405180910390fd5b600360008373ffffffffffffffffffffffffffffffffffffffff1673ffffffffffffffffffffffffffffffffffffffff168152602001908152602001600020549050919050565b606060018054610b2e90612ff3565b80601f0160208091040260200160405190810160405280929190818152602001828054610b5a90612ff3565b8015610ba75780601f10610b7c57610100808354040283529160200191610ba7565b820191906000526020600020905b815481529060010190602001808311610b8a57829003601f168201915b5050505050905090565b610bb961128c565b73ffffffffffffffffffffffffffffffffffffffff168273ffffffffffffffffffffffffffffffffffffffff161415610c27576040517f08c379a0000000000000000000000000000000000000000000000000000000008152600401610c1e90612bbf565b60405180910390fd5b8060056000610c3461128c565b73ffffffffffffffffffffffffffffffffffffffff1673ffffffffffffffffffffffffffffffffffffffff16815260200190815260200160002060008473ffffffffffffffffffffffffffffffffffffffff1673ffffffffffffffffffffffffffffffffffffffff16815260200190815260200160002060006101000a81548160ff0219169083151502179055508173ffffffffffffffffffffffffffffffffffffffff16610ce161128c565b73ffffffffffffffffffffffffffffffffffffffff167f17307eab39ab6107e8899845ad3d59bd9653f200f220920489ca2b5937696c3183604051610d269190612ae4565b60405180910390a35050565b610d43610d3d61128c565b8361134d565b610d82576040517f08c379a0000000000000000000000000000000000000000000000000000000008152600401610d7990612d3f565b60405180910390fd5b610d8e84848484611b7a565b50505050565b60606000610dc8610da48461199a565b604051602001610db491906129d2565b604051602081830303815290604052611b47565b9050600b8054905081610ddb919061309f565b9050600b8181548110610e17577f4e487b7100000000000000000000000000000000000000000000000000000000600052603260045260246000fd5b906000526020600020018054610e2c90612ff3565b80601f0160208091040260200160405190810160405280929190818152602001828054610e5890612ff3565b8015610ea55780601f10610e7a57610100808354040283529160200191610ea5565b820191906000526020600020905b815481529060010190602001808311610e8857829003601f168201915b5050505050915050919050565b6060610ebd82611220565b610efc576040517f08c379a0000000000000000000000000000000000000000000000000000000008152600401610ef390612c9f565b60405180910390fd5b6000600660008481526020019081526020016000208054610f1c90612ff3565b80601f0160208091040260200160405190810160405280929190818152602001828054610f4890612ff3565b8015610f955780601f10610f6a57610100808354040283529160200191610f95565b820191906000526020600020905b815481529060010190602001808311610f7857829003601f168201915b505050505090506000610fa6611bd6565b9050600081511415610fbc578192505050610fff565b600082511115610ff1578082604051602001610fd99291906128fc565b60405160208183030381529060405292505050610fff565b610ffa84611bed565b925050505b919050565b606060006110386110148461199a565b60405160200161102491906129b0565b604051602081830303815290604052611b47565b9050600c805490508161104b919061309f565b9050600c8181548110611087577f4e487b7100000000000000000000000000000000000000000000000000000000600052603260045260246000fd5b90600052602060002001805461109c90612ff3565b80601f01602080910402602001604051908101604052809291908181526020018280546110c890612ff3565b80156111155780601f106110ea57610100808354040283529160200191611115565b820191906000526020600020905b8154815290600101906020018083116110f857829003601f168201915b5050505050915050919050565b6000600560008473ffffffffffffffffffffffffffffffffffffffff1673ffffffffffffffffffffffffffffffffffffffff16815260200190815260200160002060008373ffffffffffffffffffffffffffffffffffffffff1673ffffffffffffffffffffffffffffffffffffffff16815260200190815260200160002060009054906101000a900460ff16905092915050565b60007f01ffc9a7000000000000000000000000000000000000000000000000000000007bffffffffffffffffffffffffffffffffffffffffffffffffffffffff1916827bffffffffffffffffffffffffffffffffffffffffffffffffffffffff1916149050919050565b60008073ffffffffffffffffffffffffffffffffffffffff166002600084815260200190815260200160002060009054906101000a900473ffffffffffffffffffffffffffffffffffffffff1673ffffffffffffffffffffffffffffffffffffffff1614159050919050565b600033905090565b816004600083815260200190815260200160002060006101000a81548173ffffffffffffffffffffffffffffffffffffffff021916908373ffffffffffffffffffffffffffffffffffffffff160217905550808273ffffffffffffffffffffffffffffffffffffffff16611307836109b5565b73ffffffffffffffffffffffffffffffffffffffff167f8c5be1e5ebec7d5bd14f71427d1e84f3dd0314c0f7b2291e5b200ac8c7c3b92560405160405180910390a45050565b600061135882611220565b611397576040517f08c379a000000000000000000000000000000000000000000000000000000000815260040161138e90612bdf565b60405180910390fd5b60006113a2836109b5565b90508073ffffffffffffffffffffffffffffffffffffffff168473ffffffffffffffffffffffffffffffffffffffff16148061141157508373ffffffffffffffffffffffffffffffffffffffff166113f98461051a565b73ffffffffffffffffffffffffffffffffffffffff16145b8061142257506114218185611122565b5b91505092915050565b8273ffffffffffffffffffffffffffffffffffffffff1661144b826109b5565b73ffffffffffffffffffffffffffffffffffffffff16146114a1576040517f08c379a000000000000000000000000000000000000000000000000000000000815260040161149890612cdf565b60405180910390fd5b600073ffffffffffffffffffffffffffffffffffffffff168273ffffffffffffffffffffffffffffffffffffffff161415611511576040517f08c379a000000000000000000000000000000000000000000000000000000000815260040161150890612b9f565b60405180910390fd5b61151c838383611c94565b611527600082611294565b6001600360008573ffffffffffffffffffffffffffffffffffffffff1673ffffffffffffffffffffffffffffffffffffffff16815260200190815260200160002060008282546115779190612f09565b925050819055506001600360008473ffffffffffffffffffffffffffffffffffffffff1673ffffffffffffffffffffffffffffffffffffffff16815260200190815260200160002060008282546115ce9190612e28565b92505081905550816002600083815260200190815260200160002060006101000a81548173ffffffffffffffffffffffffffffffffffffffff021916908373ffffffffffffffffffffffffffffffffffffffff160217905550808273ffffffffffffffffffffffffffffffffffffffff168473ffffffffffffffffffffffffffffffffffffffff167fddf252ad1be2c89b69c2b068fc378daa952ba7f163c4a11628f55a4df523b3ef60405160405180910390a4505050565b6001816000016000828254019250508190555050565b600081600001549050919050565b606060008251905060008114156116d45760405180602001604052806000815250915050611864565b600060036002836116e59190612e28565b6116ef9190612e7e565b60046116fb9190612eaf565b9050600060208261170c9190612e28565b67ffffffffffffffff81111561174b577f4e487b7100000000000000000000000000000000000000000000000000000000600052604160045260246000fd5b6040519080825280601f01601f19166020018201604052801561177d5781602001600182028036833780820191505090505b5090506000604051806060016040528060408152602001613880604091399050600181016020830160005b868110156118215760038101905062ffffff818a015116603f8160121c168401518060081b905060ff603f83600c1c1686015116810190508060081b905060ff603f8360061c1686015116810190508060081b905060ff603f831686015116810190508060e01b905080845260048401935050506117a8565b50600386066001811461183b576002811461184b57611856565b613d3d60f01b6002830352611856565b603d60f81b60018303525b508484525050819450505050505b919050565b611883828260405180602001604052806000815250611c99565b5050565b61189082611220565b6118cf576040517f08c379a00000000000000000000000000000000000000000000000000000000081526004016118c690612c5f565b60405180910390fd5b806006600084815260200190815260200160002090805190602001906118f6929190612095565b505050565b61199583838360405160240161191393929190612b21565b6040516020818303038152906040527fe3849f79000000000000000000000000000000000000000000000000000000007bffffffffffffffffffffffffffffffffffffffffffffffffffffffff19166020820180517bffffffffffffffffffffffffffffffffffffffffffffffffffffffff8381831617835250505050611cf4565b505050565b606060008214156119e2576040518060400160405280600181526020017f30000000000000000000000000000000000000000000000000000000000000008152509050611b42565b600082905060005b60008214611a145780806119fd90613056565b915050600a82611a0d9190612e7e565b91506119ea565b60008167ffffffffffffffff811115611a56577f4e487b7100000000000000000000000000000000000000000000000000000000600052604160045260246000fd5b6040519080825280601f01601f191660200182016040528015611a885781602001600182028036833780820191505090505b5090505b60008514611b3b57600182611aa19190612f09565b9150600a85611ab0919061309f565b6030611abc9190612e28565b60f81b818381518110611af8577f4e487b7100000000000000000000000000000000000000000000000000000000600052603260045260246000fd5b60200101907effffffffffffffffffffffffffffffffffffffffffffffffffffffffffffff1916908160001a905350600a85611b349190612e7e565b9450611a8c565b8093505050505b919050565b600081604051602001611b5a91906128e5565b6040516020818303038152906040528051906020012060001c9050919050565b611b8584848461142b565b611b9184848484611d1d565b611bd0576040517f08c379a0000000000000000000000000000000000000000000000000000000008152600401611bc790612b5f565b60405180910390fd5b50505050565b606060405180602001604052806000815250905090565b6060611bf882611220565b611c37576040517f08c379a0000000000000000000000000000000000000000000000000000000008152600401611c2e90612cff565b60405180910390fd5b6000611c41611bd6565b90506000815111611c615760405180602001604052806000815250611c8c565b80611c6b8461199a565b604051602001611c7c9291906128fc565b6040516020818303038152906040525b915050919050565b505050565b611ca38383611eb4565b611cb06000848484611d1d565b611cef576040517f08c379a0000000000000000000000000000000000000000000000000000000008152600401611ce690612b5f565b60405180910390fd5b505050565b60008151905060006a636f6e736f6c652e6c6f679050602083016000808483855afa5050505050565b6000611d3e8473ffffffffffffffffffffffffffffffffffffffff16612082565b15611ea7578373ffffffffffffffffffffffffffffffffffffffff1663150b7a02611d6761128c565b8786866040518563ffffffff1660e01b8152600401611d899493929190612a98565b602060405180830381600087803b158015611da357600080fd5b505af1925050508015611dd457506040513d601f19601f82011682018060405250810190611dd191906123d9565b60015b611e57573d8060008114611e04576040519150601f19603f3d011682016040523d82523d6000602084013e611e09565b606091505b50600081511415611e4f576040517f08c379a0000000000000000000000000000000000000000000000000000000008152600401611e4690612b5f565b60405180910390fd5b805181602001fd5b63150b7a0260e01b7bffffffffffffffffffffffffffffffffffffffffffffffffffffffff1916817bffffffffffffffffffffffffffffffffffffffffffffffffffffffff191614915050611eac565b600190505b949350505050565b600073ffffffffffffffffffffffffffffffffffffffff168273ffffffffffffffffffffffffffffffffffffffff161415611f24576040517f08c379a0000000000000000000000000000000000000000000000000000000008152600401611f1b90612c7f565b60405180910390fd5b611f2d81611220565b15611f6d576040517f08c379a0000000000000000000000000000000000000000000000000000000008152600401611f6490612b7f565b60405180910390fd5b611f7960008383611c94565b6001600360008473ffffffffffffffffffffffffffffffffffffffff1673ffffffffffffffffffffffffffffffffffffffff1681526020019081526020016000206000828254611fc99190612e28565b92505081905550816002600083815260200190815260200160002060006101000a81548173ffffffffffffffffffffffffffffffffffffffff021916908373ffffffffffffffffffffffffffffffffffffffff160217905550808273ffffffffffffffffffffffffffffffffffffffff16600073ffffffffffffffffffffffffffffffffffffffff167fddf252ad1be2c89b69c2b068fc378daa952ba7f163c4a11628f55a4df523b3ef60405160405180910390a45050565b600080823b905060008111915050919050565b8280546120a190612ff3565b90600052602060002090601f0160209004810192826120c3576000855561210a565b82601f106120dc57805160ff191683800117855561210a565b8280016001018555821561210a579182015b828111156121095782518255916020019190600101906120ee565b5b509050612117919061211b565b5090565b5b8082111561213457600081600090555060010161211c565b5090565b600061214b61214684612d9f565b612d7a565b90508281526020810184848401111561216357600080fd5b61216e848285612fb1565b509392505050565b600081359050612185816137fe565b92915050565b60008135905061219a81613815565b92915050565b6000813590506121af8161382c565b92915050565b6000815190506121c48161382c565b92915050565b600082601f8301126121db57600080fd5b81356121eb848260208601612138565b91505092915050565b60008135905061220381613843565b92915050565b60006020828403121561221b57600080fd5b600061222984828501612176565b91505092915050565b6000806040838503121561224557600080fd5b600061225385828601612176565b925050602061226485828601612176565b9150509250929050565b60008060006060848603121561228357600080fd5b600061229186828701612176565b93505060206122a286828701612176565b92505060406122b3868287016121f4565b9150509250925092565b600080600080608085870312156122d357600080fd5b60006122e187828801612176565b94505060206122f287828801612176565b9350506040612303878288016121f4565b925050606085013567ffffffffffffffff81111561232057600080fd5b61232c878288016121ca565b91505092959194509250565b6000806040838503121561234b57600080fd5b600061235985828601612176565b925050602061236a8582860161218b565b9150509250929050565b6000806040838503121561238757600080fd5b600061239585828601612176565b92505060206123a6858286016121f4565b9150509250929050565b6000602082840312156123c257600080fd5b60006123d0848285016121a0565b91505092915050565b6000602082840312156123eb57600080fd5b60006123f9848285016121b5565b91505092915050565b60006020828403121561241457600080fd5b6000612422848285016121f4565b91505092915050565b61243481612f3d565b82525050565b61244381612f4f565b82525050565b600061245482612de5565b61245e8185612dfb565b935061246e818560208601612fc0565b6124778161318c565b840191505092915050565b600061248d82612df0565b6124978185612e0c565b93506124a7818560208601612fc0565b6124b08161318c565b840191505092915050565b60006124c682612df0565b6124d08185612e1d565b93506124e0818560208601612fc0565b80840191505092915050565b600081546124f981612ff3565b6125038186612e1d565b9450600182166000811461251e576001811461252f57612562565b60ff19831686528186019350612562565b61253885612dd0565b60005b8381101561255a5781548189015260018201915060208101905061253b565b838801955050505b50505092915050565b6000612578600183612e1d565b91506125838261319d565b600182019050919050565b600061259b603283612e0c565b91506125a6826131c6565b604082019050919050565b60006125be601c83612e0c565b91506125c982613215565b602082019050919050565b60006125e1600a83612e1d565b91506125ec8261323e565b600a82019050919050565b6000612604602483612e0c565b915061260f82613267565b604082019050919050565b6000612627601983612e0c565b9150612632826132b6565b602082019050919050565b600061264a600b83612e1d565b9150612655826132df565b600b82019050919050565b600061266d602c83612e0c565b915061267882613308565b604082019050919050565b6000612690600d83612e1d565b915061269b82613357565b600d82019050919050565b60006126b3603883612e0c565b91506126be82613380565b604082019050919050565b60006126d6602a83612e0c565b91506126e1826133cf565b604082019050919050565b60006126f9602983612e0c565b91506127048261341e565b604082019050919050565b600061271c602e83612e0c565b91506127278261346d565b604082019050919050565b600061273f600283612e1d565b915061274a826134bc565b600282019050919050565b6000612762602083612e0c565b915061276d826134e5565b602082019050919050565b6000612785603183612e0c565b91506127908261350e565b604082019050919050565b60006127a8602c83612e0c565b91506127b38261355d565b604082019050919050565b60006127cb602983612e0c565b91506127d6826135ac565b604082019050919050565b60006127ee602f83612e0c565b91506127f9826135fb565b604082019050919050565b6000612811600a83612e1d565b915061281c8261364a565b600a82019050919050565b6000612834602183612e0c565b915061283f82613673565b604082019050919050565b6000612857600a83612e1d565b9150612862826136c2565b600a82019050919050565b600061287a601d83612e1d565b9150612885826136eb565b601d82019050919050565b600061289d603183612e0c565b91506128a882613714565b604082019050919050565b60006128c0606883612e1d565b91506128cb82613763565b606882019050919050565b6128df81612fa7565b82525050565b60006128f182846124bb565b915081905092915050565b600061290882856124bb565b915061291482846124bb565b91508190509392505050565b600061292c82866124bb565b91506129378261256b565b915061294382856124bb565b915061294e8261256b565b915061295a82846124bb565b9150819050949350505050565b600061297382876124ec565b915061297f82866124bb565b915061298b82856124bb565b915061299782846124bb565b91506129a282612683565b915081905095945050505050565b60006129bb826125d4565b91506129c782846124bb565b915081905092915050565b60006129dd8261263d565b91506129e982846124bb565b915081905092915050565b60006129ff82612804565b9150612a0b82856124bb565b9150612a16826128b3565b9150612a2282846124bb565b9150612a2d82612732565b91508190509392505050565b6000612a448261284a565b9150612a5082846124bb565b915081905092915050565b6000612a668261286d565b9150612a7282846124bb565b915081905092915050565b6000602082019050612a92600083018461242b565b92915050565b6000608082019050612aad600083018761242b565b612aba602083018661242b565b612ac760408301856128d6565b8181036060830152612ad98184612449565b905095945050505050565b6000602082019050612af9600083018461243a565b92915050565b60006020820190508181036000830152612b198184612482565b905092915050565b60006060820190508181036000830152612b3b8186612482565b9050612b4a60208301856128d6565b612b57604083018461242b565b949350505050565b60006020820190508181036000830152612b788161258e565b9050919050565b60006020820190508181036000830152612b98816125b1565b9050919050565b60006020820190508181036000830152612bb8816125f7565b9050919050565b60006020820190508181036000830152612bd88161261a565b9050919050565b60006020820190508181036000830152612bf881612660565b9050919050565b60006020820190508181036000830152612c18816126a6565b9050919050565b60006020820190508181036000830152612c38816126c9565b9050919050565b60006020820190508181036000830152612c58816126ec565b9050919050565b60006020820190508181036000830152612c788161270f565b9050919050565b60006020820190508181036000830152612c9881612755565b9050919050565b60006020820190508181036000830152612cb881612778565b9050919050565b60006020820190508181036000830152612cd88161279b565b9050919050565b60006020820190508181036000830152612cf8816127be565b9050919050565b60006020820190508181036000830152612d18816127e1565b9050919050565b60006020820190508181036000830152612d3881612827565b9050919050565b60006020820190508181036000830152612d5881612890565b9050919050565b6000602082019050612d7460008301846128d6565b92915050565b6000612d84612d95565b9050612d908282613025565b919050565b6000604051905090565b600067ffffffffffffffff821115612dba57612db961315d565b5b612dc38261318c565b9050602081019050919050565b60008190508160005260206000209050919050565b600081519050919050565b600081519050919050565b600082825260208201905092915050565b600082825260208201905092915050565b600081905092915050565b6000612e3382612fa7565b9150612e3e83612fa7565b9250827fffffffffffffffffffffffffffffffffffffffffffffffffffffffffffffffff03821115612e7357612e726130d0565b5b828201905092915050565b6000612e8982612fa7565b9150612e9483612fa7565b925082612ea457612ea36130ff565b5b828204905092915050565b6000612eba82612fa7565b9150612ec583612fa7565b9250817fffffffffffffffffffffffffffffffffffffffffffffffffffffffffffffffff0483118215151615612efe57612efd6130d0565b5b828202905092915050565b6000612f1482612fa7565b9150612f1f83612fa7565b925082821015612f3257612f316130d0565b5b828203905092915050565b6000612f4882612f87565b9050919050565b60008115159050919050565b60007fffffffff0000000000000000000000000000000000000000000000000000000082169050919050565b600073ffffffffffffffffffffffffffffffffffffffff82169050919050565b6000819050919050565b82818337600083830152505050565b60005b83811015612fde578082015181840152602081019050612fc3565b83811115612fed576000848401525b50505050565b6000600282049050600182168061300b57607f821691505b6020821081141561301f5761301e61312e565b5b50919050565b61302e8261318c565b810181811067ffffffffffffffff8211171561304d5761304c61315d565b5b80604052505050565b600061306182612fa7565b91507fffffffffffffffffffffffffffffffffffffffffffffffffffffffffffffffff821415613094576130936130d0565b5b600182019050919050565b60006130aa82612fa7565b91506130b583612fa7565b9250826130c5576130c46130ff565b5b828206905092915050565b7f4e487b7100000000000000000000000000000000000000000000000000000000600052601160045260246000fd5b7f4e487b7100000000000000000000000000000000000000000000000000000000600052601260045260246000fd5b7f4e487b7100000000000000000000000000000000000000000000000000000000600052602260045260246000fd5b7f4e487b7100000000000000000000000000000000000000000000000000000000600052604160045260246000fd5b6000601f19601f8301169050919050565b7f0a00000000000000000000000000000000000000000000000000000000000000600082015250565b7f4552433732313a207472616e7366657220746f206e6f6e20455243373231526560008201527f63656976657220696d706c656d656e7465720000000000000000000000000000602082015250565b7f4552433732313a20746f6b656e20616c7265616479206d696e74656400000000600082015250565b7f54484952445f574f524400000000000000000000000000000000000000000000600082015250565b7f4552433732313a207472616e7366657220746f20746865207a65726f2061646460008201527f7265737300000000000000000000000000000000000000000000000000000000602082015250565b7f4552433732313a20617070726f766520746f2063616c6c657200000000000000600082015250565b7f5345434f4e445f574f5244000000000000000000000000000000000000000000600082015250565b7f4552433732313a206f70657261746f7220717565727920666f72206e6f6e657860008201527f697374656e7420746f6b656e0000000000000000000000000000000000000000602082015250565b7f3c2f746578743e3c2f7376673e00000000000000000000000000000000000000600082015250565b7f4552433732313a20617070726f76652063616c6c6572206973206e6f74206f7760008201527f6e6572206e6f7220617070726f76656420666f7220616c6c0000000000000000602082015250565b7f4552433732313a2062616c616e636520717565727920666f7220746865207a6560008201527f726f206164647265737300000000000000000000000000000000000000000000602082015250565b7f4552433732313a206f776e657220717565727920666f72206e6f6e657869737460008201527f656e7420746f6b656e0000000000000000000000000000000000000000000000602082015250565b7f45524337323155524953746f726167653a2055524920736574206f66206e6f6e60008201527f6578697374656e7420746f6b656e000000000000000000000000000000000000602082015250565b7f227d000000000000000000000000000000000000000000000000000000000000600082015250565b7f4552433732313a206d696e7420746f20746865207a65726f2061646472657373600082015250565b7f45524337323155524953746f726167653a2055524920717565727920666f722060008201527f6e6f6e6578697374656e7420746f6b656e000000000000000000000000000000602082015250565b7f4552433732313a20617070726f76656420717565727920666f72206e6f6e657860008201527f697374656e7420746f6b656e0000000000000000000000000000000000000000602082015250565b7f4552433732313a207472616e73666572206f6620746f6b656e2074686174206960008201527f73206e6f74206f776e0000000000000000000000000000000000000000000000602082015250565b7f4552433732314d657461646174613a2055524920717565727920666f72206e6f60008201527f6e6578697374656e7420746f6b656e0000000000000000000000000000000000602082015250565b7f7b226e616d65223a202200000000000000000000000000000000000000000000600082015250565b7f4552433732313a20617070726f76616c20746f2063757272656e74206f776e6560008201527f7200000000000000000000000000000000000000000000000000000000000000602082015250565b7f46495253545f574f524400000000000000000000000000000000000000000000600082015250565b7f646174613a6170706c69636174696f6e2f6a736f6e3b6261736536342c000000600082015250565b7f4552433732313a207472616e736665722063616c6c6572206973206e6f74206f60008201527f776e6572206e6f7220617070726f766564000000000000000000000000000000602082015250565b7f222c20226465736372697074696f6e223a20224120686967686c79206163636c60008201527f61696d656420636f6c6c656374696f6e20457465726e616c2057617272696f7260208201527f73222c2022696d616765223a2022646174613a696d6167652f7376672b786d6c60408201527f3b6261736536342c000000000000000000000000000000000000000000000000606082015250565b61380781612f3d565b811461381257600080fd5b50565b61381e81612f4f565b811461382957600080fd5b50565b61383581612f5b565b811461384057600080fd5b50565b61384c81612fa7565b811461385757600080fd5b5056fe416e204e465420772f20494420257320686173206265656e206d696e74656420746f2025734142434445464748494a4b4c4d4e4f505152535455565758595a6162636465666768696a6b6c6d6e6f707172737475767778797a303132333435363738392b2fa2646970667358221220c208dba5f01b4b3618c4d7d35327a25396b06eb8a8f0dcf8a84c4e10949c237f64736f6c634300080400333c73766720786d6c6e733d27687474703a2f2f7777772e77332e6f72672f323030302f73766727207072657365727665417370656374526174696f3d27784d696e594d696e206d656574272076696577426f783d273020302033353020333530273e3c7374796c653e2e62617365207b2066696c6c3a2077686974653b20666f6e742d66616d696c793a2073657269663b20666f6e742d73697a653a20323470783b207d3c2f7374796c653e3c726563742077696474683d273130302527206865696768743d2731303025272066696c6c3d27626c61636b27202f3e3c7465787420783d273530252720793d273530252720636c6173733d27626173652720646f6d696e616e742d626173656c696e653d276d6964646c652720746578742d616e63686f723d276d6964646c65273e",
  "linkReferences": {},
  "deployedLinkReferences": {}
}