{
  "_format": "hh-sol-artifact-1",
  "contractName": "EternalMarketplace",
  "sourceName": "contracts/EternalMarketplace.sol",
  "abi": [
    {
      "inputs": [],
      "stateMutability": "nonpayable",
      "type": "constructor"
    },
    {
      "anonymous": false,
      "inputs": [
        {
          "indexed": true,
          "internalType": "uint256",
          "name": "itemId",
          "type": "uint256"
        },
        {
          "indexed": true,
          "internalType": "address",
          "name": "nftContract",
          "type": "address"
        },
        {
          "indexed": true,
          "internalType": "uint256",
          "name": "tokenId",
          "type": "uint256"
        },
        {
          "indexed": false,
          "internalType": "address",
          "name": "seller",
          "type": "address"
        },
        {
          "indexed": false,
          "internalType": "address",
          "name": "owner",
          "type": "address"
        },
        {
          "indexed": false,
          "internalType": "uint256",
          "name": "price",
          "type": "uint256"
        },
        {
          "indexed": false,
          "internalType": "bool",
          "name": "sold",
          "type": "bool"
        }
      ],
      "name": "EternalItemCreated",
      "type": "event"
    },
    {
      "inputs": [
        {
          "internalType": "address",
          "name": "nftContract",
          "type": "address"
        },
        {
          "internalType": "uint256",
          "name": "itemId",
          "type": "uint256"
        }
      ],
      "name": "createEternalItemSale",
      "outputs": [],
      "stateMutability": "payable",
      "type": "function"
    },
    {
      "inputs": [
        {
          "internalType": "address",
          "name": "nftContract",
          "type": "address"
        },
        {
          "internalType": "uint256",
          "name": "tokenId",
          "type": "uint256"
        },
        {
          "internalType": "uint256",
          "name": "price",
          "type": "uint256"
        }
      ],
      "name": "createEternalMarketItem",
      "outputs": [],
      "stateMutability": "payable",
      "type": "function"
    },
    {
      "inputs": [
        {
          "internalType": "uint256",
          "name": "itemId",
          "type": "uint256"
        }
      ],
      "name": "fetchEternalItemById",
      "outputs": [
        {
          "components": [
            {
              "internalType": "uint256",
              "name": "itemId",
              "type": "uint256"
            },
            {
              "internalType": "address",
              "name": "nftContract",
              "type": "address"
            },
            {
              "internalType": "uint256",
              "name": "tokenId",
              "type": "uint256"
            },
            {
              "internalType": "address payable",
              "name": "seller",
              "type": "address"
            },
            {
              "internalType": "address payable",
              "name": "owner",
              "type": "address"
            },
            {
              "internalType": "uint256",
              "name": "price",
              "type": "uint256"
            },
            {
              "internalType": "bool",
              "name": "sold",
              "type": "bool"
            }
          ],
          "internalType": "struct EternalMarketplace.EternalItem",
          "name": "",
          "type": "tuple"
        }
      ],
      "stateMutability": "view",
      "type": "function"
    },
    {
      "inputs": [],
      "name": "fetchEternalItems",
      "outputs": [
        {
          "components": [
            {
              "internalType": "uint256",
              "name": "itemId",
              "type": "uint256"
            },
            {
              "internalType": "address",
              "name": "nftContract",
              "type": "address"
            },
            {
              "internalType": "uint256",
              "name": "tokenId",
              "type": "uint256"
            },
            {
              "internalType": "address payable",
              "name": "seller",
              "type": "address"
            },
            {
              "internalType": "address payable",
              "name": "owner",
              "type": "address"
            },
            {
              "internalType": "uint256",
              "name": "price",
              "type": "uint256"
            },
            {
              "internalType": "bool",
              "name": "sold",
              "type": "bool"
            }
          ],
          "internalType": "struct EternalMarketplace.EternalItem[]",
          "name": "",
          "type": "tuple[]"
        }
      ],
      "stateMutability": "view",
      "type": "function"
    },
    {
      "inputs": [],
      "name": "fetchMyEternalItems",
      "outputs": [
        {
          "components": [
            {
              "internalType": "uint256",
              "name": "itemId",
              "type": "uint256"
            },
            {
              "internalType": "address",
              "name": "nftContract",
              "type": "address"
            },
            {
              "internalType": "uint256",
              "name": "tokenId",
              "type": "uint256"
            },
            {
              "internalType": "address payable",
              "name": "seller",
              "type": "address"
            },
            {
              "internalType": "address payable",
              "name": "owner",
              "type": "address"
            },
            {
              "internalType": "uint256",
              "name": "price",
              "type": "uint256"
            },
            {
              "internalType": "bool",
              "name": "sold",
              "type": "bool"
            }
          ],
          "internalType": "struct EternalMarketplace.EternalItem[]",
          "name": "",
          "type": "tuple[]"
        }
      ],
      "stateMutability": "view",
      "type": "function"
    },
    {
      "inputs": [],
      "name": "getListingPrice",
      "outputs": [
        {
          "internalType": "uint256",
          "name": "",
          "type": "uint256"
        }
      ],
      "stateMutability": "view",
      "type": "function"
    }
  ],
  "bytecode": "0x6080604052662386f26fc1000060045534801561001b57600080fd5b50600160008190555033600360006101000a81548173ffffffffffffffffffffffffffffffffffffffff021916908373ffffffffffffffffffffffffffffffffffffffff1602179055506117ab806100746000396000f3fe6080604052600436106100555760003560e01c806312e855851461005a5780631856f214146100855780633bb2c3ba146100a1578063694fb48e146100de57806388573c2014610109578063b5ab8e8b14610134575b600080fd5b34801561006657600080fd5b5061006f610150565b60405161007c9190611496565b60405180910390f35b61009f600480360381019061009a9190611022565b61015a565b005b3480156100ad57600080fd5b506100c860048036038101906100c391906110ad565b610413565b6040516100d5919061147b565b60405180910390f35b3480156100ea57600080fd5b506100f361057b565b60405161010091906113d9565b60405180910390f35b34801561011557600080fd5b5061011e6108f1565b60405161012b91906113d9565b60405180910390f35b61014e6004803603810190610149919061105e565b610bef565b005b6000600454905090565b600260005414156101a0576040517f08c379a00000000000000000000000000000000000000000000000000000000081526004016101979061143b565b60405180910390fd5b6002600081905550600060056000838152602001908152602001600020600201549050600060056000848152602001908152602001600020600501549050803414610220576040517f08c379a0000000000000000000000000000000000000000000000000000000008152600401610217906113fb565b60405180910390fd5b6005600084815260200190815260200160002060030160009054906101000a900473ffffffffffffffffffffffffffffffffffffffff1673ffffffffffffffffffffffffffffffffffffffff166108fc349081150290604051600060405180830381858888f1935050505015801561029c573d6000803e3d6000fd5b508373ffffffffffffffffffffffffffffffffffffffff166323b872dd3033856040518463ffffffff1660e01b81526004016102da9392919061135d565b600060405180830381600087803b1580156102f457600080fd5b505af1158015610308573d6000803e3d6000fd5b50505050336005600085815260200190815260200160002060040160006101000a81548173ffffffffffffffffffffffffffffffffffffffff021916908373ffffffffffffffffffffffffffffffffffffffff16021790555060016005600085815260200190815260200160002060060160006101000a81548160ff02191690831515021790555061039a6002610f53565b600360009054906101000a900473ffffffffffffffffffffffffffffffffffffffff1673ffffffffffffffffffffffffffffffffffffffff166108fc6004549081150290604051600060405180830381858888f19350505050158015610404573d6000803e3d6000fd5b50505060016000819055505050565b61041b610f77565b600560008381526020019081526020016000206040518060e0016040529081600082015481526020016001820160009054906101000a900473ffffffffffffffffffffffffffffffffffffffff1673ffffffffffffffffffffffffffffffffffffffff1673ffffffffffffffffffffffffffffffffffffffff168152602001600282015481526020016003820160009054906101000a900473ffffffffffffffffffffffffffffffffffffffff1673ffffffffffffffffffffffffffffffffffffffff1673ffffffffffffffffffffffffffffffffffffffff1681526020016004820160009054906101000a900473ffffffffffffffffffffffffffffffffffffffff1673ffffffffffffffffffffffffffffffffffffffff1673ffffffffffffffffffffffffffffffffffffffff168152602001600582015481526020016006820160009054906101000a900460ff1615151515815250509050919050565b606060006105896001610f69565b905060008060005b83811015610626573373ffffffffffffffffffffffffffffffffffffffff166005600083815260200190815260200160002060040160009054906101000a900473ffffffffffffffffffffffffffffffffffffffff1673ffffffffffffffffffffffffffffffffffffffff1614156106135760018361061091906114fb565b92505b808061061e906115df565b915050610591565b5060008267ffffffffffffffff811115610669577f4e487b7100000000000000000000000000000000000000000000000000000000600052604160045260246000fd5b6040519080825280602002602001820160405280156106a257816020015b61068f610f77565b8152602001906001900390816106875790505b50905060005b848110156108e6573373ffffffffffffffffffffffffffffffffffffffff166005600083815260200190815260200160002060040160009054906101000a900473ffffffffffffffffffffffffffffffffffffffff1673ffffffffffffffffffffffffffffffffffffffff1614156108d35760008190506000600560008381526020019081526020016000209050806040518060e0016040529081600082015481526020016001820160009054906101000a900473ffffffffffffffffffffffffffffffffffffffff1673ffffffffffffffffffffffffffffffffffffffff1673ffffffffffffffffffffffffffffffffffffffff168152602001600282015481526020016003820160009054906101000a900473ffffffffffffffffffffffffffffffffffffffff1673ffffffffffffffffffffffffffffffffffffffff1673ffffffffffffffffffffffffffffffffffffffff1681526020016004820160009054906101000a900473ffffffffffffffffffffffffffffffffffffffff1673ffffffffffffffffffffffffffffffffffffffff1673ffffffffffffffffffffffffffffffffffffffff168152602001600582015481526020016006820160009054906101000a900460ff1615151515815250508486815181106108b6577f4e487b7100000000000000000000000000000000000000000000000000000000600052603260045260246000fd5b60200260200101819052506001856108ce91906114fb565b945050505b80806108de906115df565b9150506106a8565b508094505050505090565b606060006108ff6001610f69565b9050600061090d6002610f69565b6109176001610f69565b6109219190611551565b90506000808267ffffffffffffffff811115610966577f4e487b7100000000000000000000000000000000000000000000000000000000600052604160045260246000fd5b60405190808252806020026020018201604052801561099f57816020015b61098c610f77565b8152602001906001900390816109845790505b50905060005b84811015610be457600073ffffffffffffffffffffffffffffffffffffffff166005600083815260200190815260200160002060040160009054906101000a900473ffffffffffffffffffffffffffffffffffffffff1673ffffffffffffffffffffffffffffffffffffffff161415610bd15760008190506000600560008381526020019081526020016000209050806040518060e0016040529081600082015481526020016001820160009054906101000a900473ffffffffffffffffffffffffffffffffffffffff1673ffffffffffffffffffffffffffffffffffffffff1673ffffffffffffffffffffffffffffffffffffffff168152602001600282015481526020016003820160009054906101000a900473ffffffffffffffffffffffffffffffffffffffff1673ffffffffffffffffffffffffffffffffffffffff1673ffffffffffffffffffffffffffffffffffffffff1681526020016004820160009054906101000a900473ffffffffffffffffffffffffffffffffffffffff1673ffffffffffffffffffffffffffffffffffffffff1673ffffffffffffffffffffffffffffffffffffffff168152602001600582015481526020016006820160009054906101000a900460ff161515151581525050848681518110610bb4577f4e487b7100000000000000000000000000000000000000000000000000000000600052603260045260246000fd5b6020026020010181905250600185610bcc91906114fb565b945050505b8080610bdc906115df565b9150506109a5565b508094505050505090565b60026000541415610c35576040517f08c379a0000000000000000000000000000000000000000000000000000000008152600401610c2c9061143b565b60405180910390fd5b600260008190555060008111610c80576040517f08c379a0000000000000000000000000000000000000000000000000000000008152600401610c779061145b565b60405180910390fd5b6004543414610cc4576040517f08c379a0000000000000000000000000000000000000000000000000000000008152600401610cbb9061141b565b60405180910390fd5b6000610cd06001610f69565b90506040518060e001604052808281526020018573ffffffffffffffffffffffffffffffffffffffff1681526020018481526020013373ffffffffffffffffffffffffffffffffffffffff168152602001600073ffffffffffffffffffffffffffffffffffffffff16815260200183815260200160001515815250600560008381526020019081526020016000206000820151816000015560208201518160010160006101000a81548173ffffffffffffffffffffffffffffffffffffffff021916908373ffffffffffffffffffffffffffffffffffffffff1602179055506040820151816002015560608201518160030160006101000a81548173ffffffffffffffffffffffffffffffffffffffff021916908373ffffffffffffffffffffffffffffffffffffffff16021790555060808201518160040160006101000a81548173ffffffffffffffffffffffffffffffffffffffff021916908373ffffffffffffffffffffffffffffffffffffffff16021790555060a0820151816005015560c08201518160060160006101000a81548160ff0219169083151502179055509050508373ffffffffffffffffffffffffffffffffffffffff166323b872dd3330866040518463ffffffff1660e01b8152600401610eb19392919061135d565b600060405180830381600087803b158015610ecb57600080fd5b505af1158015610edf573d6000803e3d6000fd5b50505050610eed6001610f53565b828473ffffffffffffffffffffffffffffffffffffffff16827f143fc6df1a85056043e9a689326cca21cf79f348fa86fde2cf882f2a0415fa13336000876000604051610f3d9493929190611394565b60405180910390a4506001600081905550505050565b6001816000016000828254019250508190555050565b600081600001549050919050565b6040518060e0016040528060008152602001600073ffffffffffffffffffffffffffffffffffffffff16815260200160008152602001600073ffffffffffffffffffffffffffffffffffffffff168152602001600073ffffffffffffffffffffffffffffffffffffffff168152602001600081526020016000151581525090565b60008135905061100781611747565b92915050565b60008135905061101c8161175e565b92915050565b6000806040838503121561103557600080fd5b600061104385828601610ff8565b92505060206110548582860161100d565b9150509250929050565b60008060006060848603121561107357600080fd5b600061108186828701610ff8565b93505060206110928682870161100d565b92505060406110a38682870161100d565b9150509250925092565b6000602082840312156110bf57600080fd5b60006110cd8482850161100d565b91505092915050565b60006110e28383611223565b60e08301905092915050565b6110f781611597565b82525050565b61110681611585565b82525050565b61111581611585565b82525050565b6000611126826114c1565b61113081856114d9565b935061113b836114b1565b8060005b8381101561116c57815161115388826110d6565b975061115e836114cc565b92505060018101905061113f565b5085935050505092915050565b611182816115a9565b82525050565b611191816115a9565b82525050565b60006111a4603f836114ea565b91506111af82611657565b604082019050919050565b60006111c76024836114ea565b91506111d2826116a6565b604082019050919050565b60006111ea601f836114ea565b91506111f5826116f5565b602082019050919050565b600061120d601c836114ea565b91506112188261171e565b602082019050919050565b60e082016000820151611239600085018261133f565b50602082015161124c60208501826110fd565b50604082015161125f604085018261133f565b50606082015161127260608501826110ee565b50608082015161128560808501826110ee565b5060a082015161129860a085018261133f565b5060c08201516112ab60c0850182611179565b50505050565b60e0820160008201516112c7600085018261133f565b5060208201516112da60208501826110fd565b5060408201516112ed604085018261133f565b50606082015161130060608501826110ee565b50608082015161131360808501826110ee565b5060a082015161132660a085018261133f565b5060c082015161133960c0850182611179565b50505050565b611348816115d5565b82525050565b611357816115d5565b82525050565b6000606082019050611372600083018661110c565b61137f602083018561110c565b61138c604083018461134e565b949350505050565b60006080820190506113a9600083018761110c565b6113b6602083018661110c565b6113c3604083018561134e565b6113d06060830184611188565b95945050505050565b600060208201905081810360008301526113f3818461111b565b905092915050565b6000602082019050818103600083015261141481611197565b9050919050565b60006020820190508181036000830152611434816111ba565b9050919050565b60006020820190508181036000830152611454816111dd565b9050919050565b6000602082019050818103600083015261147481611200565b9050919050565b600060e08201905061149060008301846112b1565b92915050565b60006020820190506114ab600083018461134e565b92915050565b6000819050602082019050919050565b600081519050919050565b6000602082019050919050565b600082825260208201905092915050565b600082825260208201905092915050565b6000611506826115d5565b9150611511836115d5565b9250827fffffffffffffffffffffffffffffffffffffffffffffffffffffffffffffffff0382111561154657611545611628565b5b828201905092915050565b600061155c826115d5565b9150611567836115d5565b92508282101561157a57611579611628565b5b828203905092915050565b6000611590826115b5565b9050919050565b60006115a2826115b5565b9050919050565b60008115159050919050565b600073ffffffffffffffffffffffffffffffffffffffff82169050919050565b6000819050919050565b60006115ea826115d5565b91507fffffffffffffffffffffffffffffffffffffffffffffffffffffffffffffffff82141561161d5761161c611628565b5b600182019050919050565b7f4e487b7100000000000000000000000000000000000000000000000000000000600052601160045260246000fd5b7f506c65617365207375626d6974207468652061736b656420707269636520696e60008201527f206f7264657220746f20636f6d706c6574652074686520707572636861736500602082015250565b7f5072696365206d75737420626520657175616c20746f206c697374696e67207060008201527f7269636500000000000000000000000000000000000000000000000000000000602082015250565b7f5265656e7472616e637947756172643a207265656e7472616e742063616c6c00600082015250565b7f5072696365206d7573742062652067726561746572207468616e203000000000600082015250565b61175081611585565b811461175b57600080fd5b50565b611767816115d5565b811461177257600080fd5b5056fea2646970667358221220c023ff4694742ecc2b5841243d1b3c189ca23628e44cd06234bd2a1e0deac19a64736f6c63430008040033",
  "linkReferences": {},
  "deployedLinkReferences": {}
}