{
	"_format": "hh-sol-artifact-1",
	"contractName": "EternalMarketplace",
	"sourceName": "contracts/EternalMarketplace.sol",
	"abi": [
		{
			"inputs": [],
			"stateMutability": "nonpayable",
			"type": "constructor"
		},
		{
			"anonymous": false,
			"inputs": [
				{
					"indexed": true,
					"internalType": "uint256",
					"name": "itemId",
					"type": "uint256"
				},
				{
					"indexed": true,
					"internalType": "address",
					"name": "nftContract",
					"type": "address"
				},
				{
					"indexed": true,
					"internalType": "uint256",
					"name": "tokenId",
					"type": "uint256"
				},
				{
					"indexed": false,
					"internalType": "address",
					"name": "seller",
					"type": "address"
				},
				{
					"indexed": false,
					"internalType": "address",
					"name": "owner",
					"type": "address"
				},
				{
					"indexed": false,
					"internalType": "uint256",
					"name": "price",
					"type": "uint256"
				},
				{
					"indexed": false,
					"internalType": "bool",
					"name": "sold",
					"type": "bool"
				}
			],
			"name": "EternalItemCreated",
			"type": "event"
		},
		{
			"stateMutability": "payable",
			"type": "fallback"
		},
		{
			"inputs": [
				{
					"internalType": "address",
					"name": "nftContract",
					"type": "address"
				},
				{
					"internalType": "uint256",
					"name": "itemId",
					"type": "uint256"
				}
			],
			"name": "createEternalItemSale",
			"outputs": [],
			"stateMutability": "payable",
			"type": "function"
		},
		{
			"inputs": [
				{
					"internalType": "address",
					"name": "nftContract",
					"type": "address"
				},
				{
					"internalType": "uint256",
					"name": "tokenId",
					"type": "uint256"
				},
				{
					"internalType": "uint256",
					"name": "price",
					"type": "uint256"
				}
			],
			"name": "createEternalMarketItem",
			"outputs": [],
			"stateMutability": "payable",
			"type": "function"
		},
		{
			"inputs": [
				{
					"internalType": "uint256",
					"name": "itemId",
					"type": "uint256"
				}
			],
			"name": "fetchEternalItemById",
			"outputs": [
				{
					"components": [
						{
							"internalType": "uint256",
							"name": "itemId",
							"type": "uint256"
						},
						{
							"internalType": "address",
							"name": "nftContract",
							"type": "address"
						},
						{
							"internalType": "uint256",
							"name": "tokenId",
							"type": "uint256"
						},
						{
							"internalType": "address payable",
							"name": "seller",
							"type": "address"
						},
						{
							"internalType": "address payable",
							"name": "owner",
							"type": "address"
						},
						{
							"internalType": "uint256",
							"name": "price",
							"type": "uint256"
						},
						{
							"internalType": "bool",
							"name": "sold",
							"type": "bool"
						}
					],
					"internalType": "struct EternalMarketplace.EternalItem",
					"name": "",
					"type": "tuple"
				}
			],
			"stateMutability": "view",
			"type": "function"
		},
		{
			"inputs": [],
			"name": "fetchEternalItems",
			"outputs": [
				{
					"components": [
						{
							"internalType": "uint256",
							"name": "itemId",
							"type": "uint256"
						},
						{
							"internalType": "address",
							"name": "nftContract",
							"type": "address"
						},
						{
							"internalType": "uint256",
							"name": "tokenId",
							"type": "uint256"
						},
						{
							"internalType": "address payable",
							"name": "seller",
							"type": "address"
						},
						{
							"internalType": "address payable",
							"name": "owner",
							"type": "address"
						},
						{
							"internalType": "uint256",
							"name": "price",
							"type": "uint256"
						},
						{
							"internalType": "bool",
							"name": "sold",
							"type": "bool"
						}
					],
					"internalType": "struct EternalMarketplace.EternalItem[]",
					"name": "",
					"type": "tuple[]"
				}
			],
			"stateMutability": "view",
			"type": "function"
		},
		{
			"inputs": [],
			"name": "fetchMyEternalItems",
			"outputs": [
				{
					"components": [
						{
							"internalType": "uint256",
							"name": "itemId",
							"type": "uint256"
						},
						{
							"internalType": "address",
							"name": "nftContract",
							"type": "address"
						},
						{
							"internalType": "uint256",
							"name": "tokenId",
							"type": "uint256"
						},
						{
							"internalType": "address payable",
							"name": "seller",
							"type": "address"
						},
						{
							"internalType": "address payable",
							"name": "owner",
							"type": "address"
						},
						{
							"internalType": "uint256",
							"name": "price",
							"type": "uint256"
						},
						{
							"internalType": "bool",
							"name": "sold",
							"type": "bool"
						}
					],
					"internalType": "struct EternalMarketplace.EternalItem[]",
					"name": "",
					"type": "tuple[]"
				}
			],
			"stateMutability": "view",
			"type": "function"
		},
		{
			"inputs": [],
			"name": "getListingPrice",
			"outputs": [
				{
					"internalType": "uint256",
					"name": "",
					"type": "uint256"
				}
			],
			"stateMutability": "view",
			"type": "function"
		},
		{
			"stateMutability": "payable",
			"type": "receive"
		}
	],
	"bytecode": "0x6080604052662386f26fc1000060045534801561001b57600080fd5b50600160008190555033600360006101000a81548173ffffffffffffffffffffffffffffffffffffffff021916908373ffffffffffffffffffffffffffffffffffffffff1602179055506118cb806100746000396000f3fe6080604052600436106100595760003560e01c806312e85585146100625780631856f2141461008d5780633bb2c3ba146100a9578063694fb48e146100e657806388573c2014610111578063b5ab8e8b1461013c57610060565b3661006057005b005b34801561006e57600080fd5b50610077610158565b604051610084919061157f565b60405180910390f35b6100a760048036038101906100a29190611090565b610162565b005b3480156100b557600080fd5b506100d060048036038101906100cb919061111b565b610481565b6040516100dd9190611564565b60405180910390f35b3480156100f257600080fd5b506100fb6105e9565b60405161010891906114a2565b60405180910390f35b34801561011d57600080fd5b5061012661095f565b60405161013391906114a2565b60405180910390f35b610156600480360381019061015191906110cc565b610c5d565b005b6000600454905090565b600260005414156101a8576040517f08c379a000000000000000000000000000000000000000000000000000000000815260040161019f90611524565b60405180910390fd5b6002600081905550600060056000838152602001908152602001600020600201549050600060056000848152602001908152602001600020600501549050803414610228576040517f08c379a000000000000000000000000000000000000000000000000000000000815260040161021f906114e4565b60405180910390fd5b60006005600085815260200190815260200160002060030160009054906101000a900473ffffffffffffffffffffffffffffffffffffffff1673ffffffffffffffffffffffffffffffffffffffff163460405161028490611411565b60006040518083038185875af1925050503d80600081146102c1576040519150601f19603f3d011682016040523d82523d6000602084013e6102c6565b606091505b505090508061030a576040517f08c379a0000000000000000000000000000000000000000000000000000000008152600401610301906114c4565b60405180910390fd5b8473ffffffffffffffffffffffffffffffffffffffff166323b872dd3033866040518463ffffffff1660e01b815260040161034793929190611426565b600060405180830381600087803b15801561036157600080fd5b505af1158015610375573d6000803e3d6000fd5b50505050336005600086815260200190815260200160002060040160006101000a81548173ffffffffffffffffffffffffffffffffffffffff021916908373ffffffffffffffffffffffffffffffffffffffff16021790555060016005600086815260200190815260200160002060060160006101000a81548160ff0219169083151502179055506104076002610fc1565b600360009054906101000a900473ffffffffffffffffffffffffffffffffffffffff1673ffffffffffffffffffffffffffffffffffffffff166108fc6004549081150290604051600060405180830381858888f19350505050158015610471573d6000803e3d6000fd5b5050505060016000819055505050565b610489610fe5565b600560008381526020019081526020016000206040518060e0016040529081600082015481526020016001820160009054906101000a900473ffffffffffffffffffffffffffffffffffffffff1673ffffffffffffffffffffffffffffffffffffffff1673ffffffffffffffffffffffffffffffffffffffff168152602001600282015481526020016003820160009054906101000a900473ffffffffffffffffffffffffffffffffffffffff1673ffffffffffffffffffffffffffffffffffffffff1673ffffffffffffffffffffffffffffffffffffffff1681526020016004820160009054906101000a900473ffffffffffffffffffffffffffffffffffffffff1673ffffffffffffffffffffffffffffffffffffffff1673ffffffffffffffffffffffffffffffffffffffff168152602001600582015481526020016006820160009054906101000a900460ff1615151515815250509050919050565b606060006105f76001610fd7565b905060008060005b83811015610694573373ffffffffffffffffffffffffffffffffffffffff166005600083815260200190815260200160002060040160009054906101000a900473ffffffffffffffffffffffffffffffffffffffff1673ffffffffffffffffffffffffffffffffffffffff1614156106815760018361067e91906115ef565b92505b808061068c906116d3565b9150506105ff565b5060008267ffffffffffffffff8111156106d7577f4e487b7100000000000000000000000000000000000000000000000000000000600052604160045260246000fd5b60405190808252806020026020018201604052801561071057816020015b6106fd610fe5565b8152602001906001900390816106f55790505b50905060005b84811015610954573373ffffffffffffffffffffffffffffffffffffffff166005600083815260200190815260200160002060040160009054906101000a900473ffffffffffffffffffffffffffffffffffffffff1673ffffffffffffffffffffffffffffffffffffffff1614156109415760008190506000600560008381526020019081526020016000209050806040518060e0016040529081600082015481526020016001820160009054906101000a900473ffffffffffffffffffffffffffffffffffffffff1673ffffffffffffffffffffffffffffffffffffffff1673ffffffffffffffffffffffffffffffffffffffff168152602001600282015481526020016003820160009054906101000a900473ffffffffffffffffffffffffffffffffffffffff1673ffffffffffffffffffffffffffffffffffffffff1673ffffffffffffffffffffffffffffffffffffffff1681526020016004820160009054906101000a900473ffffffffffffffffffffffffffffffffffffffff1673ffffffffffffffffffffffffffffffffffffffff1673ffffffffffffffffffffffffffffffffffffffff168152602001600582015481526020016006820160009054906101000a900460ff161515151581525050848681518110610924577f4e487b7100000000000000000000000000000000000000000000000000000000600052603260045260246000fd5b602002602001018190525060018561093c91906115ef565b945050505b808061094c906116d3565b915050610716565b508094505050505090565b6060600061096d6001610fd7565b9050600061097b6002610fd7565b6109856001610fd7565b61098f9190611645565b90506000808267ffffffffffffffff8111156109d4577f4e487b7100000000000000000000000000000000000000000000000000000000600052604160045260246000fd5b604051908082528060200260200182016040528015610a0d57816020015b6109fa610fe5565b8152602001906001900390816109f25790505b50905060005b84811015610c5257600073ffffffffffffffffffffffffffffffffffffffff166005600083815260200190815260200160002060040160009054906101000a900473ffffffffffffffffffffffffffffffffffffffff1673ffffffffffffffffffffffffffffffffffffffff161415610c3f5760008190506000600560008381526020019081526020016000209050806040518060e0016040529081600082015481526020016001820160009054906101000a900473ffffffffffffffffffffffffffffffffffffffff1673ffffffffffffffffffffffffffffffffffffffff1673ffffffffffffffffffffffffffffffffffffffff168152602001600282015481526020016003820160009054906101000a900473ffffffffffffffffffffffffffffffffffffffff1673ffffffffffffffffffffffffffffffffffffffff1673ffffffffffffffffffffffffffffffffffffffff1681526020016004820160009054906101000a900473ffffffffffffffffffffffffffffffffffffffff1673ffffffffffffffffffffffffffffffffffffffff1673ffffffffffffffffffffffffffffffffffffffff168152602001600582015481526020016006820160009054906101000a900460ff161515151581525050848681518110610c22577f4e487b7100000000000000000000000000000000000000000000000000000000600052603260045260246000fd5b6020026020010181905250600185610c3a91906115ef565b945050505b8080610c4a906116d3565b915050610a13565b508094505050505090565b60026000541415610ca3576040517f08c379a0000000000000000000000000000000000000000000000000000000008152600401610c9a90611524565b60405180910390fd5b600260008190555060008111610cee576040517f08c379a0000000000000000000000000000000000000000000000000000000008152600401610ce590611544565b60405180910390fd5b6004543414610d32576040517f08c379a0000000000000000000000000000000000000000000000000000000008152600401610d2990611504565b60405180910390fd5b6000610d3e6001610fd7565b90506040518060e001604052808281526020018573ffffffffffffffffffffffffffffffffffffffff1681526020018481526020013373ffffffffffffffffffffffffffffffffffffffff168152602001600073ffffffffffffffffffffffffffffffffffffffff16815260200183815260200160001515815250600560008381526020019081526020016000206000820151816000015560208201518160010160006101000a81548173ffffffffffffffffffffffffffffffffffffffff021916908373ffffffffffffffffffffffffffffffffffffffff1602179055506040820151816002015560608201518160030160006101000a81548173ffffffffffffffffffffffffffffffffffffffff021916908373ffffffffffffffffffffffffffffffffffffffff16021790555060808201518160040160006101000a81548173ffffffffffffffffffffffffffffffffffffffff021916908373ffffffffffffffffffffffffffffffffffffffff16021790555060a0820151816005015560c08201518160060160006101000a81548160ff0219169083151502179055509050508373ffffffffffffffffffffffffffffffffffffffff166323b872dd3330866040518463ffffffff1660e01b8152600401610f1f93929190611426565b600060405180830381600087803b158015610f3957600080fd5b505af1158015610f4d573d6000803e3d6000fd5b50505050610f5b6001610fc1565b828473ffffffffffffffffffffffffffffffffffffffff16827f143fc6df1a85056043e9a689326cca21cf79f348fa86fde2cf882f2a0415fa13336000876000604051610fab949392919061145d565b60405180910390a4506001600081905550505050565b6001816000016000828254019250508190555050565b600081600001549050919050565b6040518060e0016040528060008152602001600073ffffffffffffffffffffffffffffffffffffffff16815260200160008152602001600073ffffffffffffffffffffffffffffffffffffffff168152602001600073ffffffffffffffffffffffffffffffffffffffff168152602001600081526020016000151581525090565b60008135905061107581611867565b92915050565b60008135905061108a8161187e565b92915050565b600080604083850312156110a357600080fd5b60006110b185828601611066565b92505060206110c28582860161107b565b9150509250929050565b6000806000606084860312156110e157600080fd5b60006110ef86828701611066565b93505060206111008682870161107b565b92505060406111118682870161107b565b9150509250925092565b60006020828403121561112d57600080fd5b600061113b8482850161107b565b91505092915050565b600061115083836112d7565b60e08301905092915050565b6111658161168b565b82525050565b61117481611679565b82525050565b61118381611679565b82525050565b6000611194826115aa565b61119e81856115c2565b93506111a98361159a565b8060005b838110156111da5781516111c18882611144565b97506111cc836115b5565b9250506001810190506111ad565b5085935050505092915050565b6111f08161169d565b82525050565b6111ff8161169d565b82525050565b6000611212600f836115de565b915061121d8261174b565b602082019050919050565b6000611235603f836115de565b915061124082611774565b604082019050919050565b60006112586024836115de565b9150611263826117c3565b604082019050919050565b600061127b6000836115d3565b915061128682611812565b600082019050919050565b600061129e601f836115de565b91506112a982611815565b602082019050919050565b60006112c1601c836115de565b91506112cc8261183e565b602082019050919050565b60e0820160008201516112ed60008501826113f3565b506020820151611300602085018261116b565b50604082015161131360408501826113f3565b506060820151611326606085018261115c565b506080820151611339608085018261115c565b5060a082015161134c60a08501826113f3565b5060c082015161135f60c08501826111e7565b50505050565b60e08201600082015161137b60008501826113f3565b50602082015161138e602085018261116b565b5060408201516113a160408501826113f3565b5060608201516113b4606085018261115c565b5060808201516113c7608085018261115c565b5060a08201516113da60a08501826113f3565b5060c08201516113ed60c08501826111e7565b50505050565b6113fc816116c9565b82525050565b61140b816116c9565b82525050565b600061141c8261126e565b9150819050919050565b600060608201905061143b600083018661117a565b611448602083018561117a565b6114556040830184611402565b949350505050565b6000608082019050611472600083018761117a565b61147f602083018661117a565b61148c6040830185611402565b61149960608301846111f6565b95945050505050565b600060208201905081810360008301526114bc8184611189565b905092915050565b600060208201905081810360008301526114dd81611205565b9050919050565b600060208201905081810360008301526114fd81611228565b9050919050565b6000602082019050818103600083015261151d8161124b565b9050919050565b6000602082019050818103600083015261153d81611291565b9050919050565b6000602082019050818103600083015261155d816112b4565b9050919050565b600060e0820190506115796000830184611365565b92915050565b60006020820190506115946000830184611402565b92915050565b6000819050602082019050919050565b600081519050919050565b6000602082019050919050565b600082825260208201905092915050565b600081905092915050565b600082825260208201905092915050565b60006115fa826116c9565b9150611605836116c9565b9250827fffffffffffffffffffffffffffffffffffffffffffffffffffffffffffffffff0382111561163a5761163961171c565b5b828201905092915050565b6000611650826116c9565b915061165b836116c9565b92508282101561166e5761166d61171c565b5b828203905092915050565b6000611684826116a9565b9050919050565b6000611696826116a9565b9050919050565b60008115159050919050565b600073ffffffffffffffffffffffffffffffffffffffff82169050919050565b6000819050919050565b60006116de826116c9565b91507fffffffffffffffffffffffffffffffffffffffffffffffffffffffffffffffff8214156117115761171061171c565b5b600182019050919050565b7f4e487b7100000000000000000000000000000000000000000000000000000000600052601160045260246000fd5b7f5472616e73666572206661696c65640000000000000000000000000000000000600082015250565b7f506c65617365207375626d6974207468652061736b656420707269636520696e60008201527f206f7264657220746f20636f6d706c6574652074686520707572636861736500602082015250565b7f5072696365206d75737420626520657175616c20746f206c697374696e67207060008201527f7269636500000000000000000000000000000000000000000000000000000000602082015250565b50565b7f5265656e7472616e637947756172643a207265656e7472616e742063616c6c00600082015250565b7f5072696365206d7573742062652067726561746572207468616e203000000000600082015250565b61187081611679565b811461187b57600080fd5b50565b611887816116c9565b811461189257600080fd5b5056fea2646970667358221220fd827cb074a12fda6a3d612379f952d5c2fadf8bf1b172947e8be9c4299d025664736f6c63430008030033",
	"linkReferences": {},
	"deployedLinkReferences": {}
}