{
  "_format": "hh-sol-artifact-1",
  "contractName": "EternalMarketplace",
  "sourceName": "contracts/EternalMarketplace.sol",
  "abi": [
    {
      "inputs": [],
      "stateMutability": "nonpayable",
      "type": "constructor"
    },
    {
      "anonymous": false,
      "inputs": [
        {
          "indexed": true,
          "internalType": "uint256",
          "name": "itemId",
          "type": "uint256"
        },
        {
          "indexed": true,
          "internalType": "address",
          "name": "nftContract",
          "type": "address"
        },
        {
          "indexed": true,
          "internalType": "uint256",
          "name": "tokenId",
          "type": "uint256"
        },
        {
          "indexed": false,
          "internalType": "address",
          "name": "seller",
          "type": "address"
        },
        {
          "indexed": false,
          "internalType": "address",
          "name": "owner",
          "type": "address"
        },
        {
          "indexed": false,
          "internalType": "uint256",
          "name": "price",
          "type": "uint256"
        },
        {
          "indexed": false,
          "internalType": "bool",
          "name": "sold",
          "type": "bool"
        }
      ],
      "name": "EternalItemCreated",
      "type": "event"
    },
    {
      "inputs": [
        {
          "internalType": "address",
          "name": "nftContract",
          "type": "address"
        },
        {
          "internalType": "uint256",
          "name": "itemId",
          "type": "uint256"
        }
      ],
      "name": "createEternalItemSale",
      "outputs": [],
      "stateMutability": "payable",
      "type": "function"
    },
    {
      "inputs": [
        {
          "internalType": "address",
          "name": "nftContract",
          "type": "address"
        },
        {
          "internalType": "uint256",
          "name": "tokenId",
          "type": "uint256"
        },
        {
          "internalType": "uint256",
          "name": "price",
          "type": "uint256"
        }
      ],
      "name": "createEternalMarketItem",
      "outputs": [],
      "stateMutability": "payable",
      "type": "function"
    },
    {
      "inputs": [],
      "name": "fetchEternalItems",
      "outputs": [
        {
          "components": [
            {
              "internalType": "uint256",
              "name": "itemId",
              "type": "uint256"
            },
            {
              "internalType": "address",
              "name": "nftContract",
              "type": "address"
            },
            {
              "internalType": "uint256",
              "name": "tokenId",
              "type": "uint256"
            },
            {
              "internalType": "address payable",
              "name": "seller",
              "type": "address"
            },
            {
              "internalType": "address payable",
              "name": "owner",
              "type": "address"
            },
            {
              "internalType": "uint256",
              "name": "price",
              "type": "uint256"
            },
            {
              "internalType": "bool",
              "name": "sold",
              "type": "bool"
            }
          ],
          "internalType": "struct EternalMarketplace.EternalItem[]",
          "name": "",
          "type": "tuple[]"
        }
      ],
      "stateMutability": "view",
      "type": "function"
    },
    {
      "inputs": [],
      "name": "fetchItemsCreated",
      "outputs": [
        {
          "components": [
            {
              "internalType": "uint256",
              "name": "itemId",
              "type": "uint256"
            },
            {
              "internalType": "address",
              "name": "nftContract",
              "type": "address"
            },
            {
              "internalType": "uint256",
              "name": "tokenId",
              "type": "uint256"
            },
            {
              "internalType": "address payable",
              "name": "seller",
              "type": "address"
            },
            {
              "internalType": "address payable",
              "name": "owner",
              "type": "address"
            },
            {
              "internalType": "uint256",
              "name": "price",
              "type": "uint256"
            },
            {
              "internalType": "bool",
              "name": "sold",
              "type": "bool"
            }
          ],
          "internalType": "struct EternalMarketplace.EternalItem[]",
          "name": "",
          "type": "tuple[]"
        }
      ],
      "stateMutability": "view",
      "type": "function"
    },
    {
      "inputs": [],
      "name": "fetchMyEternalItems",
      "outputs": [
        {
          "components": [
            {
              "internalType": "uint256",
              "name": "itemId",
              "type": "uint256"
            },
            {
              "internalType": "address",
              "name": "nftContract",
              "type": "address"
            },
            {
              "internalType": "uint256",
              "name": "tokenId",
              "type": "uint256"
            },
            {
              "internalType": "address payable",
              "name": "seller",
              "type": "address"
            },
            {
              "internalType": "address payable",
              "name": "owner",
              "type": "address"
            },
            {
              "internalType": "uint256",
              "name": "price",
              "type": "uint256"
            },
            {
              "internalType": "bool",
              "name": "sold",
              "type": "bool"
            }
          ],
          "internalType": "struct EternalMarketplace.EternalItem[]",
          "name": "",
          "type": "tuple[]"
        }
      ],
      "stateMutability": "view",
      "type": "function"
    },
    {
      "inputs": [],
      "name": "getListingPrice",
      "outputs": [
        {
          "internalType": "uint256",
          "name": "",
          "type": "uint256"
        }
      ],
      "stateMutability": "view",
      "type": "function"
    }
  ],
  "bytecode": "0x6080604052662386f26fc1000060045534801561001b57600080fd5b50600160008190555033600360006101000a81548173ffffffffffffffffffffffffffffffffffffffff021916908373ffffffffffffffffffffffffffffffffffffffff160217905550611935806100746000396000f3fe6080604052600436106100555760003560e01c806312e855851461005a5780631856f21414610085578063694fb48e146100a157806388573c20146100cc578063b5ab8e8b146100f7578063f064c32e14610113575b600080fd5b34801561006657600080fd5b5061006f61013e565b60405161007c9190611620565b60405180910390f35b61009f600480360381019061009a919061127e565b610148565b005b3480156100ad57600080fd5b506100b6610401565b6040516100c3919061157e565b60405180910390f35b3480156100d857600080fd5b506100e161079b565b6040516100ee919061157e565b60405180910390f35b610111600480360381019061010c91906112ba565b610ab1565b005b34801561011f57600080fd5b50610128610e15565b604051610135919061157e565b60405180910390f35b6000600454905090565b6002600054141561018e576040517f08c379a0000000000000000000000000000000000000000000000000000000008152600401610185906115e0565b60405180910390fd5b600260008190555060006005600083815260200190815260200160002060020154905060006005600084815260200190815260200160002060050154905080341461020e576040517f08c379a0000000000000000000000000000000000000000000000000000000008152600401610205906115a0565b60405180910390fd5b6005600084815260200190815260200160002060030160009054906101000a900473ffffffffffffffffffffffffffffffffffffffff1673ffffffffffffffffffffffffffffffffffffffff166108fc349081150290604051600060405180830381858888f1935050505015801561028a573d6000803e3d6000fd5b508373ffffffffffffffffffffffffffffffffffffffff166323b872dd3033856040518463ffffffff1660e01b81526004016102c893929190611502565b600060405180830381600087803b1580156102e257600080fd5b505af11580156102f6573d6000803e3d6000fd5b50505050336005600085815260200190815260200160002060040160006101000a81548173ffffffffffffffffffffffffffffffffffffffff021916908373ffffffffffffffffffffffffffffffffffffffff16021790555060016005600085815260200190815260200160002060060160006101000a81548160ff02191690831515021790555061038860026111af565b600360009054906101000a900473ffffffffffffffffffffffffffffffffffffffff1673ffffffffffffffffffffffffffffffffffffffff166108fc6004549081150290604051600060405180830381858888f193505050501580156103f2573d6000803e3d6000fd5b50505060016000819055505050565b6060600061040f60016111c5565b905060008060005b838110156104b8573373ffffffffffffffffffffffffffffffffffffffff16600560006001846104479190611685565b815260200190815260200160002060040160009054906101000a900473ffffffffffffffffffffffffffffffffffffffff1673ffffffffffffffffffffffffffffffffffffffff1614156104a5576001836104a29190611685565b92505b80806104b090611769565b915050610417565b5060008267ffffffffffffffff8111156104fb577f4e487b7100000000000000000000000000000000000000000000000000000000600052604160045260246000fd5b60405190808252806020026020018201604052801561053457816020015b6105216111d3565b8152602001906001900390816105195790505b50905060005b84811015610790573373ffffffffffffffffffffffffffffffffffffffff166005600060018461056a9190611685565b815260200190815260200160002060040160009054906101000a900473ffffffffffffffffffffffffffffffffffffffff1673ffffffffffffffffffffffffffffffffffffffff16141561077d5760006001826105c79190611685565b90506000600560008381526020019081526020016000209050806040518060e0016040529081600082015481526020016001820160009054906101000a900473ffffffffffffffffffffffffffffffffffffffff1673ffffffffffffffffffffffffffffffffffffffff1673ffffffffffffffffffffffffffffffffffffffff168152602001600282015481526020016003820160009054906101000a900473ffffffffffffffffffffffffffffffffffffffff1673ffffffffffffffffffffffffffffffffffffffff1673ffffffffffffffffffffffffffffffffffffffff1681526020016004820160009054906101000a900473ffffffffffffffffffffffffffffffffffffffff1673ffffffffffffffffffffffffffffffffffffffff1673ffffffffffffffffffffffffffffffffffffffff168152602001600582015481526020016006820160009054906101000a900460ff161515151581525050848681518110610760577f4e487b7100000000000000000000000000000000000000000000000000000000600052603260045260246000fd5b60200260200101819052506001856107789190611685565b945050505b808061078890611769565b91505061053a565b508094505050505090565b606060006107a960016111c5565b905060006107b760026111c5565b6107c160016111c5565b6107cb91906116db565b90506000808267ffffffffffffffff811115610810577f4e487b7100000000000000000000000000000000000000000000000000000000600052604160045260246000fd5b60405190808252806020026020018201604052801561084957816020015b6108366111d3565b81526020019060019003908161082e5790505b50905060005b84811015610aa657600073ffffffffffffffffffffffffffffffffffffffff16600560006001846108809190611685565b815260200190815260200160002060040160009054906101000a900473ffffffffffffffffffffffffffffffffffffffff1673ffffffffffffffffffffffffffffffffffffffff161415610a935760006001826108dd9190611685565b90506000600560008381526020019081526020016000209050806040518060e0016040529081600082015481526020016001820160009054906101000a900473ffffffffffffffffffffffffffffffffffffffff1673ffffffffffffffffffffffffffffffffffffffff1673ffffffffffffffffffffffffffffffffffffffff168152602001600282015481526020016003820160009054906101000a900473ffffffffffffffffffffffffffffffffffffffff1673ffffffffffffffffffffffffffffffffffffffff1673ffffffffffffffffffffffffffffffffffffffff1681526020016004820160009054906101000a900473ffffffffffffffffffffffffffffffffffffffff1673ffffffffffffffffffffffffffffffffffffffff1673ffffffffffffffffffffffffffffffffffffffff168152602001600582015481526020016006820160009054906101000a900460ff161515151581525050848681518110610a76577f4e487b7100000000000000000000000000000000000000000000000000000000600052603260045260246000fd5b6020026020010181905250600185610a8e9190611685565b945050505b8080610a9e90611769565b91505061084f565b508094505050505090565b60026000541415610af7576040517f08c379a0000000000000000000000000000000000000000000000000000000008152600401610aee906115e0565b60405180910390fd5b600260008190555060008111610b42576040517f08c379a0000000000000000000000000000000000000000000000000000000008152600401610b3990611600565b60405180910390fd5b6004543414610b86576040517f08c379a0000000000000000000000000000000000000000000000000000000008152600401610b7d906115c0565b60405180910390fd5b610b9060016111af565b6000610b9c60016111c5565b90506040518060e001604052808281526020018573ffffffffffffffffffffffffffffffffffffffff1681526020018481526020013373ffffffffffffffffffffffffffffffffffffffff168152602001600073ffffffffffffffffffffffffffffffffffffffff16815260200183815260200160001515815250600560008381526020019081526020016000206000820151816000015560208201518160010160006101000a81548173ffffffffffffffffffffffffffffffffffffffff021916908373ffffffffffffffffffffffffffffffffffffffff1602179055506040820151816002015560608201518160030160006101000a81548173ffffffffffffffffffffffffffffffffffffffff021916908373ffffffffffffffffffffffffffffffffffffffff16021790555060808201518160040160006101000a81548173ffffffffffffffffffffffffffffffffffffffff021916908373ffffffffffffffffffffffffffffffffffffffff16021790555060a0820151816005015560c08201518160060160006101000a81548160ff0219169083151502179055509050508373ffffffffffffffffffffffffffffffffffffffff166323b872dd3330866040518463ffffffff1660e01b8152600401610d7d93929190611502565b600060405180830381600087803b158015610d9757600080fd5b505af1158015610dab573d6000803e3d6000fd5b50505050828473ffffffffffffffffffffffffffffffffffffffff16827f143fc6df1a85056043e9a689326cca21cf79f348fa86fde2cf882f2a0415fa13336000876000604051610dff9493929190611539565b60405180910390a4506001600081905550505050565b60606000610e2360016111c5565b905060008060005b83811015610ecc573373ffffffffffffffffffffffffffffffffffffffff1660056000600184610e5b9190611685565b815260200190815260200160002060030160009054906101000a900473ffffffffffffffffffffffffffffffffffffffff1673ffffffffffffffffffffffffffffffffffffffff161415610eb957600183610eb69190611685565b92505b8080610ec490611769565b915050610e2b565b5060008267ffffffffffffffff811115610f0f577f4e487b7100000000000000000000000000000000000000000000000000000000600052604160045260246000fd5b604051908082528060200260200182016040528015610f4857816020015b610f356111d3565b815260200190600190039081610f2d5790505b50905060005b848110156111a4573373ffffffffffffffffffffffffffffffffffffffff1660056000600184610f7e9190611685565b815260200190815260200160002060030160009054906101000a900473ffffffffffffffffffffffffffffffffffffffff1673ffffffffffffffffffffffffffffffffffffffff161415611191576000600182610fdb9190611685565b90506000600560008381526020019081526020016000209050806040518060e0016040529081600082015481526020016001820160009054906101000a900473ffffffffffffffffffffffffffffffffffffffff1673ffffffffffffffffffffffffffffffffffffffff1673ffffffffffffffffffffffffffffffffffffffff168152602001600282015481526020016003820160009054906101000a900473ffffffffffffffffffffffffffffffffffffffff1673ffffffffffffffffffffffffffffffffffffffff1673ffffffffffffffffffffffffffffffffffffffff1681526020016004820160009054906101000a900473ffffffffffffffffffffffffffffffffffffffff1673ffffffffffffffffffffffffffffffffffffffff1673ffffffffffffffffffffffffffffffffffffffff168152602001600582015481526020016006820160009054906101000a900460ff161515151581525050848681518110611174577f4e487b7100000000000000000000000000000000000000000000000000000000600052603260045260246000fd5b602002602001018190525060018561118c9190611685565b945050505b808061119c90611769565b915050610f4e565b508094505050505090565b6001816000016000828254019250508190555050565b600081600001549050919050565b6040518060e0016040528060008152602001600073ffffffffffffffffffffffffffffffffffffffff16815260200160008152602001600073ffffffffffffffffffffffffffffffffffffffff168152602001600073ffffffffffffffffffffffffffffffffffffffff168152602001600081526020016000151581525090565b600081359050611263816118d1565b92915050565b600081359050611278816118e8565b92915050565b6000806040838503121561129157600080fd5b600061129f85828601611254565b92505060206112b085828601611269565b9150509250929050565b6000806000606084860312156112cf57600080fd5b60006112dd86828701611254565b93505060206112ee86828701611269565b92505060406112ff86828701611269565b9150509250925092565b60006113158383611456565b60e08301905092915050565b61132a81611721565b82525050565b6113398161170f565b82525050565b6113488161170f565b82525050565b60006113598261164b565b6113638185611663565b935061136e8361163b565b8060005b8381101561139f5781516113868882611309565b975061139183611656565b925050600181019050611372565b5085935050505092915050565b6113b581611733565b82525050565b6113c481611733565b82525050565b60006113d7603f83611674565b91506113e2826117e1565b604082019050919050565b60006113fa602483611674565b915061140582611830565b604082019050919050565b600061141d601f83611674565b91506114288261187f565b602082019050919050565b6000611440601c83611674565b915061144b826118a8565b602082019050919050565b60e08201600082015161146c60008501826114e4565b50602082015161147f6020850182611330565b50604082015161149260408501826114e4565b5060608201516114a56060850182611321565b5060808201516114b86080850182611321565b5060a08201516114cb60a08501826114e4565b5060c08201516114de60c08501826113ac565b50505050565b6114ed8161175f565b82525050565b6114fc8161175f565b82525050565b6000606082019050611517600083018661133f565b611524602083018561133f565b61153160408301846114f3565b949350505050565b600060808201905061154e600083018761133f565b61155b602083018661133f565b61156860408301856114f3565b61157560608301846113bb565b95945050505050565b60006020820190508181036000830152611598818461134e565b905092915050565b600060208201905081810360008301526115b9816113ca565b9050919050565b600060208201905081810360008301526115d9816113ed565b9050919050565b600060208201905081810360008301526115f981611410565b9050919050565b6000602082019050818103600083015261161981611433565b9050919050565b600060208201905061163560008301846114f3565b92915050565b6000819050602082019050919050565b600081519050919050565b6000602082019050919050565b600082825260208201905092915050565b600082825260208201905092915050565b60006116908261175f565b915061169b8361175f565b9250827fffffffffffffffffffffffffffffffffffffffffffffffffffffffffffffffff038211156116d0576116cf6117b2565b5b828201905092915050565b60006116e68261175f565b91506116f18361175f565b925082821015611704576117036117b2565b5b828203905092915050565b600061171a8261173f565b9050919050565b600061172c8261173f565b9050919050565b60008115159050919050565b600073ffffffffffffffffffffffffffffffffffffffff82169050919050565b6000819050919050565b60006117748261175f565b91507fffffffffffffffffffffffffffffffffffffffffffffffffffffffffffffffff8214156117a7576117a66117b2565b5b600182019050919050565b7f4e487b7100000000000000000000000000000000000000000000000000000000600052601160045260246000fd5b7f506c65617365207375626d6974207468652061736b656420707269636520696e60008201527f206f7264657220746f20636f6d706c6574652074686520707572636861736500602082015250565b7f5072696365206d75737420626520657175616c20746f206c697374696e67207060008201527f7269636500000000000000000000000000000000000000000000000000000000602082015250565b7f5265656e7472616e637947756172643a207265656e7472616e742063616c6c00600082015250565b7f5072696365206d7573742062652067726561746572207468616e203000000000600082015250565b6118da8161170f565b81146118e557600080fd5b50565b6118f18161175f565b81146118fc57600080fd5b5056fea2646970667358221220a5ead010fffe70b8c899058230b6950438b8b9a95944973fbd2d5c4822dd349164736f6c63430008040033",
  "linkReferences": {},
  "deployedLinkReferences": {}
}